ALXV1XIFLIGHT:2
HFDTE110518
HFFXA015
HFPLTPILOT:X
HFGTYGLIDERTYPE:
HFGIDGLIDERID:F-CGHG
HFDTM100GPSDATUM:WGS-1984
HFRFWFIRMWAREVERSION:2.40
HFRHWHARDWAREVERSION:1.0
HFFTYFRTYPE:LXNAV,NANO
HFGPS:GLOBALTOP,FGPMMOPA6,66,max18000m
HFPRSPRESSALTSENSOR:INTERSEMA,MS5611,max16000m
HFCIDCOMPETITIONID:VV
HFCCLCOMPETITIONCLASS:
I043638FXA3941ENL4246GSP4749TRT
C110416105907301299000106
C0000000N00000000E
C5601950N00851120E050KIBAEK              
C5627240N00815710E435FAAREVEJX           
C5623330N00859570E810HADERUPKIRKE        
C5624790N00818420E046BAEKMARKSBRO        
C5625580N00905070E080SJOERUP             
C5626830N00818289E229FLYNDERKIRKE        
C5600670N00901260E099ARNBORGOESTANKOMST  
C5600630N00900870E851ARNBORGBANEMIDTE    
C0000000N00000000E
LLXVVOLTAGE:4.18V
LLXVRECINT:3
LLXVAUTOFINISH:TRUE
LLXVNEARDIS:5000
LLXVOFFINISH:TRUE
LLXVALWAYSRUN:FALSE
LLXVBLUETOOTH:OFF
LLXVNMEA:ON
LLXVBAUDRATE:115200bps
LLXVAUTOOFF:OFF
LLXVSAVEB:ON
LLXVIBT:OFF
LLXVEC:4
LLXVETC:70
LLXVBB:2.89
LLXVWAKE:2418
LLXVGPS:N:PA6H 1.0FW:AXN_2.31_3339_13082100 5485
LLXVTEMP:39.1
LLXVPRODNR:p251
LLXVALTOFF:0
LLXVBTY:0
B1056225600736N00901268EA-00050004000500100003251
F1056222402252217121932061429
B1056235600736N00901268EA-00050004000500400003251
B1056245600736N00901268EA-00050004000501500000251
B1056255600736N00901268EA-00050004000500400003251
B1056265600736N00901268EA-00050004000501100001251
B1056275600736N00901268EA-00050004000500300001251
B1056285600736N00901268EA-00050004000500300001251
B1056295600736N00901268EA-00050004000500900001251
B1056305600736N00901268EA-00050004000501300001251
B1056315600736N00901268EA-00050004000501100038251
B1056325600736N00901268EA-00050004000500600138251
B1056335600736N00901268EA-00050004000500500016251
B1056345600736N00901268EA-00050004000501000074265
B1056355600736N00901268EA-00050004000501200205265
B1056365600735N00901266EA-00050004000501501004255
B1056375600735N00901263EA-00050004000500301549255
B1056385600734N00901258EA-00050004000529202145255
B1056395600733N00901252EA-00050004000514202744256
B1056405600732N00901244EA-00060004000521803304256
B1056415600730N00901234EA-00060004000543003887255
B1056425600729N00901223EA-00050004000545704447255
B1056435600727N00901211EA-00050004000528005001253
B1056445600724N00901197EA-00060004100538405548252
B1056455600722N00901182EA-00060004100566906080252
B1056465600719N00901166EA-00060004100503606591253
B1056475600716N00901148EA-00060004000500707088253
B1056485600713N00901129EA-00050004100500707598253
B1056495600709N00901108EA-00050004100500308100253
B1056505600705N00901086EA-00050004100500108637254
B1056515600702N00901063EA-00050004100500809113255
LLXVTAKEOFF,GSP
LLXVBATT:4.18V 105652
B1056525600698N00901039EA-00040004100501209584254
B1056535600694N00901013EA-00010004100501209845253
B1056545600690N00900987EA-00010004200501210242253
B1056555600685N00900960EA-00020004300501110511252
B1056565600680N00900933EA-00010004300501210854251
B1056575600675N00900905EA000000004400500311052251
B1056585600669N00900876EA000020004500500511150252
B1056595600664N00900847EA000080004800500711093254
B1057005600660N00900818EA000110005100500911104255
B1057015600656N00900789EA000130005500500311100253
B1057025600651N00900761EA000160005900501111109252
B1057035600645N00900732EA000190006200500311067252
B1057045600640N00900704EA000230006500500511035253
B1057055600636N00900675EA000270006800501510980253
B1057065600631N00900647EA000290007200500010985253
B1057075600626N00900619EA000320007500501210996253
B1057085600621N00900590EA000350007700500111037253
B1057095600616N00900562EA000390008000500411039252
B1057105600611N00900534EA000420008400501511041252
B1057115600606N00900505EA000450008700500511028252
B1057125600601N00900477EA000480009000500111037252
B1057135600596N00900449EA000510009300500711070251
B1057145600590N00900421EA000550009600500011139250
B1057155600585N00900393EA000560009900500111189250
B1057165600579N00900364EA000590010100500011172250
B1057175600573N00900336EA000610010300500811371250
B1057185600568N00900307EA000640010500501511380251
B1057195600562N00900278EA000690010900501311367251
B1057205600557N00900249EA000710011200500311365251
B1057215600551N00900220EA000730011500500011406251
B1057225600546N00900191EA000750011800501111447251
B1057235600540N00900162EA000780012000500811452251
B1057245600535N00900133EA000820012200500711387251
B1057255600529N00900104EA000850012600501111343251
B1057265600524N00900075EA000880012900501011308250
B1057275600518N00900047EA000910013200500411278250
B1057285600513N00900018EA000950013500500711224250
B1057295600507N00859990EA001060014000500411209249
B1057305600501N00859962EA001090014500501111224249
B1057315600495N00859934EA001130014900501011304249
B1057325600489N00859905EA001140015100500111458248
B1057335600482N00859877EA001150015300501111545247
B1057345600476N00859848EA001180015400501011612248
B1057355600470N00859819EA001190015600500911623248
B1057365600463N00859790EA001210015800500911689249
B1057375600457N00859760EA001240016000500711693249
B1057385600451N00859731EA001260016300501011738250
B1057395600445N00859701EA001290016500500311736249
B1057405600439N00859672EA001310016600501111706249
B1057415600433N00859642EA001330016900500811697250
B1057425600427N00859613EA001350017100500211712252
B1057435600422N00859583EA001380017400500111689252
B1057445600417N00859553EA001420017600501411773250
B1057455600411N00859523EA001440017900501011823250
B1057465600404N00859494EA001490018300500811828249
B1057475600398N00859464EA001530018700500411906246
B1057485600391N00859435EA001580019100501111875247
B1057495600384N00859405EA001660019600501211832248
B1057505600378N00859376EA001690020200500811871248
B1057515600371N00859347EA001740020800501411814248
B1057525600365N00859318EA001760021200501211817247
B1057535600358N00859288EA001800021500501111765246
B1057545600351N00859260EA001830021800500111721245
B1057555600344N00859231EA001850022000500211630246
B1057565600337N00859203EA001880022300500611486246
B1057575600330N00859175EA001920022600500311404246
B1057585600323N00859147EA001950023000501411402245
B1057595600316N00859120EA001980023300500911354245
B1058005600309N00859092EA002000023600500711324246
B1058015600302N00859064EA002030023900500511311246
B1058025600295N00859037EA002070024200501511311245
B1058035600288N00859009EA002110024500500511309243
B1058045600280N00858982EA002160024900500011311243
B1058055600273N00858955EA002180025400500311298245
B1058065600266N00858927EA002210025700501311304246
B1058075600260N00858899EA002240026000500911397246
B1058085600253N00858871EA002270026300501011434247
B1058095600246N00858843EA002320026600500411404247
B1058105600240N00858815EA002340027000501311374248
B1058115600234N00858787EA002380027300500011337249
B1058125600228N00858759EA002420027700500511326248
B1058135600221N00858731EA002450028100500611322247
B1058145600215N00858703EA002500028400501211317246
B1058155600208N00858675EA002530028800501211241246
B1058165600201N00858648EA002590029200501111258247
B1058175600195N00858621EA002640029800500211013246
B1058185600188N00858594EA002700030400500711004244
B1058195600181N00858567EA002780031000500011044244
B1058205600174N00858541EA002830031600500411109243
B1058215600166N00858514EA002870032100500311074243
B1058225600159N00858488EA002930032700501311132242
B1058235600150N00858462EA002990033300501111100238
B1058245600141N00858437EA003060033900501511211236
B1058255600132N00858412EA003080034400501011278236
B1058265600123N00858387EA003120034900500811254236
B1058275600113N00858361EA003140035200501511680235
B1058285600103N00858335EA003160035400501211886236
B1058295600093N00858309EA003210035600500112080234
B1058305600082N00858282EA003250036000501012162233
B1058315600071N00858257EA003320036500501212112230
B1058325600059N00858233EA003380037100500712032227
B1058335600046N00858209EA003440037800501012025225
B1058345600033N00858187EA003470038300501212019223
B1058355600020N00858166EA003510038700501211925222
B1058365600007N00858145EA003530039000500011988221
B1058375559993N00858124EA003550039300501211999220
B1058385559979N00858104EA003600039600500312010218
B1058395559965N00858084EA003650040000500811832217
B1058405559951N00858065EA003690040500500811739216
B1058415559936N00858048EA003740040900500611726213
B1058425559921N00858032EA003810041500501311652210
B1058435559906N00858017EA003860042100500311699208
B1058445559890N00858002EA003920042700501111700208
B1058455559875N00857987EA003950043200501111838208
B1058465559859N00857972EA003980043600501411928209
B1058475559843N00857956EA004010043900500612092209
B1058485559827N00857941EA004040044200500312232209
B1058495559811N00857925EA004060044400500312360208
B1058505559794N00857910EA004080044500501112423206
B1058515559778N00857896EA004110044800501212533204
B1058525559760N00857883EA004140045100500712651202
B1058535559742N00857871EA004170045300500912790200
B1058545559724N00857860EA004180045600501412924199
B1058555559706N00857848EA004180045700500512918199
B1058565559687N00857837EA004200045700500213013198
B1058575559669N00857826EA004240045900500213048196
B1058585559650N00857817EA004280046300501213089194
B1058595559631N00857810EA004320046700500913101192
B1059005559611N00857803EA004340047000500313109191
B1059015559592N00857797EA004370047300500213226189
B1059025559572N00857791EA004390047500501113278189
B1059035559552N00857785EA004420047700501213233189
B1059045559533N00857780EA004480048000500013140190
B1059055559514N00857774EA004510048400501113218189
B1059065559494N00857770EA004560049000500813040186
B1059075559475N00857766EA004600049400500113055184
B1059085559455N00857765EA004650049800500413066181
B1059095559435N00857765EA004710050300500513070180
B1059105559416N00857765EA004750050800501513077178
B1059115559396N00857767EA004790051300501013146177
B1059125559376N00857769EA004840051700501213228176
B1059135559356N00857773EA004880052100500413391174
B1059145559336N00857777EA004950052600500313526172
B1059155559316N00857782EA004970053000500713633171
B1059165559296N00857788EA005000053400501113752170
B1059175559275N00857795EA005040053700701113815168
B1059185559255N00857803EA005060054000501113817168
B1059195559235N00857811EA005110054300500913782167
B1059205559215N00857819EA005110054500500413785167
B1059215559194N00857827EA005110054700500013828166
B1059225559174N00857837EA005150054800501313876163
B1059235559155N00857849EA005190055000701513846160
F105923240302252217121932310614
B1059245559135N00857862EA005250055500700813850160
B1059255559116N00857874EA005290056000700313843160
B1059265559098N00857887EA005340056500501513200159
B1059275559080N00857901EA005400057000500612664155
B1059285559063N00857915EA005410057400501512197152
B1059295559047N00857929EA005410057700500211554156
B1059305559031N00857939EA005420057900500910939165
B1059315559016N00857943EA005410057900500910477175
B1059325559000N00857943EA005390057800500510270185
B1059335558985N00857937EA005380057600500610255196
B1059345558971N00857927EA005370057500500710285207
B1059355558958N00857912EA005370057400501410370215
B1059365558946N00857894EA005400057400500510374224
B1059375558936N00857873EA005370057600500210129231
B1059385558928N00857850EA005410057900500909862237
B1059395558921N00857827EA005430058200501309599242
B1059405558915N00857804EA005450058400501509397246
B1059415558910N00857781EA005470058600500109236247
B1059425558905N00857757EA005500058900501109054248
B1059435558900N00857734EA005540059100500008895249
B1059445558896N00857712EA005560059400500708789249
B1059455558891N00857690EA005580059700500208698244
B1059465558885N00857669EA005590059900501208693238
B1059475558877N00857650EA005640060000501108706231
B1059485558868N00857633EA005650060000500808843222
B1059495558858N00857619EA005660060100500809063209
B1059505558845N00857610EA005660060100500409377194
B1059515558831N00857607EA005660060100500409877179
B1059525558815N00857611EA005660060100501110337166
B1059535558800N00857620EA005690060100500710676158
B1059545558786N00857633EA005680060200501310744152
B1059555558772N00857649EA005690060400500910696142
B1059565558761N00857669EA005690060400500710794129
B1059575558752N00857695EA005680060400500210970115
B1059585558747N00857723EA005670060300501111113103
B1059595558745N00857754EA005680060200601011261093
B1100005558746N00857784EA005660060200500111261081
B1100015558751N00857813EA005660060100501111169067
B1100025558759N00857839EA005660060100501110967054
B1100035558770N00857861EA005670060000501410661041
B1100045558784N00857877EA005690060000501010344026
B1100055558798N00857886EA005690060100500610099015
B1100065558814N00857892EA005710060300501209970009
B1100075558829N00857896EA005760060600500009795007
B1100085558844N00857898EA005780060900500209569005
B1100095558858N00857900EA005790061100500209265001
B1100105558872N00857898EA005790061300501208869352
B1100115558885N00857893EA005780061400501508554340
B1100125558896N00857882EA005770061200500908480325
B1100135558906N00857866EA005740061000500508519311
B1100145558913N00857847EA005730060900501008556298
B1100155558918N00857826EA005740060800500008448284
B1100165558920N00857803EA005740060900501408435270
B1100175558919N00857780EA005750061000501308328262
B1100185558916N00857758EA005760061000500508192254
B1100195558912N00857737EA005760061100500908285244
B1100205558905N00857717EA005780061200500708443238
B1100215558898N00857698EA005800061300500708630233
B1100225558889N00857680EA005800061400501308878224
B1100235558878N00857665EA005800061500500609289211
B1100245558865N00857655EA005790061500500609884195
B1100255558850N00857652EA005780061400501310470181
B1100265558833N00857654EA005770061300500310972170
B1100275558817N00857662EA005770061300500311369158
B1100285558802N00857677EA005770061300501111728145
B1100295558788N00857699EA005770061200500611965131
B1100305558778N00857726EA005790061200500312184116
B1100315558772N00857757EA005820061400500212045103
B1100325558771N00857789EA005870061700501111476085
B1100335558775N00857818EA005870062100500710841065
B1100345558784N00857842EA005880062300501510413047
B1100355558796N00857859EA005880062400500610177032
B1100365558810N00857871EA005880062300500309992019
B1100375558825N00857876EA005890062300500809832005
B1100385558840N00857875EA005900062400501209640350
B1100395558853N00857867EA005910062600501509319334
B1100405558865N00857853EA005910062700501209000316
B1100415558873N00857834EA005900062600501108691301
B1100425558878N00857813EA005900062500500408441284
B1100435558879N00857790EA005910062500500508556264
B1100445558876N00857767EA005920062600500308771246
B1100455558868N00857747EA005930062700500109113227
B1100465558857N00857732EA005930062900500309588209
B1100475558844N00857721EA005940062900501009988197
B1100485558828N00857715EA005940063000500810348185
B1100495558812N00857716EA005970063000500910863171
B1100505558796N00857725EA005940063000501111406157
B1100515558781N00857740EA005920062800501211725145
B1100525558767N00857762EA005890062500500312125131
B1100535558757N00857790EA005900062300500512622115
B1100545558751N00857823EA005930062400501512731104
B1100555558748N00857857EA005940062700500012503092
B1100565558750N00857890EA005960062900500312088079
B1100575558755N00857920EA005980063200501311580064
B1100585558765N00857946EA005990063400501511104050
B1100595558777N00857966EA005990063400501110744036
B1101005558791N00857980EA005990063500500010514024
B1101015558806N00857989EA005990063400500610283014
B1101025558821N00857992EA006000063400501309999001
B1101035558836N00857989EA006020063500701409729346
B1101045558850N00857980EA006030063700501109493331
B1101055558861N00857965EA006040063800500009217316
B1101065558869N00857945EA006030063800500108869301
B1101075558875N00857924EA006020063700500308671285
B1101085558877N00857900EA006050063800501108672273
B1101095558876N00857876EA006060063900500508678260
B1101105558872N00857854EA006070064100500008793245
B1101115558864N00857833EA006070064200500309151228
B1101125558854N00857817EA006070064200500209542214
B1101135558841N00857805EA006080064200501009927199
B1101145558826N00857799EA006090064300500410385185
B1101155558809N00857801EA006100064400501110835170
B1101165558794N00857810EA006110064600500411124153
B1101175558780N00857828EA006120064700500111378137
B1101185558769N00857851EA006110064700500711454123
B1101195558761N00857879EA006100064600500211486111
B1101205558756N00857909EA006100064600501411569097
B1101215558756N00857941EA006100064600501311498084
B1101225558760N00857971EA006110064600500211334070
B1101235558768N00857998EA006130064600500511163054
B1101245558779N00858019EA006140064700500510980040
B1101255558793N00858036EA006160064800500310855029
B1101265558808N00858049EA006170065100501310661022
B1101275558823N00858057EA006200065300500610272011
B1101285558838N00858058EA006210065500501209818357
B1101295558852N00858054EA006220065700500809284342
B1101305558865N00858043EA006210065700500408698327
B1101315558874N00858028EA006210065700500508287309
B1101325558880N00858009EA006200065600500608246292
B1101335558883N00857987EA006180065400500808433276
B1101345558883N00857964EA006160065200500408832257
B1101355558877N00857941EA006150065100500009315239
B1101365558868N00857921EA006150065000501509890221
B1101375558855N00857906EA006150065000500710309206
B1101385558840N00857897EA006160065000500310672191
B1101395558824N00857894EA006190065100500510930178
B1101405558807N00857899EA006200065300501411167163
B1101415558791N00857912EA006220065600500611502147
B1101425558778N00857933EA006220065700500011856131
B1101435558768N00857960EA006200065700500012062118
B1101445558761N00857990EA006190065600501212069105
B1101455558758N00858023EA006190065500500811943092
B1101465558760N00858055EA006190065400501211849076
B1101475558767N00858084EA006220065400500011734060
B1101485558778N00858109EA006250065600501011491046
B1101495558790N00858130EA006270065800501211287040
B1101505558803N00858150EA006300066000500111104039
B1101515558817N00858168EA006320066400500210770036
B1101525558830N00858183EA006330066700500110337028
B1101535558844N00858193EA006330066800500509925015
LLXVBATT:4.18V 110154
B1101545558859N00858196EA006340066800500509458359
B1101555558873N00858192EA006340066900700709123343
B1101565558885N00858181EA006340066900500208861327
B1101575558895N00858166EA006340066900500008578310
B1101585558901N00858146EA006320066800501508380289
B1101595558903N00858123EA006260066600500008537267
B1102005558900N00858100EA006240066200500508898249
B1102015558894N00858078EA006190065700500909271232
B1102025558883N00858061EA006180065300500109942214
B1102035558869N00858049EA006180065200501210366197
B1102045558853N00858045EA006190065300500610759177
B1102055558837N00858051EA006190065400500311146161
B1102065558821N00858064EA006180065400500611441150
B1102075558807N00858081EA006180065400500411632142
B1102085558793N00858102EA006180065400500011723135
B1102095558782N00858127EA006170065300501011864124
B1102105558773N00858156EA006170065300500912112112
B1102115558768N00858188EA006170065200501412286100
B1102125558767N00858221EA006170065200500312392089
B1102135558768N00858255EA006200065300501112277083
B1102145558771N00858288EA006220065500601212045077
B1102155558777N00858319EA006230065700500411791069
B1102165558784N00858347EA006230065900501311573060
B1102175558794N00858372EA006240065900500311382050
B1102185558806N00858394EA006240065900500111254040
B1102195558820N00858411EA006260065900500011187030
B1102205558836N00858425EA006270066000501011096023
B1102215558851N00858435EA006270066200501010989018
B1102225558867N00858444EA006280066300500310930016
B1102235558883N00858452EA006290066400501310859015
B1102245558899N00858459EA006300066500505710842015
F110224240302252217061219323114
B1102255558915N00858466EA006290066500500510796013
B1102265558931N00858472EA006280066500500010785011
B1102275558947N00858477EA006280066400500510750010
B1102285558963N00858482EA006270066400501510715009
B1102295558979N00858486EA006270066400500410715008
B1102305558995N00858490EA006270066300501410594008
B1102315559011N00858494EA006260066200500510637008
B1102325559027N00858498EA006250066100500710689008
B1102335559043N00858502EA006240065900501010741008
B1102345559059N00858507EA006240065900501510678008
B1102355559075N00858511EA006250066000500110531008
B1102365559091N00858514EA006250066000500910405007
B1102375559106N00858518EA006250066000500410279007
B1102385559121N00858522EA006260066100500510201008
B1102395559136N00858526EA006260066100500710172009
B1102405559151N00858530EA006260066200501309877008
B1102415559166N00858533EA006250066100501109755007
B1102425559181N00858537EA006240066000500209784007
B1102435559195N00858540EA006230066000501209862007
B1102445559210N00858543EA006210065900500309914007
B1102455559225N00858546EA006200065700500309994005
B1102465559240N00858548EA006190065500500510135001
B1102475559255N00858547EA006170065300500110292357
B1102485559271N00858545EA006160065200500110411352
B1102495559286N00858540EA006150065100500410524347
B1102505559302N00858532EA006150065100500610487342
B1102515559316N00858522EA006150065000501110411334
B1102525559330N00858507EA006150065000500910322326
B1102535559342N00858490EA006130065000500910251318
B1102545559353N00858470EA006120064900500510214311
B1102555559362N00858448EA006120064800500810181304
B1102565559369N00858424EA006120064700501210190297
B1102575559375N00858399EA006110064600501310264290
B1102585559380N00858372EA006090064500501410344284
B1102595559383N00858344EA006060064300501510446281
B1103005559386N00858316EA006050064200501510522281
B1103015559389N00858288EA006040064000500410600281
B1103025559392N00858260EA006020063900501010598281
B1103035559395N00858231EA006010063700501210590282
B1103045559398N00858203EA006010063600500310626281
B1103055559401N00858175EA006010063600500510640279
B1103065559403N00858147EA006000063600501110639279
B1103075559406N00858118EA006000063500500310639279
B1103085559408N00858090EA006000063500500210644280
B1103095559411N00858061EA006000063600500010596281
B1103105559414N00858034EA006000063600501310498281
B1103115559417N00858006EA005990063600500310446280
B1103125559420N00857978EA006000063500501510440279
B1103135559422N00857951EA006000063500501510418278
B1103145559424N00857923EA005980063500501510246279
B1103155559427N00857896EA005980063400501110244280
B1103165559430N00857869EA005980063400500210246281
B1103175559433N00857842EA005980063400500810331282
B1103185559436N00857814EA005980063400500010361282
B1103195559439N00857787EA005990063400500210318282
B1103205559443N00857759EA006000063400501110659283
B1103215559447N00857731EA006020063600501210839284
B1103225559451N00857703EA006050063800500910956285
B1103235559456N00857675EA006070064000501210952285
B1103245559460N00857647EA006080064200500710768285
B1103255559464N00857619EA006090064300501310483285
B1103265559468N00857592EA006090064500501310212287
B1103275559473N00857567EA006080064500500010077289
B1103285559479N00857542EA006080064400500210068292
B1103295559484N00857517EA006100064400500410081293
B1103305559490N00857492EA006110064500500410112292
B1103315559496N00857467EA006120064600500310120290
B1103325559501N00857441EA006140064800500110110289
B1103335559506N00857416EA006160065000501109966290
B1103345559511N00857391EA006190065300501009823290
B1103355559516N00857367EA006200065500500409727289
B1103365559521N00857342EA006220065600500809655287
B1103375559525N00857317EA006250065800500309658283
B1103385559528N00857292EA006280066100500109608280
B1103395559530N00857267EA006310066400500909495277
B1103405559531N00857242EA006330066700500709393271
B1103415559530N00857217EA006370067000501109382262
B1103425559527N00857193EA006410067400500509395251
B1103435559520N00857170EA006440067700500809501239
B1103445559511N00857150EA006480068100500509818224
B1103455559499N00857134EA006500068300500510296209
B1103465559484N00857124EA006530068600500010846194
B1103475559467N00857122EA006550068900500411452178
B1103485559450N00857128EA006560069100501312051162
B1103495559433N00857142EA006580069200500112575146
B1103505559418N00857166EA006580069300500812870131
B1103515559407N00857196EA006590069300500513092117
B1103525559400N00857229EA006610069500501012983105
B1103535559398N00857264EA006640069700500312520089
B1103545559400N00857297EA006660070000500011947073
B1103555559407N00857326EA006670070200500811280059
B1103565559418N00857349EA006680070300500110616043
B1103575559431N00857365EA006690070400501409999025
B1103585559445N00857372EA006690070400500509558007
B1103595559459N00857372EA006690070300501309293351
B1104005559473N00857365EA006700070400501009110337
B1104015559485N00857354EA006710070500500508898325
B1104025559495N00857339EA006720070700501308763314
B1104035559503N00857320EA006740070800500908728306
B1104045559511N00857301EA006800071000501408678300
B1104055559516N00857279EA006820071400500208598292
B1104065559520N00857257EA006870071800500408561280
B1104075559520N00857234EA006910072300501008550264
B1104085559517N00857211EA006940072600501109086245
B1104095559509N00857191EA006980073000501509584226
B1104105559497N00857175EA007000073300500810088207
B1104115559482N00857167EA007030073600500710631188
B1104125559466N00857167EA007030073800500811309170
B1104135559449N00857177EA007030073900500411943154
B1104145559433N00857195EA007020073900501512386140
B1104155559420N00857220EA007020073800500412679126
B1104165559411N00857250EA007020073800501512790112
B1104175559406N00857284EA007030073800500212790099
B1104185559405N00857318EA007040073700500712634085
B1104195559409N00857351EA007090074000500212284071
B1104205559417N00857380EA007130074400500711510058
B1104215559427N00857403EA007170074900500910561043
B1104225559440N00857419EA007200075400500309655026
B1104235559453N00857427EA007220075700500608910009
B1104245559466N00857427EA007230075800500608454353
B1104255559479N00857421EA007240075900500308229339
B1104265559489N00857411EA007240076000500308166324
B1104275559498N00857395EA007250076000500708228307
B1104285559504N00857375EA007260076100501308424289
B1104295559506N00857352EA007300076200500508754270
B1104305559504N00857329EA007320076400501309260248
B1104315559496N00857307EA007360076800500009799227
B1104325559484N00857290EA007400077200500510337210
B1104335559469N00857279EA007420077600500910731196
B1104345559453N00857275EA007460077900501111031181
B1104355559436N00857279EA007460078100501211432163
B1104365559420N00857292EA007460078200500711938147
B1104375559406N00857314EA007450078200500412319131
B1104385559396N00857342EA007450078100500712531116
B1104395559390N00857374EA007450078100501312536101
B1104405559388N00857408EA007450078000500312407088
B1104415559391N00857441EA007480078100501112160074
B1104425559398N00857471EA007520078300500511693059
B1104435559409N00857494EA007560078800500310820043
B1104445559421N00857510EA007590079200500309901026
B1104455559435N00857518EA007600079500501409245011
B1104465559449N00857520EA007610079700501508782355
B1104475559462N00857514EA007610079700500708498339
B1104485559473N00857504EA007620079700500008446324
B1104495559482N00857488EA007620079700500108565310
B1104505559490N00857468EA007630079700500708839299
B1104515559496N00857446EA007650079900501409004292
B1104525559500N00857422EA007680080000501209126282
B1104535559501N00857397EA007700080200500909378266
B1104545559497N00857372EA007750080500500009542247
B1104555559489N00857351EA007790080900501309781224
B1104565559476N00857337EA007820081500500010144201
B1104575559461N00857331EA007850081900501410507182
B1104585559445N00857334EA007870082200500710839166
B1104595559430N00857345EA007880082400500111143151
B1105005559416N00857364EA007880082400500511443136
B1105015559405N00857388EA007890082400501311675122
B1105025559397N00857417EA007900082400501011788108
B1105035559394N00857449EA007920082500501511721094
B1105045559395N00857480EA007950082700501011406081
B1105055559400N00857509EA007980083000500710898064
B1105065559409N00857532EA008010083400501510292046
B1105075559421N00857548EA008040083700500309636029
B1105085559434N00857557EA008060084000500509099010
B1105095559447N00857558EA008080084200501308706353
B1105105559460N00857551EA008090084300501308483337
B1105115559471N00857540EA008110084500500308376322
B1105125559480N00857523EA008130084700500508276305
B1105135559485N00857503EA008150084900500208289285
B1105145559486N00857480EA008170085100501508507263
B1105155559482N00857457EA008180085200501008947242
B1105165559473N00857438EA008210085400500409554221
B1105175559461N00857424EA008240085700501010173201
B1105185559445N00857418EA008260086000501410633183
B1105195559429N00857421EA008280086300500010956167
B1105205559413N00857432EA008290086400501511276152
B1105215559399N00857450EA008300086500501211545138
B1105225559387N00857474EA008310086600500111765124
B1105235559379N00857502EA008330086700500411865112
B1105245559374N00857533EA008380087000500411767101
B1105255559372N00857564EA008400087300501011448089
B1105265559375N00857594EA008430087600501410970074
B1105275559381N00857620EA008460087900500010509060
B1105285559390N00857643EA008470088000501210068048
B1105295559401N00857662EA008460088100500109801041
B1105305559412N00857679EA008440088000500609836040
B1105315559423N00857697EA008410087900501410083044
B1105325559434N00857718EA008400087700500810459050
B1105335559443N00857741EA008380087500500110842057
B1105345559451N00857768EA008380087400500411271065
B1105355559457N00857796EA008380087400501111580073
B1105365559462N00857827EA008370087400500311682079
B1105375559464N00857858EA008350087300501211758083
B1105385559466N00857890EA008320087100501511852087
B1105395559466N00857923EA008290086800500711975089
B1105405559466N00857955EA008280086600500612016091
B1105415559465N00857988EA008270086400500712303092
B1105425559464N00858022EA008250086200500112410094
B1105435559463N00858055EA008240086100500412455094
B1105445559461N00858089EA008230085900500112538093
B1105455559461N00858123EA008220085800500912542091
B1105465559460N00858156EA008220085700501412538091
B1105475559460N00858190EA008200085600500212488092
B1105485559458N00858224EA008200085500501012447095
B1105495559456N00858257EA008180085500501012420098
B1105505559452N00858290EA008170085400500412351101
B1105515559448N00858322EA008170085300500212345103
B1105525559443N00858354EA008160085200500312347105
B1105535559438N00858386EA008160085100501112347106
B1105545559432N00858418EA008150085100500012357107
B1105555559426N00858449EA008140085000501512401108
B1105565559420N00858481EA008130084900500012401109
B1105575559414N00858512EA008120084800501512386109
B1105585559408N00858543EA008110084700500612384109
F110558240302252206121932311429
B1105595559402N00858575EA008120084600500312423107
B1106005559396N00858607EA008120084600500512414105
B1106015559391N00858639EA008120084600501512364104
B1106025559386N00858671EA008120084600500912303104
B1106035559382N00858702EA008110084600500612336105
B1106045559377N00858734EA008110084600500612184106
B1106055559371N00858765EA008120084600501012171107
B1106065559366N00858796EA008120084600501012123107
B1106075559360N00858827EA008120084600500012080108
B1106085559354N00858857EA008120084700500312069108
B1106095559348N00858888EA008110084600500711971108
B1106105559343N00858918EA008100084600501411921107
B1106115559338N00858949EA008090084500500011873104
B1106125559335N00858980EA008080084400500711873099
B1106135559333N00859012EA008060084200500011884093
B1106145559333N00859043EA008050084000500211875087
B1106155559335N00859075EA008030083900500711852082
B1106165559338N00859106EA008030083800500711625077
B1106175559342N00859136EA008010083600501111554073
B1106185559348N00859165EA008000083400500711515068
B1106195559355N00859193EA007990083300501311510064
B1106205559363N00859220EA007980083200501511439061
B1106215559372N00859246EA007970083100500711393059
B1106225559381N00859272EA007960083000500011359056
B1106235559391N00859297EA007960082900500111361054
B1106245559401N00859321EA007970082900501211348052
B1106255559412N00859345EA007960083000501311280051
B1106265559423N00859368EA007970083000500111232049
B1106275559434N00859390EA007970083000500111176046
B1106285559447N00859410EA007970083000501511141040
B1106295559460N00859428EA007980083100500111074034
B1106305559474N00859442EA007990083100500810996027
B1106315559489N00859454EA007990083200500910887021
B1106325559505N00859463EA008000083200500410739016
B1106335559521N00859469EA007980083300500310626012
B1106345559537N00859473EA007960083100500410481007
B1106355559552N00859474EA007940082900501410418358
B1106365559568N00859470EA007920082700500810405347
B1106375559583N00859461EA007910082500501110264337
B1106385559596N00859448EA007890082300500210096326
B1106395559608N00859430EA007860082100501209938314
B1106405559617N00859409EA007850081900500309862303
B1106415559624N00859384EA007820081700501409897293
B1106425559629N00859359EA007790081400501509957287
B1106435559633N00859332EA007770081200500410034283
B1106445559636N00859305EA007740081000500610157280
B1106455559638N00859277EA007730080800500910253277
B1106465559640N00859248EA007720080600501210309275
B1106475559641N00859220EA007710080400500510327273
B1106485559641N00859192EA007730080500500410381270
B1106495559641N00859163EA007730080600500210411269
B1106505559641N00859135EA007720080600500710311269
B1106515559640N00859107EA007700080500500310264268
B1106525559640N00859079EA007670080300501110255268
B1106535559639N00859051EA007630080000500010287267
B1106545559638N00859023EA007600079600500310385266
B1106555559637N00858995EA007590079300501310451264
LLXVBATT:4.18V 110656
B1106565559635N00858967EA007590079200500010535263
B1106575559633N00858938EA007580079200500510524262
B1106585559631N00858910EA007580079200500110492261
B1106595559628N00858882EA007580079100500410455259
B1107005559625N00858854EA007590079200500310400257
B1107015559621N00858827EA007590079200500710268256
B1107025559617N00858800EA007590079200500410114255
B1107035559613N00858774EA007580079200500709970255
B1107045559609N00858748EA007580079200500509866254
B1107055559605N00858723EA007570079100500709788253
B1107065559601N00858698EA007560079000500209788252
B1107075559596N00858673EA007550079000501409832251
B1107085559591N00858648EA007530078800500809894251
B1107095559586N00858623EA007520078700500309999251
B1107105559581N00858597EA007500078500501110110250
B1107115559576N00858572EA007490078300500610229249
B1107125559570N00858546EA007470078100501110340249
B1107135559565N00858520EA007460078000501310392249
B1107145559559N00858494EA007430077800501110427249
B1107155559554N00858467EA007420077600501210477249
B1107165559548N00858441EA007410077500501110553249
B1107175559542N00858414EA007400077300500510557249
B1107185559537N00858388EA007390077200500110681249
B1107195559531N00858361EA007400077200500310781248
B1107205559525N00858334EA007410077300501410850249
B1107215559519N00858307EA007420077400500510854249
B1107225559514N00858279EA007440077500500110815251
B1107235559509N00858252EA007440077600500210729254
B1107245559505N00858224EA007450077700500510678257
B1107255559502N00858196EA007450077800500410665259
B1107265559499N00858168EA007460077800501410627260
B1107275559496N00858140EA007470077900500110577259
B1107285559494N00858112EA007480078000500610496259
B1107295559491N00858084EA007500078100500710361259
B1107305559488N00858057EA007500078300501210212256
B1107315559483N00858031EA007510078400500610125251
B1107325559478N00858006EA007520078500500110114245
B1107335559471N00857982EA007530078600500110123240
B1107345559463N00857959EA007540078600501410116237
B1107355559455N00857936EA007560078700501410107237
B1107365559446N00857914EA007580079000500610016236
B1107375559437N00857892EA007580079100500509966230
B1107385559426N00857874EA007580079200501010077219
B1107395559413N00857859EA007590079200501210283208
B1107405559399N00857849EA007610079300500010500197
B1107415559383N00857842EA007620079400500010605188
B1107425559367N00857842EA007630079600500410829176
B1107435559351N00857848EA007640079700500711237162
B1107445559335N00857863EA007650079700500811723146
B1107455559322N00857884EA007660079900500611991131
B1107465559312N00857912EA007660080000500712167118
B1107475559305N00857943EA007650079900501212277106
B1107485559302N00857976EA007630079800500712318094
B1107495559302N00858010EA007620079700501112318083
B1107505559306N00858043EA007630079600500912195072
B1107515559314N00858073EA007630079600500911738061
B1107525559324N00858098EA007640079700500711148046
B1107535559337N00858116EA007650079800500310500031
B1107545559351N00858127EA007670079900500509888017
B1107555559365N00858132EA007670080000500909449004
B1107565559380N00858131EA007650079900501009197351
B1107575559393N00858124EA007630079700501109156336
B1107585559405N00858111EA007620079500501209265322
B1107595559415N00858094EA007630079500500909264309
B1108005559423N00858073EA007630079600501509184296
B1108015559428N00858049EA007630079600501009178286
B1108025559431N00858025EA007610079500500509297280
B1108035559433N00858000EA007610079500500109362277
B1108045559435N00857975EA007610079500501109364276
B1108055559437N00857949EA007610079500501009393276
B1108065559438N00857924EA007610079500501509445277
B1108075559440N00857898EA007610079500500209516278
B1108085559443N00857872EA007630079500500409577279
B1108095559445N00857847EA007650079600500709556281
B1108105559449N00857822EA007660079800501009301283
B1108115559452N00857798EA007670080000500309143285
B1108125559456N00857774EA007680080100500209049285
B1108135559460N00857750EA007660080100500009060285
B1108145559463N00857727EA007640080000500708984285
B1108155559467N00857702EA007630079800500608958285
B1108165559471N00857677EA007640079600501309768287
B1108175559476N00857652EA007650079700500909923289
B1108185559481N00857627EA007690079900501509777291
B1108195559487N00857603EA007730080300500509642293
B1108205559493N00857579EA007760080600500509428295
B1108215559499N00857557EA007780081000501009217297
B1108225559505N00857535EA007780081200501409037296
B1108235559511N00857513EA007750081100501509024295
B1108245559517N00857491EA007700080900500409078295
B1108255559523N00857469EA007670080500500608954295
B1108265559529N00857446EA007630080100501109608296
B1108275559536N00857423EA007600079700500009870296
B1108285559543N00857399EA007580079300500810107297
B1108295559550N00857375EA007560079100500810307298
B1108305559558N00857351EA007540079000500410416301
B1108315559566N00857327EA007520078800500510511303
B1108325559576N00857304EA007490078500500610590305
B1108335559585N00857281EA007470078200501510724308
B1108345559596N00857259EA007440078000501010854311
B1108355559607N00857237EA007420077800501310961313
B1108365559618N00857216EA007410077600500211024313
B1108375559630N00857195EA007400077400501511072313
B1108385559641N00857173EA007390077300500211070313
B1108395559653N00857151EA007390077200501411122312
B1108405559664N00857130EA007380077200501010965312
B1108415559675N00857108EA007360077100501210920312
B1108425559686N00857087EA007350076900501210918312
B1108435559698N00857066EA007340076800500810976313
B1108445559709N00857044EA007310076600501111067314
B1108455559721N00857023EA007290076400501211191316
B1108465559734N00857003EA007290076300500611315319
B1108475559747N00856984EA007300076300500611419320
B1108485559761N00856965EA007310076300500811500321
B1108495559774N00856946EA007320076400501311498321
B1108505559788N00856927EA007320076400500811465321
B1108515559801N00856908EA007320076400501011517322
B1108525559815N00856890EA007290076400501511506324
B1108535559830N00856873EA007250076100501311537326
B1108545559844N00856856EA007220075800501011528328
B1108555559859N00856840EA007210075500501011545330
B1108565559875N00856825EA007190075400501511645331
B1108575559890N00856811EA007160075100501211630331
B1108585559906N00856796EA007140074900500311630332
B1108595559921N00856782EA007120074700501111641331
F110859240302252217061219323114
B1109005559937N00856767EA007100074400501211678331
B1109015559952N00856752EA007080074200500511693332
B1109025559968N00856739EA007060074000500511678334
B1109035559984N00856727EA007060073900500311636339
B1109045600001N00856717EA007060073900501311573343
B1109055600018N00856710EA007060074000500711495346
B1109065600034N00856704EA007060073900501311421348
B1109075600051N00856698EA007040073800501111356349
B1109085600068N00856693EA007030073700500311317348
B1109095600085N00856687EA007030073600500911276348
B1109105600101N00856681EA007020073600500211228347
B1109115600118N00856675EA007020073500500911215348
B1109125600134N00856670EA007010073400501511182349
B1109135600151N00856665EA007020073500500411170351
B1109145600167N00856661EA007030073600501111100353
B1109155600184N00856658EA007040073700501511015355
B1109165600200N00856657EA007070073900501410950356
B1109175600217N00856655EA007100074100500810963357
B1109185600233N00856654EA007140074400501210920357
B1109195600249N00856654EA007190074800500910724358
B1109205600265N00856653EA007210075200501110585359
B1109215600281N00856653EA007220075500500410429358
B1109225600296N00856651EA007250075700501010251353
B1109235600311N00856647EA007270075800501110105346
B1109245600325N00856639EA007280076000500610016339
B1109255600339N00856629EA007280076100500309888335
B1109265600353N00856618EA007270076100500709753333
B1109275600366N00856606EA007260076000500109755332
B1109285600379N00856593EA007240075900500709860332
B1109295600392N00856582EA007240075800500910029334
B1109305600406N00856570EA007240075700501410236334
B1109315600419N00856557EA007240075700500110388333
B1109325600433N00856544EA007260075800500310581329
B1109335600446N00856528EA007300076000500110526325
B1109345600459N00856512EA007310076300500310624322
B1109355600471N00856494EA007320076500500310009317
B1109365600481N00856475EA007340076600501309751308
B1109375600489N00856454EA007350076700500909580299
B1109385600495N00856430EA007360076800500609423291
B1109395600498N00856406EA007400077000501009102281
B1109405600499N00856382EA007410077200500308936270
B1109415600498N00856358EA007380077300501309030265
B1109425600497N00856333EA007350077100500808900266
B1109435600497N00856308EA007320076900500009693271
B1109445600497N00856281EA007270076500500010018274
B1109455600498N00856254EA007250076100500010331276
B1109465600500N00856226EA007230075800500910594277
B1109475600502N00856197EA007220075600500610735279
B1109485600505N00856169EA007210075500500410750280
B1109495600508N00856140EA007200075400501510750281
B1109505600511N00856112EA007190075300500810716282
B1109515600515N00856084EA007180075200500610724282
B1109525600518N00856056EA007170075100500110759282
B1109555600528N00855971EA007160074800500610637282
B1109585600539N00855889EA007190075100501210405286
B1110015600555N00855810EA007280075800500310324293
B1110045600574N00855739EA007380076900500409582296
B1110075600591N00855670EA007460077800501109251287
B1110105600588N00855599EA007510078300501409284244
B1110135600558N00855548EA007490078400500609454202
B1110165600515N00855555EA007460078100500510227151
B1110195600485N00855624EA007430077800500511296107
B1110225600489N00855717EA007400077400501311639066
B1110255600524N00855783EA007370077200501210989027
B1110285600571N00855800EA007400077100500410633000
B1110315600618N00855794EA007470078000501109560346
B1110345600651N00855754EA007460078000500908680304
B1110375600665N00855688EA007480078200501508489277
B1110405600656N00855622EA007420077800501208709235
B1110435600622N00855577EA007350077100500409853205
B1110465600578N00855550EA007320076700501210355196
B1110495600532N00855528EA007270076200500810464194
B1110525600486N00855509EA007220075800500310514190
B1110555600438N00855498EA007170075200500710663185
B1110585600390N00855492EA007140074900501210646183
B1111015600342N00855488EA007140074800500210396183
B1111045600296N00855480EA007150074900500810051187
B1111075600250N00855474EA007150074800501410018177
B1111105600204N00855491EA007190075200501210361159
B1111135600163N00855529EA007210075500500110253148
B1111165600133N00855591EA007240075800501009992114
B1111195600126N00855669EA007220075900500809705086
B1111225600137N00855746EA007170075300500109962067
B1111255600164N00855812EA007100074600500609983041
B1111285600203N00855854EA007030073800501410299022
B1111315600250N00855873EA007000073400501510331006
B1111345600297N00855881EA007030073400500410564006
B1111375600344N00855886EA007080074100501309929357
B1111405600385N00855861EA007090074300500209141327
B1111435600422N00855821EA006990073600500109914335
B1111465600466N00855791EA006900072600500210857341
B1111495600514N00855762EA006810071700501011187340
B1111525600563N00855733EA006750071000801011662344
B1111555600615N00855709EA006720070600500711791346
LLXVBATT:4.18V 111158
B1111585600666N00855686EA006750070700501011363344
B1112015600713N00855661EA006780071200501410639343
F111201240302252217061219323129
B1112045600758N00855638EA006770071300500310148344
B1112075600802N00855616EA006750070900500410025343
B1112105600845N00855593EA006720070700501209968342
B1112135600887N00855568EA006700070400501309758341
B1112145600901N00855560EA006680070300500309706340
B1112155600914N00855551EA006670070200500009693339
B1112165600928N00855542EA006660070100500609688340
B1112175600942N00855533EA006640069900501209695341
B1112185600956N00855525EA006620069800500609725343
B1112195600970N00855519EA006600069600500509801345
B1112205600984N00855513EA006580069400500809884347
B1112215600999N00855507EA006570069200500109966348
B1112225601013N00855502EA006560069100500310005350
B1112235601028N00855498EA006550069000501109997351
B1112245601043N00855494EA006540068900500709962351
B1112255601058N00855490EA006540068800500509908350
B1112265601072N00855485EA006530068700501109953348
B1112275601087N00855479EA006530068600500009925345
B1112285601101N00855472EA006520068500500209901342
B1112295601115N00855464EA006510068500500209855341
B1112305601129N00855456EA006500068400501509873342
B1112315601143N00855448EA006490068300501509871343
B1112325601157N00855440EA006480068300500909864344
B1112335601172N00855433EA006490068200500309938345
B1112345601186N00855427EA006490068200500409968346
B1112355601201N00855421EA006490068300501109953347
B1112365601215N00855415EA006490068300500809975348
B1112375601230N00855410EA006490068300500009999348
B1112385601245N00855404EA006510068300501510110346
B1112395601260N00855397EA006530068400501209983343
B1112405601273N00855388EA006530068600500709705336
B1112415601286N00855376EA006540068700501409436327
B1112425601297N00855360EA006550068700501509193316
B1112435601305N00855342EA006550068800501008993306
B1112445601313N00855322EA006560068900500708880300
B1112455601319N00855300EA006580069000501308772296
B1112465601324N00855279EA006590069100501008624291
B1112475601328N00855257EA006590069300501008485284
B1112485601329N00855234EA006600069300501208439273
B1112495601329N00855212EA006610069400500308494263
B1112505601326N00855189EA006610069400501308628254
B1112515601322N00855167EA006620069500500108754248
B1112525601316N00855145EA006630069500501408845243
B1112535601309N00855124EA006630069600500108956237
B1112545601300N00855105EA006630069500501109176226
B1112555601289N00855089EA006630069500500409577212
B1112565601275N00855079EA006640069600500609996196
B1112575601260N00855076EA006660069800501310350177
B1112585601244N00855082EA006670070000500910657159
B1112595601230N00855097EA006670070000500110896143
B1113005601218N00855118EA006670070000500711165128
B1113015601209N00855145EA006680070100501311259112
B1113025601205N00855175EA006690070200501111128096
B1113035601206N00855205EA006700070300500810993079
B1113045601210N00855233EA006700070400500710746065
B1113055601219N00855258EA006700070400500610433052
B1113065601230N00855278EA006690070400500310183038
B1113075601243N00855292EA006680070200501509971024
B1113085601257N00855300EA006670070100501309764009
B1113095601271N00855300EA006670070000500209562353
B1113105601285N00855294EA006670070000500209369337
B1113115601297N00855281EA006680070000500009191324
B1113125601308N00855265EA006710070200500508974315
B1113135601316N00855247EA006720070400500208669303
B1113145601322N00855226EA006730070600501408457287
B1113155601323N00855203EA006730070600501108524268
B1113165601320N00855180EA006730070600501108843249
B1113175601314N00855159EA006730070500500909095232
B1113185601304N00855142EA006750070600501109397215
B1113195601291N00855131EA006770070800501309638196
B1113205601276N00855128EA006790071000501009890177
B1113215601261N00855134EA006810071300501410085159
B1113225601247N00855147EA006820071500501210379144
B1113235601235N00855167EA006830071600501310646131
B1113245601226N00855191EA006840071700500810931119
B1113255601219N00855219EA006840071700500211122107
B1113265601216N00855249EA006840071700501411165094
B1113275601217N00855279EA006840071800500211217079
B1113285601222N00855308EA006860071800501511069066
B1113295601231N00855333EA006870071900500510774051
B1113305601242N00855353EA006880072000501210333037
B1113315601255N00855366EA006880072100500809884021
B1113325601270N00855372EA006880072200501109508005
B1113335601284N00855371EA006880072200500809189350
B1113345601297N00855363EA006880072200500908921332
B1113355601307N00855349EA006880072100500308772313
B1113365601315N00855329EA006880072200500708741294
B1113375601318N00855306EA006890072200500208708279
B1113385601318N00855283EA006890072200500008774262
B1113395601315N00855259EA006890072200501508986245
B1113405601307N00855239EA006890072200500609165229
B1113415601296N00855223EA006910072200500309540211
B1113425601283N00855213EA006940072500501509771193
B1113435601268N00855211EA006970072800501009973174
B1113445601253N00855218EA007000073100500210185158
B1113455601239N00855232EA007020073400500810403143
B1113465601227N00855251EA007030073600500610520131
B1113475601218N00855275EA007050073800500110616118
B1113485601212N00855302EA007060073900500510609104
B1113495601210N00855331EA007070074000501510648091
B1113505601212N00855360EA007070074100500310702078
B1113515601217N00855387EA007080074100501310587066
B1113525601225N00855412EA007080074200500410394053
B1113535601235N00855432EA007080074200500510177041
B1113545601248N00855447EA007080074200501009908029
B1113555601262N00855457EA007070074100501309645016
B1113565601276N00855461EA007060074100500209406002
B1113575601290N00855458EA007060074000500509180345
B1113585601303N00855448EA007060073900501509002329
B1113595601313N00855433EA007070073900501108785313
B1114005601321N00855414EA007070074000500808554297
B1114015601325N00855392EA007070074100501508402279
B1114025601325N00855369EA007070074100500608452261
B1114035601320N00855347EA007060074000500608719242
B1114045601313N00855327EA007070074000500508941228
B1114055601302N00855311EA007080073900501009221213
B1114065601289N00855300EA007100074100501109519196
B1114075601275N00855297EA007120074400500209710180
B1114085601260N00855301EA007140074600500309942163
B1114095601246N00855312EA007160074800500110227147
B1114105601234N00855330EA007150074900501110505133
B1114115601225N00855354EA007150074900500810820119
B1114125601218N00855381EA007140074800501011087106
B1114135601215N00855411EA007160074900501511189095
B1114145601215N00855442EA007170075000600511158083
B1114155601219N00855471EA007180075100500010978071
B1114165601226N00855497EA007190075200500610703058
B1114175601236N00855520EA007200075400500610387046
B1114185601248N00855538EA007200075400500810046035
B1114195601261N00855551EA007200075400501309795023
B1114205601275N00855558EA007190075400501109547011
B1114215601289N00855560EA007190075300501509301357
B1114225601303N00855556EA007180075200500409060343
B1114235601315N00855546EA007180075200501308756329
B1114245601326N00855532EA007180075200501108457314
B1114255601333N00855513EA007180075200500808241297
B1114265601337N00855492EA007180075200500208181282
B1114275601338N00855470EA007180075100500008192270
B1114285601337N00855447EA007180075100501108272258
B1114295601333N00855425EA007160075100501208420246
B1114305601326N00855405EA007160075000500508728231
B1114315601316N00855389EA007150074900501109302215
B1114325601303N00855377EA007130074800501209895200
B1114335601288N00855370EA007130074700500410429187
B1114345601272N00855371EA007140074600500710865173
B1114355601256N00855378EA007160074700500311145159
B1114365601240N00855393EA007180075000500811330144
B1114375601228N00855414EA007200075200501511341131
B1114385601218N00855439EA007220075500500111302119
B1114395601211N00855467EA007240075600501111185107
B1114405601208N00855497EA007250075800501210974095
B1114415601208N00855526EA007250075900500710817081
B1114425601213N00855554EA007250075900500010711067
B1114435601221N00855579EA007240075900500910642052
B1114445601232N00855600EA007220075700500410570040
B1114455601245N00855616EA007220075600500010479028
B1114465601260N00855627EA007230075600500510240018
B1114475601274N00855632EA007230075600500209799006
B1114485601289N00855632EA007260075800500909254352
B1114495601302N00855625EA007260075900500308684336
B1114505601313N00855613EA007260076000500908196319
B1114515601321N00855596EA007250076000500407927301
B1114525601325N00855576EA007230075900500007922283
B1114535601326N00855554EA007220075700500308087268
B1114545601324N00855532EA007210075600500708285255
B1114555601320N00855510EA007210075500500408561242
B1114565601312N00855490EA007210075400501408856232
B1114575601303N00855472EA007210075500501309071224
B1114585601293N00855456EA007220075500500109212218
B1114595601281N00855441EA007220075600501009295214
B1115005601269N00855427EA007230075600501209365212
B1115015601257N00855413EA007260075800501209449212
B1115025601245N00855400EA007290076100500609464210
B1115035601232N00855388EA007310076300500709473204
B1115045601219N00855380EA007320076500500609575194
B1115055601204N00855377EA007340076700500009845180
B1115065601189N00855380EA007330076800501310170165
B1115075601174N00855391EA007320076800500510481151
B1115085601162N00855408EA007310076600501110772136
B1115095601151N00855431EA007300076500500310981122
B1115105601144N00855458EA007290076400500911030107
F111510240302252917061219323122
B1115115601142N00855488EA007290076300500410965093
B1115125601143N00855517EA007270076200500910904079
B1115135601147N00855546EA007260076100500410891067
B1115145601155N00855572EA007270076100500510748057
B1115155601165N00855594EA007280076100501510539046
B1115165601177N00855612EA007300076200501210275033
B1115175601191N00855624EA007310076300501109994019
B1115185601206N00855631EA007310076500500309693010
B1115195601220N00855634EA007320076500501009473004
B1115205601235N00855635EA007320076600500209330359
B1115215601249N00855633EA007330076600501409147354
B1115225601263N00855630EA007330076700500909026350
B1115235601276N00855626EA007320076600500609026350
B1115245601290N00855623EA007290076500501409232356
B1115255601304N00855623EA007270076300501209603004
B1115265601319N00855627EA007230076000501510077012
B1115275601334N00855635EA007200075700501010596019
B1115285601350N00855646EA007170075300500011080024
B1115295601365N00855660EA007140075000500711437028
B1115305601380N00855675EA007130074800501411632030
B1115315601395N00855691EA007130074700501111717030
B1115325601411N00855708EA007130074700501311710031
B1115335601426N00855724EA007130074700501511658030
B1115345601441N00855740EA007120074600500511617030
B1115355601456N00855756EA007100074500501211586029
B1115365601471N00855772EA007080074400500511586030
B1115375601486N00855788EA007060074100500511665032
B1115385601501N00855805EA007030073900501511615033
B1115395601516N00855824EA007000073600500111645035
B1115405601531N00855843EA006980073400501012188036
B1115415601546N00855863EA006950073100500012395035
B1115425601561N00855882EA006910072700500912562035
B1115455601607N00855942EA006880072200501212473037
B1115485601651N00856006EA006840071700501112516039
B1115515601695N00856070EA006840071700500712397039
B1115545601738N00856133EA006800071400500812301039
B1115575601781N00856196EA006770071000500312284039
B1116005601824N00856257EA006750070800501511990038
B1116035601866N00856316EA006720070500500011906038
B1116065601907N00856377EA006670070200501411945039
B1116095601948N00856440EA006620069700500512047041
B1116125601989N00856505EA006570069300500512127041
B1116155602030N00856570EA006520068700500312305041
B1116185602072N00856634EA006480068300500112253039
B1116215602114N00856697EA006440067800500112158040
B1116245602155N00856760EA006400067500501412099040
B1116275602197N00856823EA006370067100500412142040
B1116305602238N00856885EA006380067100500812079038
B1116335602281N00856941EA006350067000501011608034
B1116365602325N00856989EA006360066900501311363028
B1116395602368N00857030EA006470067700501410533028
B1116425602410N00857057EA006520068500501009338007
B1116455602451N00857052EA006560068700500409123351
B1116485602486N00857025EA006610069400501308315318
B1116515602499N00856967EA006590069400501507861267
B1116545602484N00856904EA006590069300500308519232
B1116575602450N00856868EA006580069300500409480189
LLXVBATT:4.17V 111700
B1117005602404N00856884EA006520068700501211057151
B1117035602364N00856945EA006530068600500611602131
B1117065602332N00857020EA006620069300500611471122
B1117095602315N00857108EA006620069600501311513091
B1117105602317N00857139EA006620069600500111484079
B1117115602321N00857168EA006630069600501211328069
B1117125602329N00857195EA006640069700500010976056
B1117135602339N00857217EA006640069700500610574045
B1117145602351N00857236EA006640069700501510366037
B1117155602364N00857252EA006640069800501410231032
B1117165602377N00857266EA006650069900501010092032
B1117175602390N00857281EA006650070000500910033034
B1117185602403N00857296EA006640069900500810040033
B1117195602416N00857311EA006630069800500610160031
B1117205602429N00857325EA006620069700501210051030
B1117215602443N00857339EA006610069700501510385029
B1117225602456N00857353EA006610069600500010466028
B1117235602470N00857366EA006600069500500910609028
B1117245602485N00857380EA006590069500500110694029
B1117255602499N00857394EA006580069400500110737029
B1117285602542N00857436EA006550069000500910922030
B1117315602584N00857483EA006520068700501311059031
B1117345602628N00857525EA006460068200501510998026
B1117375602673N00857564EA006430067800501110987025
B1117405602717N00857604EA006380067300500910968027
B1117435602761N00857645EA006320066800501211057028
B1117465602805N00857688EA006290066300500411239030
B1117495602848N00857734EA006330066400500310967032
B1117525602885N00857790EA006350066800500810791049
B1117555602908N00857867EA006400067100500711130071
B1117585602915N00857957EA006500068100500111222094
B1118015602896N00858040EA006530068600500211267126
B1118045602857N00858094EA006540068800500810466159
B1118065602827N00858103EA006500068500500109708179
B1118075602812N00858101EA006480068200500909425189
B1118085602799N00858093EA006460068000500409169203
B1118095602787N00858080EA006460067900501308843219
B1118105602778N00858062EA006450067900501008548234
B1118115602771N00858041EA006450067900500108346245
B1118125602767N00858019EA006440067800501508187254
B1118135602765N00857997EA006440067700501108050266
B1118145602765N00857975EA006440067700500608039278
B1118155602768N00857953EA006440067700500508046286
B1118165602772N00857933EA006470067900501408005292
B1118195602793N00857880EA006450068000500908100323
B1118225602830N00857855EA006430067700500108963349
B1118255602871N00857844EA006410067500500509078348
B1118285602907N00857815EA006410067500500208435320
B1118315602929N00857762EA006410067500500508085294
B1118345602938N00857698EA006380067300500708194276
B1118375602938N00857630EA006360067100500508420265
B1118405602933N00857561EA006290066500500808719262
B1118435602928N00857489EA006220065900501209080262
B1118465602921N00857414EA006130065000501309771260
B1118495602914N00857333EA006060064200501510361260
B1118525602904N00857250EA006020063700500310542258
B1118555602896N00857166EA006000063500500610544260
B1118585602888N00857082EA006030063400500310438258
B1119015602881N00857003EA006140064500501209467268
B1119045602884N00856930EA006210065400501108780277
B1119075602890N00856860EA006270065900500908822277
B1119105602897N00856791EA006280066300500208930282
B1119135602905N00856720EA006310066400500808984278
B1119165602908N00856649EA006330066600501208641271
B1119195602904N00856580EA006390067000500608637258
B1119225602886N00856520EA006420067500500508669222
B1119255602847N00856495EA006420067600500309975178
B1119285602803N00856534EA006420067500501211745134
B1119315602784N00856624EA006450067600500212060089
B1119345602805N00856704EA006560068600500009931036
B1119375602844N00856715EA006600069200500708593343
B1119405602873N00856673EA006610069400500908333293
B1119435602872N00856607EA006650069600500508419242
B1119465602838N00856575EA006700070200500009647176
B1119495602800N00856622EA006720070400500911437120
B1119525602794N00856713EA006760070600501311413073
B1119555602825N00856774EA006810071200500709632018
B1119585602863N00856759EA006810071500500008561318
B1120015602878N00856697EA006850071500500108491275
B1120045602869N00856634EA006950072500500908037226
B1120075602831N00856620EA006950072800501309968163
B1120105602796N00856680EA007010073100501411708112
B1120135602797N00856771EA007060073700501011076063
B1120165602834N00856817EA007060073800501209768005
B1120195602870N00856788EA007070073900500308643306
B1120225602877N00856721EA007110074100500208622255
B1120255602849N00856674EA007200074900501109167191
B1120285602807N00856701EA007290076000501510920135
B1120315602791N00856786EA007340076500501111474085
B1120345602814N00856861EA007340076700500610383035
B1120375602857N00856875EA007340076700501309260344
B1120405602887N00856829EA007310076400500908772292
B1120435602883N00856760EA007370076600500508748237
B1120465602849N00856725EA007470077800500509243184
B1120495602808N00856755EA007490078100501110768135
B1120525602783N00856834EA007560078600500511497101
B1120555602792N00856922EA007590079200500610796059
B1120585602828N00856972EA007560079000501509738015
B1121015602868N00856960EA007500078500501409019326
B1121045602890N00856899EA007460077900500409186280
B1121075602887N00856824EA007520078100501509112250
B1121105602858N00856772EA007630079200500009214202
B1121135602816N00856779EA007670080100500010046149
B1121165602789N00856849EA007650079800501211206103
B1121195602798N00856938EA007730080100500711154054
B1121225602838N00856971EA007800081100500509152353
B1121255602870N00856933EA007780081100500608557298
B1121285602867N00856864EA007790081000500409154234
B1121315602828N00856843EA007820081400500010148163
B1121345602795N00856902EA007820081400501411061114
B1121375602792N00856990EA007880081800500610880071
B1121405602821N00857053EA007930082600500709736029
B1121435602863N00857068EA007870082200501509343351
B1121465602899N00857028EA007890081800500709382308
B1121495602910N00856961EA007940082600500908589262
B1121525602885N00856910EA007980083000501309286196
B1121555602843N00856929EA008020083400500210607139
B1121585602823N00857007EA008030083700501010907090
B1122015602840N00857089EA008070083700501110778051
LLXVBATT:4.18V 112202
B1122045602879N00857132EA008110084300500109781012
B1122075602921N00857127EA008130084600500608713338
B1122105602947N00857081EA008120084500500908261291
B1122135602944N00857015EA008100084400501408591238
B1122165602909N00856980EA008110084400500409517183
B1122195602867N00857014EA008140084600501511385133
B1122225602847N00857100EA008220085400501111356093
B1122255602860N00857184EA008250085800501510755055
B1122285602898N00857237EA008240085800500510309022
B1122315602942N00857241EA008230085600500309343341
B1122345602970N00857193EA008210085500501108572290
B1122375602966N00857126EA008210085400501208359238
B1122405602935N00857085EA008200085400501408943195
B1122435602892N00857097EA008170085100501510581152
B1122465602857N00857163EA008150084800500411927114
B1122495602850N00857261EA008180084800500012169082
B1122525602869N00857348EA008220085700500310909056
B1122555602902N00857412EA008120084900500810611038
B1122585602944N00857456EA007990083600500010956024
B1123015602992N00857490EA007880082300501211561022
B1123045603039N00857535EA007810081500500712251033
B1123075603084N00857600EA007740080800500712953043
B1123105603126N00857676EA007720080400501213213046
B1123135603166N00857754EA007700080300500212994047
B1123165603206N00857831EA007680080100501312836046
B1123195603245N00857906EA007660079900500212649046
B1123225603284N00857979EA007650079800500212323046
B1123255603323N00858048EA007640079600500512201044
B1123285603360N00858116EA007620079500501311762048
B1123315603396N00858186EA007570079000500511758045
B1123345603435N00858250EA007550078700501511613041
B1123375603474N00858309EA007550078600501011335040
B1123405603512N00858367EA007530078600500011065038
B1123435603552N00858421EA007480078100500511332036
B1123465603594N00858475EA007420077500500811610034
B1123495603638N00858526EA007390077200501111482033
B1123525603680N00858576EA007360076900501411217033
B1123555603723N00858621EA007360076800501110759027
B1123585603766N00858656EA007330076600501010472022
B1124015603810N00858686EA007250076200501210414018
B1124045603854N00858711EA007300076000501010440017
B1124075603898N00858738EA007340076500500910140021
B1124105603940N00858759EA007370077000500009408005
B1124135603980N00858745EA007380077100501009056336
B1124165604016N00858707EA007380077000600409125324
F112416240225291706121932312214
B1124195604043N00858654EA007360077000501408797302
B1124225604058N00858587EA007310076500501309002288
B1124255604067N00858514EA007260076000500609343278
B1124285604071N00858437EA007190075400500409618275
B1124315604076N00858358EA007190075000501409744276
B1124345604081N00858280EA007200075200501209712278
B1124375604088N00858203EA007260075600501209623281
B1124405604095N00858128EA007320076300501409289275
B1124435604087N00858055EA007370076800500809262242
B1124465604055N00858006EA007380077200501109847200
B1124495604008N00858008EA007340076700500211094161
B1124525603968N00858066EA007360076800501011641121
B1124555603957N00858157EA007450077300500211178082
B1124585603981N00858226EA007540078500500209343033
B1125015604019N00858243EA007530078700500408554354
B1125045604052N00858210EA007460078000501308617305
B1125075604059N00858140EA007480077900501309062262
B1125105604043N00858073EA007500078300500409208228
B1125135604005N00858036EA007450077900501510244192
B1125165603956N00858033EA007440077500500810804174
B1125195603910N00858063EA007450077800500010867145
B1125225603877N00858130EA007490078000501211133120
B1125255603857N00858213EA007550078600500810850103
B1125285603862N00858296EA007630079300500610031064
B1125315603894N00858344EA007670079900500409297015
B1125345603934N00858331EA007730080300501308884322
B1125375603950N00858268EA007770081000500308815266
B1125405603928N00858207EA007770081000501009645211
B1125435603883N00858200EA007770080900500410993158
B1125465603848N00858265EA007800081200501511385112
B1125495603850N00858350EA007880081700501410077060
B1125525603885N00858391EA007920082400500409017007
B1125555603923N00858369EA007970082800501109008318
B1125585603937N00858304EA008000083300500008604262
B1126015603914N00858246EA007990083300500709378211
B1126045603871N00858234EA007970082900801310544168
B1126075603830N00858281EA007990083100500111063126
B1126105603815N00858365EA008030083500500910524092
B1126135603827N00858443EA008030083600500709910056
B1126165603862N00858492EA008040083700500309710024
B1126195603904N00858513EA008100084100500709375004
B1126225603944N00858498EA008120084500500508923331
B1126255603967N00858439EA008130084500500309252279
B1126285603953N00858370EA008150084800501009516223
B1126315603911N00858344EA008120084600800810492177
B1126345603867N00858380EA008110084400500711174136
B1126375603841N00858460EA008120084500501511523103
B1126405603840N00858552EA008190084900600910909075
B1126435603869N00858611EA008260085800600709503021
B1126465603912N00858607EA008220085700600109618335
B1126495603941N00858549EA008220085300601409871290
B1126525603933N00858476EA008300086100601409373226
B1126555603894N00858448EA008270086300601409734183
B1126585603850N00858475EA008200085500600111291140
B1127015603820N00858553EA008200085300601011717109
LLXVBATT:4.17V 112704
B1127045603816N00858645EA008270085700600711085083
B1127075603826N00858729EA008300086400600610073069
B1127105603851N00858795EA008240086000600809947042
B1127135603890N00858838EA008170085100601410450023
B1127165603936N00858868EA008120084700600710905018
B1127195603985N00858890EA008080084200601511213012
F112719240302252906121932312214
B1127225604036N00858909EA008040083800600711324012
B1127255604086N00858930EA007960083100600011513015
B1127285604136N00858958EA007900082500600411632019
B1127315604187N00858988EA007840081800600411726017
B1127345604238N00859016EA007810081400600711873017
B1127375604289N00859044EA007800081200600311726016
B1127405604340N00859066EA007810081200601511341012
B1127435604389N00859085EA007790081200600011006011
B1127465604438N00859101EA007770080900600911044010
B1127495604487N00859117EA007720080500600211187010
B1127525604537N00859135EA007660080000600211411013
B1127555604586N00859163EA007620079500600111613019
B1127585604635N00859199EA007560078900601511734024
B1128015604682N00859243EA007580078800600911980028
B1128045604730N00859286EA007650079400601511738025
B1128075604776N00859329EA007690080200600511410028
B1128105604822N00859372EA007670080100601511335026
B1128135604867N00859413EA007670080000600611345027
B1128165604911N00859456EA007680080100601211063028
B1128195604954N00859501EA007700080200600210889032
B1128225604995N00859548EA007730080400600910768030
B1128255605038N00859582EA007810081100600410438015
B1128285605082N00859579EA007860081700600209451338
B1128315605108N00859526EA007960082600600008763283
B1128345605096N00859459EA008020083400600009202226
B1128375605055N00859428EA008040083700600510568182
B1128405605008N00859460EA008050083800600211587138
B1128435604982N00859541EA008110084200601311532098
B1128465604995N00859624EA008190085100601510413050
B1128495605033N00859665EA008220085500600309525009
B1128525605073N00859649EA008250085700600108926327
B1128555605093N00859591EA008330086500600808461277
B1128585605079N00859527EA008350086800600609353220
B1129015605035N00859509EA008360086800601411067167
B1129045604993N00859562EA008390087000600311867124
B1129075604981N00859652EA008460087700600511259080
B1129105605005N00859726EA008500088200601410348039
B1129135605046N00859757EA008550088500601209484007
B1129165605084N00859741EA008610089200600208281325
B1129195605103N00859687EA008630089600600707940277
B1129225605089N00859624EA008580089100601009499219
B1129255605043N00859611EA008590088900601311550164
B1129285605001N00859666EA008670089700601311296122
B1129315604991N00859751EA008750090500600110466084
B1129345605009N00859825EA008790091000600109816047
B1129375605045N00859866EA008790091000601509238013
B1129405605084N00859855EA008760090900600608302332
B1129435605106N00859804EA008710090400600208105285
B1129465605105N00859736EA008670090000600508815249
B1129495605078N00859677EA008690089900600009962215
B1129525605035N00859649EA008730090400600110505183
B1129555604989N00859675EA008760090800600311096142
B1129585604959N00859748EA008780091000601511156112
B1130015604954N00859837EA008790091100601410857078
B1130045604980N00859904EA008830091200600209933030
B1130075605021N00859909EA008880091800601208850341
B1130105605051N00859864EA008890092200600308530298
B1130135605059N00859793EA008860091900600309351270
B1130165605056N00859712EA008800091400601110327263
B1130195605048N00859626EA008790091000601210779258
B1130225605037N00859542EA008800091200601410148255
B1130255605026N00859463EA008710090800601010123257
B1130285605016N00859377EA008560089200600011291258
B1130315605006N00859285EA008530088400600311873258
B1130345604997N00859192EA008560088700600111259262
B1130375604991N00859105EA008570089100600210507263
B1130405604988N00859020EA008510088500601410642271
B1130435604990N00858933EA008440087800600310902272
B1130465604991N00858845EA008440087700601510902269
B1130495604988N00858759EA008470087900600510400262
B1130525604978N00858679EA008420087700601010233252
F1130522403022529061219323114
B1130555604963N00858600EA008350087000600910416250
B1130585604947N00858521EA008340086700600010566251
B1131015604934N00858439EA008370087000600710596255
B1131045604921N00858359EA008390087400601210203254
B1131075604909N00858280EA008410087400601110196255
B1131105604898N00858200EA008450087700601010222256
B1131135604888N00858119EA008480088200601410429260
B1131165604883N00858035EA008410087700600110552265
B1131195604879N00857951EA008380087400601010616265
B1131225604874N00857865EA008330086900600210678262
B1131255604867N00857781EA008310086600600410587258
B1131285604856N00857698EA008280086400601510542254
B1131315604843N00857617EA008290086400600510490253
B1131345604830N00857536EA008290086400601210427254
B1131375604818N00857455EA008300086500600710451257
B1131405604812N00857372EA008250086100600610450269
B1131435604818N00857288EA008250085900600310577283
B1131465604833N00857209EA008270086200600610190294
B1131495604858N00857141EA008240086100600610112307
B1131525604888N00857079EA008200085700600910159310
B1131555604920N00857020EA008160085300600010168315
B1131585604953N00856962EA008150085000600010211313
B1132015604984N00856904EA008180085200600009960313
B1132045605015N00856847EA008280085900601109445315
LLXVBATT:4.17V 113206
B1132075605044N00856797EA008280086500600408822316
B1132105605071N00856746EA008240086000600008752310
B1132135605096N00856690EA008290085900618409039307
B1132165605120N00856631EA008300086300623209037302
B1132195605140N00856567EA008250085700608009456297
B1132225605158N00856496EA008250085700617009777290
B1132255605172N00856424EA008270086000600409189288
B1132285605180N00856353EA008300086500600208913275
B1132315605178N00856279EA008190085600601209638261
B1132345605171N00856198EA008150084800601510672262
B1132375605166N00856113EA008270085700600510765263
B1132405605150N00856039EA008320086700600109881233
B1132435605112N00855994EA008260086300600110646196
B1132465605062N00856003EA008220085800601311497157
B1132495605021N00856063EA008180085400600811971128
B1132525604999N00856153EA008130084800600911940100
B1132555605002N00856249EA008110084500600711597075
B1132585605023N00856333EA008130084600601311048053
B1133015605060N00856387EA008190085200600809996024
B1133045605102N00856402EA008190085600600308976359
B1133075605142N00856388EA008130085000601209078341
B1133105605182N00856357EA008050084200600310073333
B1133135605224N00856315EA008020083600600211019329
B1133165605267N00856269EA008080084200601010563328
B1133195605305N00856222EA008060084100600209966324
B1133225605342N00856175EA008060084100601209795324
B1133255605377N00856129EA008030084000600109762323
B1133285605413N00856081EA008000083600601310001322
B1133315605450N00856033EA008020083600601110173326
B1133345605489N00855991EA008060084000600409946330
B1133375605528N00855950EA008070084200601309996327
B1133405605562N00855900EA008060084200600809575310
B1133435605581N00855834EA008040084000600208908283
B1133465605578N00855763EA007950083300601508945251
B1133495605555N00855699EA007820082100600409914228
B1133525605521N00855642EA007710080800601010659222
B1133555605484N00855582EA007640080000600511011225
B1133585605449N00855518EA007620079600600111052224
B1134015605412N00855463EA007670080000601110455217
B1134045605374N00855414EA007670080200600610164215
B1134075605335N00855369EA007680080200601010159212
B1134105605297N00855324EA007680080300601210027215
B1134135605259N00855278EA007710080400600010157214
B1134165605221N00855233EA007850081500601209788215
B1134195605195N00855178EA007930082600600708702248
B1134225605195N00855113EA007910082700601208370294
B1134255605226N00855070EA007910082600600009165345
B1134285605268N00855078EA007850082200601109766025
B1134315605300N00855139EA007760081300600010963065
B1134345605307N00855230EA007670080500600811543098
B1134375605291N00855322EA007590079500601211786112
B1134405605270N00855413EA007590079200600612064112
B1134435605247N00855502EA007660079700600512101117
B1134465605218N00855577EA007700080400600010822136
B1134495605175N00855615EA007660080000600010594169
B1134525605127N00855629EA007570079400601011000161
B1134555605085N00855680EA007500078600601311743133
B1134585605055N00855760EA007450078000601411988115
B1135015605036N00855852EA007450077700601012079105
B1135045605022N00855948EA007490078000600012145106
B1135075605010N00856042EA007540078600601211693098
B1135105605011N00856134EA007550078900600111347081
B1135135605021N00856224EA007520078700601211295078
B1135165605032N00856316EA007470078200601111951078
B1135195605043N00856412EA007450078000601512166078
B1135225605053N00856508EA007410077600600912047081
B1135255605060N00856605EA007340077000601212414082
B1135285605066N00856706EA007320076400601412764086
B1135315605066N00856808EA007420077200600212381091
B1135345605063N00856904EA007540078300601011378101
B1135375605044N00856985EA007540078800601310868118
B1135405605021N00857065EA007530078700600811445112
B1135435605003N00857152EA007570078900600911584109
B1135465604982N00857236EA007550079100600911282120
B1135495604950N00857307EA007420078000601411578136
B1135525604908N00857365EA007330077000600712114146
B1135555604860N00857415EA007310076400601312488149
B1135585604811N00857465EA007360076700600112205150
B1136015604763N00857508EA007390077300600011617153
B1136045604718N00857555EA007350077100600011713143
B1136075604678N00857619EA007350076800600612025133
B1136105604646N00857697EA007360077000601312092121
B1136135604618N00857781EA007410077200601212056121
B1136165604593N00857863EA007510078100600111119108
B1136195604593N00857946EA007550078900600509866071
B1136225604619N00858005EA007520078700601209327030
B1136255604660N00858005EA007540078500601509440333
B1136285604685N00857944EA007630079200600509725281
B1136315604671N00857873EA007730080400601510222215
B1136345604624N00857861EA007720080700600911161164
B1136375604585N00857919EA007740080500601011802115
B1136405604585N00858009EA007810081100600311026064
B1136435604619N00858060EA007910082200600009445016
B1136465604659N00858048EA007980082900600108878323
B1136495604674N00857982EA008050083500600509319261
B1136525604645N00857927EA008090084200600210655194
B1136555604596N00857947EA008100084200601411956143
B1136585604575N00858030EA008210085000600811009081
B1137015604603N00858088EA008290086100600409382017
B1137045604643N00858076EA008340086600600609258323
B1137075604659N00858009EA008430087300601309427262
LLXVBATT:4.17V 113708
B1137105604630N00857954EA008510088200600410305197
B1137135604583N00857964EA008490088300601010854150
B1137165604554N00858037EA008470087800601411587103
B1137195604566N00858121EA008570088500601310438047
B1137225604606N00858144EA008650089500601109354348
B1137255604638N00858098EA008730090300600709306292
B1137285604629N00858028EA008810091100601309931222
B1137315604585N00858005EA008780091100600511200173
B1137345604539N00858050EA008820091000601211890129
B1137375604530N00858135EA008880091800600210485070
B1137405604562N00858190EA008910092100601309894018
B1137435604604N00858179EA009030093000601409130323
B1137465604619N00858114EA009100094000600809139265
B1137495604597N00858048EA009120094400600909966218
B1137525604553N00858025EA009090094100600110653175
B1137555604510N00858063EA009090094000601411043133
B1137585604491N00858143EA009100094100600410690094
B1138015604489N00858231EA009020093700600810991095
B1138045604481N00858325EA008880092400600511995099
B1138075604472N00858424EA008780091400600712577099
B1138105604464N00858527EA008740090600600012872096
B1138135604469N00858626EA008810091000600811784067
B1138165604502N00858683EA008900092100600409319016
B1138195604540N00858669EA008860092200601308457328
B1138225604567N00858617EA008790091300600109019300
B1138255604583N00858544EA008780091000601009732287
B1138285604595N00858466EA008830091400601509957285
B1138315604604N00858386EA008930092300601209742274
B1138345604601N00858306EA009010093100600209658261
B1138375604589N00858232EA009120094000600509588239
B1138405604554N00858183EA009170094800600610561197
B1138435604505N00858189EA009160094800600711684155
B1138465604467N00858257EA009160094600600511943115
B1138495604465N00858347EA009200095000600810676068
B1138525604496N00858404EA009210095200600009571022
B1138555604537N00858403EA009230095300601209169334
B1138585604568N00858351EA009240095500600909593306
B1139015604594N00858284EA009280095800601210033305
B1139045604621N00858215EA009190095500600410070305
B1139075604649N00858148EA009120094600600110370308
B1139105604680N00858084EA009070094100600510514311
B1139135604712N00858019EA009010093500600110831309
B1139165604741N00857949EA009010093200601310726305
B1139195604767N00857879EA009080093700600609879301
B1139225604788N00857816EA009110094400600208693301
B1139255604807N00857755EA009040093900601108734292
B1139285604818N00857685EA008990093200600109460278
B1139315604818N00857606EA009010093000600710238260
B1139345604806N00857527EA008990093300600409931254
B1139375604790N00857452EA008930092700600210198242
B1139405604764N00857381EA008870092000601310648234
B1139435604734N00857313EA008840091600600310876226
B1139465604696N00857256EA008820091400601511031217
B1139495604656N00857204EA008800091300600511059215
B1139525604613N00857160EA008780091100600011013204
B1139555604565N00857134EA008780091000600511080189
B1139585604515N00857142EA008760090900601511254162
B1140015604471N00857190EA008700090400601211688138
B1140045604439N00857268EA008650089900601511951118
B1140075604418N00857359EA008620089600600812064106
B1140105604408N00857457EA008580089200600712121095
B1140135604408N00857556EA008550088800601312155087
B1140165604412N00857655EA008490088300600712353085
B1140195604417N00857757EA008410087700601112666085
B1140225604423N00857861EA008360087000601312940083
B1140255604429N00857966EA008310086500601113063085
B1140285604434N00858071EA008290086200600612881084
B1140315604438N00858175EA008250085800600712822087
B1140345604438N00858278EA008240085700601412733092
B1140375604431N00858379EA008220085600600412594100
B1140405604425N00858478EA008160085000600012030085
B1140435604447N00858559EA008100084500600811085041
B1140465604492N00858583EA008080084100600210114356
B1140495604534N00858559EA008100084200600809445335
B1140525604573N00858525EA008140084600601009297336
B1140555604614N00858508EA008130084700601109575002
B1140585604656N00858534EA008070084200600910639037
B1141015604683N00858607EA008040083800600411198073
B1141045604684N00858699EA007980083200601011391098
B1141075604670N00858787EA007930082700600211222115
B1141105604636N00858853EA007840081900601511367148
B1141135604587N00858883EA007810081300601011423171
B1141165604535N00858884EA007860081700600211271181
B1141195604483N00858890EA007880082100600111591165
B1141225604437N00858938EA007880082100600812066134
B1141255604406N00859020EA007890082100600812149117
B1141285604382N00859107EA007880082200600612092117
B1141315604357N00859195EA007890082200600812167115
B1141345604336N00859281EA007840082000601111530111
B1141375604318N00859371EA007810081500600212169109
B1141405604298N00859465EA007770081200600612710111
B1141435604278N00859562EA007770081000600112846110
B1141465604257N00859658EA007740080800600213053111
B1141495604240N00859764EA007780080700600413976100
B1141525604232N00859873EA007830081400600713285094
B1141555604238N00859973EA007900082100601411878073
B1141585604255N00900063EA007850082000600711938073
B1142015604267N00900159EA007810081600600112258083
B1142045604270N00900259EA007760081000600212764088
B1142075604272N00900363EA007760080800601313000089
LLXVBATT:4.16V 114210
B1142105604273N00900468EA007790081000600913152085
B1142135604283N00900568EA007840081700601512286076
B1142165604300N00900662EA007860081700601312255069
B1142195604319N00900752EA007900082400600011634069
B1142225604343N00900834EA007820081900600511467057
B1142255604374N00900911EA007680080500600912256052
B1142285604410N00900989EA007540078900601313124048
B1142315604452N00901067EA007510078300601213381045
B1142345604493N00901144EA007540078400600113183048
B1142375604531N00901224EA007620079100600612584052
B1142405604560N00901308EA007650079700600212201066
B1142435604570N00901404EA007660079800600212327090
B1142465604558N00901502EA007640079800601112562109
B1142495604538N00901600EA007680079900600312950107
B1142525604520N00901697EA007690080200600012542108
B1142555604503N00901793EA007630079900600712559106
B1142585604486N00901891EA007570079100600812887106
B1143015604467N00901991EA007510078500601213500110
B1143045604444N00902094EA007480078100600813897113
B1143075604415N00902192EA007540078500600713904121
B1143105604383N00902282EA007620079400600012827122
B1143135604354N00902368EA007650079800600012171117
B1143165604333N00902458EA007640079700600612016108
B1143195604316N00902552EA007690080000600812188103
B1143225604316N00902646EA007730080600600311550078
B1143255604337N00902726EA007730080700600210705049
B1143285604377N00902766EA007680080300600509857011
B1143315604420N00902753EA007620079600600709499335
B1143345604455N00902707EA007640079400601109289321
B1143375604489N00902664EA007680079900601509075334
B1143405604530N00902649EA007670080000600409547001
B1143435604575N00902660EA007660079900601310268011
B1143465604621N00902678EA007690080000600410394014
B1143495604666N00902691EA007680080100600109870000
B1143525604710N00902683EA007660079900600109732352
B1143555604753N00902667EA007610079600600109636342
B1143585604790N00902628EA007540078800600809458317
B1144015604818N00902570EA007480078200601409343302
B1144045604830N00902498EA007400077500601109271276
F11440424030225290612323114
B1144075604824N00902423EA007340076800601009421249
B1144105604802N00902356EA007300076200600309701231
B1144135604769N00902302EA007270076000601410036212
B1144165604724N00902275EA007250075800600810598189
B1144195604675N00902271EA007260075700600210698179
B1144225604626N00902276EA007290076000601210733175
B1144255604577N00902285EA007320076300601310700173
B1144285604529N00902295EA007340076500600910464173
B1144315604483N00902317EA007320076500600810865152
B1144345604444N00902378EA007290076200600611910131
B1144375604415N00902461EA007280076000601412403109
B1144405604409N00902562EA007350076500601412408085
B1144435604429N00902649EA007420077300600911156049
B1144465604470N00902695EA007470077900600910083016
B1144495604513N00902693EA007510078300600609030340
B1144525604544N00902648EA007530078500600108721303
B1144555604552N00902579EA007570078900601408808260
B1144585604533N00902515EA007590079200600409151225
B1145015604495N00902480EA007600079300601409903192
B1145045604450N00902469EA007580079300601310173190
B1145075604408N00902439EA007640079300600309836214
B1145105604374N00902389EA007680080200601309606217
B1145135604334N00902351EA007650079900600810392204
B1145165604297N00902303EA007670079900600209947231
B1145195604281N00902232EA007680080200600909186262
B1145225604283N00902157EA007690080200600809221279
B1145255604288N00902082EA007750080800600509293271
B1145285604287N00902008EA007840081500601009093266
B1145315604280N00901937EA007870082000600008910244
B1145345604249N00901886EA007870082100600510296205
B1145375604201N00901882EA007890082200601111343163
B1145405604159N00901937EA007910082500601111625127
B1145435604141N00902025EA007890082300601011402092
B1145465604155N00902113EA007880082000600411096058
B1145495604186N00902184EA007930082300601510576046
B1145525604223N00902230EA007960082800600809527019
B1145555604265N00902232EA008000083200600009117347
B1145585604302N00902200EA008060083800601008633320
B1146015604330N00902151EA008050084000600008667316
B1146045604363N00902106EA008000083500600609567331
B1146075604407N00902084EA008040083300600410481354
B1146105604450N00902066EA008120084300600509019329
B1146135604471N00902008EA008110084400600508924277
B1146165604456N00901943EA008130084500600709325216
B1146195604414N00901943EA008140084700600310539148
B1146225604387N00902019EA008150084700601511675099
B1146255604394N00902112EA008210085100600111326065
B1146285604428N00902169EA008270085900600109988017
B1146315604470N00902159EA008270086000600909238327
B1146345604491N00902099EA008260085900601508973277
B1146375604478N00902031EA008300086100600009112228
B1146405604440N00902002EA008310086400601309816178
B1146435604399N00902044EA008340086400600611415125
B1146465604390N00902132EA008390087100600210957076
B1146495604421N00902195EA008380087000600510470021
B1146525604464N00902185EA008400087200601409354322
B1146555604479N00902120EA008420087300601308810264
B1146585604457N00902064EA008440087600601308910208
B1147015604415N00902053EA008470087700600109916173
B1147045604373N00902085EA008480088000601010544138
F1147042403022529061219323114
B1147075604350N00902162EA008470088100601511082099
B1147105604358N00902250EA008430087600600811280063
LLXVBATT:4.16V 114712
B1147135604388N00902323EA008450087700600610857042
B1147165604431N00902356EA008440087700600009977002
B1147195604471N00902330EA008430087800600909052317
B1147225604488N00902264EA008370087200601009258273
B1147255604476N00902190EA008360086900600109655240
B1147285604452N00902125EA008460087500601009315230
B1147315604416N00902089EA008460088000600209460186
B1147345604373N00902108EA008470087900600210620147
B1147375604347N00902184EA008490088000600711747096
B1147405604364N00902269EA008520088400600511191043
B1147435604408N00902293EA008520088500600109844348
B1147465604438N00902243EA008490088200600709241286
B1147495604432N00902169EA008520088200600109354242
B1147525604400N00902125EA008540088700600809479194
B1147555604355N00902123EA008570088900601110083171
B1147585604313N00902160EA008590089100601510978136
B1148015604289N00902241EA008630089400601511684098
B1148045604300N00902328EA008690090000601010759054
B1148075604339N00902371EA008670090100601109918010
B1148105604380N00902353EA008610089400601009214319
B1148135604394N00902288EA008620089400600908557261
B1148165604370N00902234EA008600089200600009188206
B1148195604327N00902220EA008590089100600210157181
B1148225604280N00902221EA008660089600600610298176
B1148255604234N00902234EA008720090300600810131164
B1148285604192N00902274EA008750090600600410904142
B1148315604154N00902333EA008770091000600911189138
B1148345604115N00902389EA008750090700601511052145
B1148375604075N00902442EA008730090700601011061141
B1148405604041N00902509EA008660090000600711521122
B1148435604021N00902596EA008610089400600911663102
B1148465604018N00902689EA008610089300600711285089
B1148495604021N00902780EA008600089300600911119083
B1148525604033N00902866EA008620089400600710768069
B1148555604053N00902944EA008650089700601310509066
B1148585604069N00903026EA008710090100600910941076
B1149015604078N00903113EA008770090900600810991080
B1149045604090N00903200EA008800091100601011007070
B1149075604116N00903273EA008850091500601010537044
B1149105604156N00903310EA008900092200600909649013
B1149135604197N00903297EA008880092100600109525328
B1149165604221N00903235EA008900092100600609460280
B1149195604208N00903163EA008940092500600709688226
B1149225604167N00903129EA009000093000600110605185
B1149255604119N00903151EA009070093700600111469146
B1149285604091N00903225EA009140094400600311026097
B1149315604106N00903302EA009160094700600810097042
B1149345604149N00903322EA009180094700601509971349
B1149375604183N00903276EA009230095300601109165295
B1149405604178N00903206EA009270095600600309436231
B1149435604137N00903176EA009300096000601510968174
B1149465604095N00903224EA009380096600600411423124
B1149495604084N00903307EA009480097700600910064079
B1149525604106N00903374EA009520098200600509430040
B1149555604145N00903405EA009540098400601209386011
B1149585604188N00903405EA009520098400601309618350
B1150015604229N00903376EA009510098200601309640326
B1150045604258N00903320EA009530098400601309291300
B1150075604271N00903249EA009530098400600809151276
B1150105604271N00903172EA009450097900601309286267
B1150135604267N00903092EA009370097000600710368263
B1150165604262N00903005EA009320096300601110956265
B1150195604258N00902915EA009250095900601111226264
B1150225604253N00902823EA009200095300601511493267
B1150255604251N00902729EA009230095200601511625267
B1150285604249N00902638EA009330096100600510824264
B1150315604236N00902557EA009390097000600410153243
B1150345604208N00902494EA009330096800601310064220
B1150375604166N00902457EA009230095800601410733195
B1150405604116N00902458EA009130094700600111486165
B1150435604068N00902503EA009000093400600712208144
B1150465604027N00902571EA008910092400601112221132
B1150495603994N00902652EA008900092100600712066123
B1150525603966N00902735EA008890092200600011639121
B1150555603940N00902818EA008840091800600611515118
B1150585603918N00902909EA008750090900601212445110
B1151015603903N00903007EA008660090000600012451098
B1151045603906N00903106EA008650089600600912001075
B1151075603923N00903195EA008630089600600411274066
B1151105603954N00903262EA008590089200601410411033
B1151135603997N00903294EA008550088800600210438019
B1151165604042N00903326EA008600089000600510492028
B1151195604078N00903383EA008610089300600011178055
B1151225604094N00903470EA008650089500601011967090
B1151255604083N00903567EA008710090100600212271102
B1151285604087N00903663EA008780090800600812056063
B1151315604128N00903714EA008880091700600610807004
B1151345604170N00903688EA008960092600600909214318
B1151375604189N00903622EA008980092800601309295284
B1151405604189N00903546EA009020093300600209358252
B1151435604161N00903486EA009030093400600110266207
B1151465604114N00903466EA009040093600601110804180
B1151495604066N00903489EA009060093700601311246148
B1151525604030N00903556EA009100093900600811536122
B1151555604015N00903644EA009150094300600211308088
B1151585604034N00903722EA009250095400601210136045
B1152015604073N00903754EA009300096000601409225004
B1152045604113N00903732EA009350096400601109195324
B1152075604136N00903671EA009360096700600509169283
B1152105604128N00903597EA009370096700600309860238
B1152135604095N00903538EA009360096800600110451215
LLXVBATT:4.16V 115214
B1152165604049N00903506EA009360096500600211280187
B1152195603999N00903524EA009440097100600611547150
B1152225603966N00903595EA009470097700600511439109
B1152255603966N00903686EA009480097700600611130071
B1152285603997N00903752EA009500097800600010481028
B1152315604042N00903760EA009640098800600709540342
B1152345604073N00903714EA009710100000600808822298
B1152375604079N00903640EA009660099700601109751259
B1152405604058N00903567EA009640099400600810435227
B1152435604017N00903518EA009610099200600311076204
B1152465603968N00903486EA009520098500600911636197
B1152495603914N00903468EA009420097500600212473185
B1152525603856N00903467EA009380096700601312962178
B1152555603798N00903463EA009370096500600512503190
B1152585603750N00903421EA009330096400600811334224
B1153015603732N00903342EA009260095700600710342270
B1153045603753N00903275EA009250095500601509664326
B1153075603797N00903265EA009160094800601310418012
B1153105603841N00903305EA009110094300600611072038
B1153135603876N00903372EA009060093800601211228054
B1153165603902N00903452EA009020093300601211187063
B1153195603922N00903537EA008930092700601011561072
B1153225603936N00903631EA008890092100600512108077
B1153255603945N00903729EA008930092300601412260084
B1153285603948N00903829EA008990092900600812201086
B1153315603958N00903925EA009070093500601511697073
B1153345603982N00904003EA009140094200600610711046
B1153375604021N00904048EA009180094800601410227021
F11533724030225290612323114
B1153405604067N00904064EA009210095100600610135001
B1153435604111N00904046EA009250095400600509764337
B1153465604144N00903998EA009260095700600609243305
B1153495604159N00903927EA009230095500601009425279
B1153525604154N00903851EA009180095000601309536247
B1153555604127N00903788EA009100094300600910036219
B1153585604086N00903748EA009060093700601410270201
B1154015604041N00903726EA009040093600601010296187
B1154045603993N00903731EA008970092900600010924163
B1154075603946N00903769EA008940092500601311560152
B1154105603902N00903823EA008930092400601311858136
B1154135603873N00903905EA008980092600601511880111
B1154165603866N00903997EA009020093200600211117080
B1154195603888N00904076EA009060093300601210566051
B1154225603926N00904116EA009150094300601309404005
B1154255603965N00904092EA009180094700600509163318
B1154285603980N00904026EA009210095000601409123263
B1154315603955N00903965EA009250095400601110025206
B1154345603908N00903964EA009270095700601011382159
B1154375603866N00904023EA009300095900600011795125
B1154405603851N00904110EA009340096400600410915089
B1154435603865N00904189EA009370096600600010046054
B1154465603902N00904231EA009400096800600109562010
B1154495603944N00904219EA009480097400600109510337
B1154525603976N00904170EA009540098200600709047302
B1154555603984N00904099EA009540098400600509267259
B1154585603960N00904035EA009610098700600009805212
B1155015603915N00904024EA009640099400601210418168
B1155045603874N00904071EA009610099100600111476129
B1155075603857N00904159EA009630099100600611452090
B1155105603874N00904242EA009660099400600310689049
B1155135603913N00904290EA009710099900600810279023
B1155165603958N00904309EA009770100500600610033004
B1155195604002N00904295EA009800100900600709756333
B1155225604033N00904237EA009770100700600610350297
B1155255604044N00904153EA009800100500600610446268
B1155285604037N00904070EA009740100500600310109259
B1155315604027N00903990EA009620099600600310140256
B1155345604017N00903907EA009500098300600010787259
B1155375604012N00903818EA009470097600600811031271
B1155405604024N00903735EA009450097700600410505298
B1155435604057N00903671EA009360096700600811637325
B1155465604107N00903639EA009440097000601411498354
B1155495604157N00903651EA009530098200601410804019
B1155525604200N00903694EA009510098200600011158036
B1155555604236N00903763EA009500098000600611626055
B1155585604257N00903852EA009460097700600512212077
B1156015604258N00903953EA009420097400600312581098
B1156045604237N00904051EA009350096700600613059121
B1156075604198N00904132EA009300096000601213161138
B1156105604151N00904196EA009270095700600112736144
B1156135604103N00904252EA009210095300601212319148
B1156165604053N00904296EA009200094900601012221159
B1156195604000N00904323EA009230095200601011936166
B1156225603948N00904339EA009240095400600811623174
B1156255603895N00904341EA009250095500600011513182
B1156285603844N00904326EA009320095700622511565194
B1156315603794N00904293EA009350095700609411704203
B1156345603747N00904253EA009420096700600410980206
B1156375603703N00904218EA009470097600601110566195
B1156405603655N00904219EA009430097500601310998162
F1156402403022529140612193231
B1156435603613N00904269EA009370096800600511365135
B1156465603586N00904347EA009290096200600811348108
B1156495603586N00904438EA009230095400600511059074
B1156525603610N00904512EA009210095200601510220046
B1156555603647N00904562EA009180094900601109964033
B1156585603686N00904606EA009140094500600809988030
B1157015603726N00904649EA009120094400601310251032
B1157045603765N00904696EA009080094000600310483036
B1157075603803N00904750EA009050093700600310768043
B1157105603838N00904813EA009040093600600710983045
B1157135603874N00904876EA009060093700601411022043
LLXVBATT:4.16V 115716
B1157165603914N00904923EA009090093900600610459021
B1157195603959N00904934EA009070094000600809751355
B1157225603997N00904903EA009040093600601408971314
B1157255604010N00904835EA008990093200600909226271
B1157285604003N00904756EA008960092800601010003251
B1157315603977N00904687EA008970092800600010088225
B1157345603944N00904631EA009010093200601209790223
B1157375603910N00904580EA009010093300601409933210
B1157405603864N00904558EA009000093300600210700184
B1157435603815N00904562EA009000093200600510985170
B1157465603765N00904590EA009020093100601011652159
B1157495603715N00904611EA008970093000601411195179
B1157525603670N00904584EA008950092800600010105219
B1157555603647N00904517EA008920092600600009560254
B1157585603647N00904440EA008850091900601409551282
B1158015603662N00904366EA008800091400601209693296
B1158045603689N00904305EA008750090900601309562320
B1158075603729N00904279EA008740090600600709675357
B1158105603773N00904302EA008740090700601110518030
B1158135603806N00904367EA008710090500600511495065
B1158165603814N00904463EA008770090800601011891095
B1158195603802N00904557EA008860091600600211560107
B1158225603793N00904650EA008840091800601311689089
B1158255603809N00904738EA008820091400600111132053
B1158285603848N00904778EA008800091300600709723004
B1158315603887N00904752EA008760091000601008978318
B1158345603911N00904692EA008790091000600009078298
B1158375603921N00904621EA008770091100601409008265
B1158405603899N00904558EA008720090600600710003213
B1158435603852N00904538EA008740090500600710824176
B1158465603807N00904572EA008780091000601511100139
B1158495603778N00904649EA008810091300600911658111
B1158525603774N00904744EA008840091600600111682080
B1158555603794N00904828EA008810091500601410976051
B1158585603833N00904877EA008750091000601510301018
B1159015603876N00904867EA008700090400601409495327
B1159045603900N00904805EA008690090100600009438285
B1159075603896N00904730EA008720090400600609265243
B1159105603868N00904673EA008710090500601109441221
B1159135603835N00904620EA008670090200600410047223
B1159165603803N00904559EA008640089900600710372229
B1159195603772N00904493EA008650089800601010464231
B1159225603745N00904425EA008680090200601410281238
B1159255603722N00904357EA008730090500600909616237
B1159285603696N00904296EA008760090900600509425222
B1159315603656N00904267EA008780091100600110246182
B1159345603610N00904295EA008790091200601211289146
B1159375603576N00904364EA008790091200601111582115
