ALXV3IXFLIGHT:1
HFDTE120518
HFFXA015
HFPLTPILOT:X
HFGTYGLIDERTYPE:ASG 29/18m
HFGIDGLIDERID:D-KBPE
HFDTM100GPSDATUM:WGS-1984
HFRFWFIRMWAREVERSION:2.45
HFRHWHARDWAREVERSION:1.0
HFFTYFRTYPE:LXNAV,NANO
HFGPS:GLOBALTOP,FGPMMOPA6,66,max18000m
HFPRSPRESSALTSENSOR:INTERSEMA,MS5611,max16000m
HFCIDCOMPETITIONID:PE
HFCCLCOMPETITIONCLASS:18-meter
I043638FXA3941ENL4246GSP4749TRT
C240517173310301299000102
C0000000N00000000E
C5600640N00901320EArnborgHangar       
C5646180N00951590EArden               
C5556750N00957760EHovedgaard          
C5600640N00901320EArnborgHangar       
C0000000N00000000E
LLXVVOLTAGE:3.84V
LLXVRECINT:2
LLXVAUTOFINISH:TRUE
LLXVNEARDIS:5000
LLXVOFFINISH:TRUE
LLXVALWAYSRUN:FALSE
LLXVBLUETOOTH:ON
LLXVNMEA:ON
LLXVBAUDRATE:4800bps
LLXVAUTOOFF:OFF
LLXVSAVEB:ON
LLXVIBT:OFF
LLXVEC:18
LLXVETC:50
LLXVBB:3.30
LLXVWAKE:3835
LLXVGPS:N:PA6H 1.0FW:AXN_2.31_3339_13082100 5485
LLXVTEMP:45.2
LLXVPRODNR:v07
LLXVALTOFF:-19
LLXVBTY:1
B1255165600613N00900527EA-00130003400801500003000
F125516122531293206140226
B1255175600613N00900527EA-00130003400800600005000
B1255185600613N00900527EA-00130003400800500003000
B1255195600613N00900527EA-00130003400800500011000
B1255205600613N00900527EA-00130003400801300001000
B1255215600613N00900527EA-00130003400801100001000
B1255225600613N00900527EA-00130003400800200012000
B1255235600613N00900527EA-00140003400800200113000
B1255245600613N00900528EA-00130003400800500113000
B1255255600613N00900528EA-00130003400800500059000
B1255265600613N00900528EA-00130003400800000064078
B1255275600613N00900528EA-00130003400800600094078
B1255285600613N00900529EA-00130003400801100150076
B1255295600614N00900530EA-00130003400801401058077
B1255305600614N00900534EA-00130003400801501384077
B1255315600615N00900538EA-00130003400801401830079
B1255325600615N00900543EA-00130003400800602236080
B1255335600616N00900550EA-00130003500800902716080
B1255345600617N00900557EA-00130003400807303089078
B1255355600618N00900566EA-00130003400814203465079
B1255365600619N00900576EA-00130003401002303780076
B1255375600620N00900586EA-00140003401030504340075
B1255385600622N00900598EA-00140003401028204599077
B1255395600624N00900611EA-00130003401018404955076
B1255405600626N00900624EA-00130003400838605301075
B1255415600628N00900638EA-00130003400828205572075
B1255425600630N00900653EA-00130003400831205878077
B1255435600632N00900669EA-00130003300847806235076
B1255445600634N00900686EA-00130003300839506549075
B1255455600636N00900704EA-00120003400851706819078
LLXVTAKEOFF,GSP
B1255465600639N00900722EA-00120003400872407093078
B1255475600641N00900741EA-00110003400802307410079
B1255485600643N00900761EA-00100003500801407698080
B1255495600645N00900782EA-00100003500800208066080
B1255505600647N00900804EA-00100003600801508354080
B1255515600649N00900827EA-00090003600800408715080
B1255525600651N00900851EA-00090003600801509026081
B1255535600653N00900875EA-00090003700800509384081
B1255545600655N00900901EA-00090003700801509695081
B1255555600658N00900927EA-00070003700800209977081
B1255565600660N00900954EA-00060003800800210275080
B1255575600663N00900982EA-00070003900800010526080
B1255585600665N00901010EA-00060003900800710807081
B1255595600668N00901039EA-00060003900800511091080
B1256005600671N00901069EA-00050004000800011350081
B1256015600673N00901100EA-00050004000800011637082
B1256025600675N00901131EA-00040004000801111836082
B1256035600678N00901163EA-00030004100801211945082
B1256045600680N00901195EA-00010004200801412040081
B1256055600683N00901227EA000000004400800412123080
B1256065600686N00901259EA000000004500800712199079
B1256075600690N00901292EA000030004600801012201080
B1256085600692N00901324EA000070004900800612199082
B1256095600694N00901357EA000080005200800512166084
B1256105600696N00901389EA000120005400800312045086
B1256115600697N00901422EA000140005700801512032087
B1256125600697N00901454EA000180006000800611999089
B1256135600697N00901486EA000200006300800712058090
B1256145600697N00901519EA000230006500800511991090
B1256155600697N00901551EA000240006800800411982089
B1256165600696N00901583EA000270007000801011882092
B1256175600695N00901615EA000280007200800111925091
B1256185600694N00901647EA000300007400800011915092
B1256195600693N00901680EA000300007500800911915096
B1256205600690N00901712EA000340007700801412264099
B1256215600687N00901745EA000360007900801412116101
B1256225600682N00901777EA000380008201001212180104
B1256235600677N00901808EA000390008401000112229107
B1256245600671N00901840EA000410008500800612271110
B1256255600664N00901871EA000430008700801112351111
B1256265600657N00901901EA000450008900801512342113
B1256275600649N00901931EA000480009100800712342116
B1256285600640N00901960EA000490009300800712355118
B1256295600631N00901989EA000530009500800412342120
B1256305600621N00902017EA000550009800801512338122
B1256315600611N00902045EA000580010100800912336123
B1256325600601N00902072EA000610010400800112201124
B1256335600590N00902098EA000640010600800712110125
B1256345600580N00902125EA000670011000800112169125
B1256355600569N00902151EA000720011400800312143125
B1256365600558N00902178EA000760011800800912106126
B1256375600546N00902203EA000790012101000812040129
B1256385600534N00902228EA000810012401000112079131
B1256395600522N00902252EA000840012700801312073132
B1256405600509N00902275EA000880013000800412269135
B1256415600496N00902298EA000900013400800512162137
B1256425600482N00902319EA000970013800800212192138
B1256435600468N00902341EA000990014200801112210138
B1256445600455N00902362EA001020014600801112214139
B1256455600441N00902383EA001060014900801011953138
B1256465600428N00902404EA001110015300800511873137
B1256475600414N00902425EA001140015700801011832138
B1256485600401N00902445EA001160016000801111819139
B1256495600387N00902465EA001190016200800511851140
B1256505600373N00902485EA001200016400800011852141
B1256515600359N00902504EA001230016700800111960141
B1256525600344N00902524EA001260017000800511954141
B1256535600330N00902543EA001280017200800511999143
B1256545600315N00902562EA001290017300800611999143
B1256555600301N00902580EA001320017500800012010144
B1256565600287N00902599EA001340017700800611760144
B1256575600272N00902616EA001390018100800911612144
B1256585600258N00902634EA001410018400800511489144
B1256595600244N00902651EA001450018800800311300145
B1257005600229N00902667EA001480019200801411252146
B1257015600215N00902683EA001510019600800611115147
B1257025600201N00902699EA001540019900801311070147
B1257035600187N00902715EA001560020200800411074147
B1257045600173N00902730EA001560020400801411085147
B1257055600158N00902745EA001560020400800211158148
B1257065600144N00902761EA001590020400801511339149
B1257075600129N00902776EA001630020600800711328148
B1257085600115N00902793EA001660021100801011341146
B1257095600100N00902809EA001680021500801111385145
B1257105600086N00902825EA001670021500800811430147
B1257115600071N00902842EA001680021600800211780149
B1257125600055N00902857EA001700021800801511858150
B1257135600040N00902872EA001720022000800511893151
B1257145600024N00902887EA001750022300800211947151
B1257155600008N00902902EA001770022600800511978151
B1257165559992N00902917EA001810022900800511973151
B1257175559976N00902932EA001850023200800911851151
B1257185559960N00902947EA001860023500800311695151
B1257195559945N00902961EA001880023700800911604152
B1257205559930N00902975EA001910024000800511632153
B1257215559914N00902989EA001940024300801111545152
B1257225559900N00903003EA001990024700801311057150
LLXVBATT:3.84V 125723
B1257235559885N00903018EA002000025100801310948148
B1257245559871N00903033EA002030025300801210948148
B1257255559857N00903048EA002040025500801410937149
B1257265559843N00903062EA002050025700800410978149
B1257275559829N00903077EA002050025800801410855148
B1257285559815N00903094EA002050025700800410917145
B1257295559801N00903111EA002060025600800311519143
B1257305559787N00903130EA002060025700801511650140
B1257315559774N00903151EA002080025900801311739136
B1257325559761N00903173EA002090026000801011751132
B1257335559750N00903197EA002120026200800411819129
B1257345559739N00903222EA002150026500800411678126
B1257355559729N00903248EA002180026800801011649123
B1257365559720N00903274EA002240027100800011478119
B1257375559712N00903301EA002270027500801211371116
B1257385559706N00903329EA002280027800800211296110
B1257395559700N00903358EA002310028100800311133106
B1257405559697N00903387EA002360028500800011006101
B1257415559694N00903416EA002410029000800410887096
B1257425559693N00903445EA002470029600800810839093
B1257435559692N00903474EA002510030100801210878090
B1257445559693N00903503EA002550030600800410792088
B1257455559694N00903533EA002590031000800011037087
B1257465559695N00903563EA002600031300800710924083
B1257475559698N00903593EA002590031400801211578079
B1257485559701N00903624EA002580031300801211927076
B1257495559706N00903656EA002580031200801112362072
B1257505559713N00903687EA002590031100800712536069
B1257515559720N00903718EA002580031100800712720066
B1257525559728N00903750EA002580031000800612818063
B1257535559737N00903780EA002600031000801212888059
B1257545559748N00903809EA002600031000800712892055
B1257555559759N00903837EA002610031100800512887052
B1257565559771N00903864EA002620031200801312811051
B1257575559784N00903891EA002620031200801212811049
B1257585559796N00903917EA002620031200800312783047
B1257595559810N00903941EA002640031300800012749045
B1258005559823N00903965EA002640031400800212753043
B1258015559837N00903989EA002640031400800412783042
B1258025559852N00904012EA002650031300801312783041
B1258035559867N00904034EA002660031400801312766040
B1258045559881N00904057EA002670031500801412729040
B1258055559896N00904079EA002690031600801012651040
B1258065559911N00904100EA002710031800800212736038
B1258075559926N00904121EA002730031900801112705035
B1258085559942N00904140EA002740032100800212959034
B1258095559959N00904160EA002750032200800213072033
B1258105559975N00904179EA002760032300800713118033
B1258115559992N00904199EA002770032400700213155033
B1258125600008N00904218EA002790032500700513209033
B1258135600025N00904238EA002800032600701513189033
B1258145600042N00904257EA002830032800701313174032
B1258155600059N00904276EA002850033000701313181030
B1258165600076N00904294EA002870033300700313168029
B1258175600094N00904311EA002890033400700513272028
F12581712253123293206140226
B1258185600112N00904328EA002900033500700313228027
B1258195600130N00904345EA002910033900700813430027
B1258205600148N00904361EA002940034100701513467026
B1258215600166N00904377EA002980034400700013457025
B1258225600185N00904392EA003060034800700513507024
B1258235600203N00904407EA003090035300701013559025
B1258245600222N00904422EA003150035800701313654023
B1258255600241N00904436EA003180036300700013724020
B1258265600261N00904448EA003220036700700013854019
B1258275600281N00904460EA003260037000700813924016
B1258285600301N00904470EA003300037400700313985015
B1258295600322N00904480EA003300037700700514017014
B1258305600343N00904489EA003330038000701514297013
B1258315600364N00904497EA003340038200701314410012
B1258325600385N00904506EA003370038400700814365013
B1258335600406N00904514EA003390038600700414362013
B1258345600427N00904523EA003420038900701514288013
B1258355600448N00904532EA003440039100701114286012
B1258365600469N00904539EA003460039300700614156011
B1258375600490N00904546EA003490039500701014054009
B1258385600511N00904552EA003500039800701413924009
B1258395600532N00904558EA003520039900701113732009
B1258405600552N00904563EA003550040200700713602008
B1258415600572N00904569EA003560040400701113467007
B1258425600592N00904573EA003590040600701113391007
B1258435600612N00904577EA003610040800700513320005
B1258445600632N00904580EA003630041100701013240004
B1258455600652N00904582EA003660041300700513140003
B1258465600672N00904584EA003690041600700313024003
B1258475600691N00904587EA003710041800701212953004
B1258485600711N00904590EA003730042000701312946005
B1258495600730N00904593EA003760042200701112890006
B1258505600749N00904597EA003760042400701012922006
B1258515600769N00904601EA003770042500701413051005
B1258525600789N00904603EA003790042600701513218002
B1258535600809N00904603EA003790042800700913385358
B1258545600829N00904601EA003800042900700713554355
B1258555600850N00904598EA003810043100701313707354
B1258565600870N00904594EA003830043200700013698354
B1258575600891N00904590EA003840043300700613704354
B1258585600911N00904586EA003850043400700613756353
B1258595600932N00904582EA003860043500701013770352
B1259005600952N00904576EA003880043700701113772351
B1259015600973N00904571EA003900043800700113885350
B1259025600994N00904564EA003930044000700413858348
B1259035601014N00904555EA003930044200700514176345
B1259045601035N00904545EA003940044400700814371343
B1259055601056N00904534EA003930044400701414610343
B1259065601077N00904522EA003910044300700114736342
B1259075601098N00904510EA003860044100800014953341
B1259085601120N00904496EA003850043700701315146340
B1259095601141N00904482EA003820043400700215323338
B1259105601162N00904466EA003810043200700615370337
B1259115601184N00904449EA003810043100700615401336
B1259125601205N00904432EA003810043100701515392334
B1259135601225N00904413EA003830043100700315472332
B1259145601246N00904394EA003860043300700415186331
B1259155601266N00904374EA003900043500700715025331
B1259165601285N00904354EA003970044000700814736330
B1259175601304N00904335EA004040044700701414538329
B1259185601323N00904315EA004080045300700614449328
B1259195601341N00904294EA004130045800700814395327
B1259205601360N00904274EA004180046300701214249327
B1259215601378N00904253EA004220046800700514191327
B1259225601396N00904233EA004270047300700914160327
B1259235601413N00904212EA004280047600701214239326
B1259245601431N00904190EA004300047800700014349324
B1259255601448N00904167EA004310047900701414480322
B1259265601466N00904142EA004320048000701414643320
B1259275601483N00904117EA004330048100700614786319
B1259285601500N00904090EA004350048300700414958318
B1259295601516N00904064EA004360048400700815064318
B1259305601533N00904036EA004370048400700215175316
B1259315601549N00904007EA004420048600701515183314
B1259325601565N00903978EA004480049100701115110314
B1259335601581N00903949EA004520049500700715101314
B1259345601597N00903920EA004540049900701315027314
B1259355601613N00903891EA004580050200700214988314
B1259365601628N00903862EA004620050700700714990313
B1259375601644N00903833EA004670051200700514925313
B1259385601659N00903804EA004690051500701014931312
B1259395601674N00903774EA004710051800701015031312
B1259405601689N00903744EA004730051900700315040311
B1259415601704N00903713EA004760052200700215051311
B1259425601719N00903683EA004780052400701215057311
B1259435601733N00903652EA004780052500700815014310
B1259445601748N00903621EA004810052600700214931309
B1259455601762N00903590EA004840052900700714849308
B1259465601775N00903559EA004890053200700714879307
B1259475601789N00903528EA004930053600700414625307
B1259485601802N00903497EA004970054000701014551308
B1259495601816N00903466EA005010054500701214679308
B1259505601829N00903435EA005030054900701314679307
B1259515601842N00903403EA005040055000700314601306
B1259525601855N00903372EA005080055300701114186306
B1259535601867N00903342EA005110055800701314356304
B1259545601878N00903312EA005130056100700913137303
B1259555601889N00903283EA005140056300700412851303
B1259565601899N00903255EA005150056300700612692302
B1259575601909N00903226EA005140056300700412510301
B1259585601918N00903197EA005130056200700512447299
B1259595601927N00903168EA005120056100701412388298
B1300005601936N00903137EA005100055800701512555294
B1300015601943N00903106EA005080055600701412414293
B1300025601951N00903075EA005060055500701512432293
B1300035601958N00903044EA005060055300700812640291
B1300045601965N00903012EA005060055300700012568290
B1300055601971N00902980EA005050055200700612603289
B1300065601978N00902947EA005060055300700012870289
B1300075601984N00902915EA005060055300701313048288
B1300085601991N00902881EA005060055400700312985288
B1300095601997N00902848EA005040055300701213252289
B1300105602004N00902814EA005020055100701213244289
B1300115602011N00902780EA005010055000701113563288
B1300125602017N00902745EA004980054800700813613288
B1300135602024N00902711EA004980054600700013767287
B1300145602030N00902675EA004980054600700113919287
B1300155602036N00902640EA004980054600700613969288
B1300165602043N00902604EA004990054600700013969290
B1300175602051N00902569EA005000054700701314017292
B1300185602059N00902535EA005010054800700413980293
B1300195602068N00902501EA005030054900701413922296
B1300205602077N00902468EA005050055100700313774297
B1300215602087N00902435EA005050055200701313635298
B1300225602098N00902404EA005060055300701313643299
B1300235602108N00902372EA005060055400701113639300
B1300245602118N00902341EA005070055400700313633301
B1300255602129N00902309EA005070055400701213626301
B1300265602140N00902278EA005070055500700513624301
B1300275602150N00902247EA005080055600701013585300
B1300285602161N00902216EA005080055600700513543301
B1300295602171N00902185EA005080055700701313455301
B1300305602182N00902155EA005080055800700413441301
B1300315602192N00902124EA005070055800701413483301
B1300325602203N00902093EA005060055700700613522301
B1300335602213N00902063EA005060055700701513517301
B1300345602224N00902032EA005050055600701413557301
B1300355602234N00902000EA005030055500700313589300
B1300365602244N00901969EA005020055400701413678300
B1300375602255N00901937EA005010055300700913652299
B1300385602265N00901905EA005000055200701113863298
B1300395602274N00901872EA004990055100700413941297
B1300405602284N00901839EA004970055000700214006295
B1300415602292N00901804EA004960054800700114086293
B1300425602300N00901769EA004940054600701114182290
B1300435602307N00901733EA004930054500701214288287
B1300445602313N00901696EA004920054300701314419284
B1300455602317N00901658EA004910054200700014517280
B1300465602321N00901620EA004900054201000614547277
B1300475602323N00901581EA004890054101001114545274
B1300485602323N00901542EA004880054000700714488270
B1300495602323N00901504EA004880053900700314560267
B1300505602322N00901465EA004870053800700914540265
B1300515602319N00901427EA004890053800701314515262
B1300525602316N00901389EA004860053700700514495260
B1300535602312N00901352EA004850053600701414130257
B1300545602306N00901316EA004860053500700114013250
B1300555602297N00901281EA004860053400700913909245
B1300565602287N00901249EA004850053300701013811237
B1300575602275N00901220EA004860053300700913539229
B1300585602261N00901194EA004860053300700013470223
B1300595602246N00901170EA004890053300700313409220
B1301005602230N00901146EA004890053500700713441221
B1301015602215N00901122EA004910053700700413335225
B1301025602202N00901095EA004950054000701413435232
B1301035602190N00901065EA004970054300700313643238
B1301045602180N00901034EA004990054600701113522243
B1301055602171N00901001EA005000054800700713518249
B1301065602166N00900966EA005020055000700713461256
B1301075602162N00900931EA005040055100700413531262
B1301085602160N00900895EA005050055300701413352268
B1301095602161N00900859EA005060055500700513305274
B1301105602163N00900824EA005050055500701013255279
B1301115602168N00900790EA005040055501000813259285
B1301125602174N00900756EA005040055401000313357291
B1301135602183N00900724EA005040055301001213448298
B1301145602193N00900693EA005040055301000613531304
B1301155602206N00900664EA005040055301001013604310
B1301165602220N00900638EA005030055201100513615316
B1301175602235N00900614EA005020055101100213556322
B1301185602252N00900594EA005010055001200813620329
F1301181225312329060226
B1301195602270N00900578EA005000054901100013294336
B1301205602289N00900566EA004990054701101013239343
B1301215602308N00900559EA005000054601100712992351
B1301225602327N00900557EA005010054600701312718359
B1301235602346N00900559EA005020054600700912401007
B1301245602364N00900567EA005030054800801512123015
B1301255602381N00900578EA005030054900801011854023
B1301265602397N00900593EA005040054901000311573030
B1301275602410N00900610EA005060055000700911282039
B1301285602422N00900631EA005070055100701511002048
B1301295602432N00900655EA005080055200700210783057
B1301305602440N00900681EA005090055300700710594065
B1301315602445N00900707EA005110055400701410361074
B1301325602448N00900735EA005100055500700710049083
B1301335602449N00900762EA005120055700700109773091
B1301345602448N00900788EA005120055800800009612096
B1301355602446N00900814EA005130055900800109547102
B1301365602442N00900839EA005140056000801409449109
B1301375602437N00900863EA005150056200801009336117
B1301385602430N00900884EA005160056401001209243124
B1301395602421N00900904EA005180056501001409206132
B1301405602411N00900922EA005180056601000709260140
B1301415602400N00900936EA005190056701000309391148
B1301425602387N00900949EA005210056801001409566155
B1301435602374N00900958EA005220056900800309701163
B1301445602359N00900964EA005230057000800509890171
B1301455602344N00900966EA005240057101000110046178
B1301465602329N00900966EA005250057201000010305184
B1301475602313N00900962EA005240057300700310581191
B1301485602298N00900954EA005240057200701010824198
B1301495602282N00900944EA005250057200700511159204
B1301505602267N00900930EA005250057200701111524209
B1301515602252N00900913EA005250057200700711884215
B1301525602237N00900893EA005240057300700912019219
B1301535602224N00900871EA005230057300701512221225
B1301545602211N00900845EA005220057100700612566232
B1301555602201N00900817EA005210057100701112781240
B1301565602192N00900786EA005210057000700012916245
B1301575602185N00900753EA005190057000700813066252
B1301585602179N00900719EA005180056900701413098257
B1301595602176N00900684EA005180056800701513131261
B1302005602173N00900648EA005180056600701413164264
B1302015602172N00900613EA005180056600701113100265
B1302025602169N00900578EA005190056600701412779261
B1302035602166N00900545EA005190056800700712922255
B1302045602160N00900514EA005180056800700311999248
B1302055602152N00900485EA005170056800701411680241
B1302065602143N00900459EA005140056600702711537235
B1302075602133N00900434EA005100056300701511543229
B1302085602120N00900412EA005080056000700811626224
B1302095602107N00900391EA005040055600701111732220
B1302105602094N00900371EA005010055300700711873217
B1302115602079N00900352EA004990055000701111978215
B1302125602064N00900334EA004970054800700912060212
B1302135602049N00900317EA004970054700700012162210
B1302145602033N00900301EA004980054600701312206209
B1302155602017N00900285EA005000054700700612064209
B1302165602001N00900270EA005020055000700412156208
B1302175601986N00900255EA005070055300701511241208
B1302185601971N00900241EA005080055600700010844208
B1302195601957N00900228EA005100055900700410500208
B1302205601943N00900215EA005130056100701010253210
B1302215601930N00900201EA005150056300700010097212
B1302225601918N00900186EA005160056500700709996212
B1302235601905N00900172EA005160056500700209908212
B1302245601892N00900158EA005160056500701209873212
LLXVBATT:3.84V 130225
B1302255601880N00900144EA005160056600700309829211
B1302265601867N00900130EA005140056500701209794211
B1302275601855N00900116EA005110056400701309799211
B1302285601842N00900103EA005080056200701509979210
B1302295601829N00900089EA005030055700700709901209
B1302305601815N00900076EA004980055200700810968208
B1302315601800N00900062EA004930054700700011504206
B1302325601784N00900048EA004870054200700211973205
B1302335601767N00900034EA004840053800700212366204
B1302345601750N00900020EA004800053400700912673204
B1302355601733N00900006EA004770053000701312870203
B1302365601715N00859993EA004730052700701213083203
B1302375601696N00859979EA004690052300700213266202
B1302385601678N00859965EA004660051900700213468202
B1302395601659N00859952EA004650051500701113568201
B1302405601640N00859939EA004640051400777713613201
B1302415601621N00859926EA004640051300799913148200
B1302425601603N00859914EA004650051300799912866200
B1302435601585N00859902EA004670051300799912557200
B1302445601568N00859890EA004700051500799912268201
B1302455601550N00859878EA004720051800799912049202
B1302465601534N00859865EA004750052100799911743203
B1302475601518N00859852EA004790052400799911398205
B1302485601503N00859839EA004820052800799911065206
B1302495601488N00859826EA004850053200799910759208
B1302505601474N00859812EA004880053500799910511209
B1302515601461N00859798EA004910053800799910279210
B1302525601448N00859784EA004930054100777910034212
B1302535601435N00859770EA004940054400707509742213
B1302545601424N00859756EA004950054600701509451214
B1302555601412N00859741EA004950054600700909258215
B1302565601401N00859727EA004920054400700209119215
B1302575601390N00859714EA004870054100701309123214
B1302585601378N00859700EA004830053600700109401213
B1302595601366N00859685EA004790053100700109184212
B1303005601353N00859671EA004740052600701010192211
B1303015601340N00859657EA004710052200700210490210
B1303025601326N00859643EA004680051800701510681209
B1303035601312N00859629EA004660051600700010770208
B1303045601298N00859615EA004640051300701010776208
B1303055601284N00859602EA004610051200700910744208
B1303065601270N00859588EA004590051000700010865208
B1303075601256N00859575EA004570050800701110615208
B1303085601242N00859562EA004560050700701510540207
B1303095601228N00859549EA004540050500700410592207
B1303105601214N00859536EA004510050400700210188207
B1303115601201N00859524EA004490050200700510051206
B1303125601187N00859512EA004460049900700710007206
B1303135601174N00859500EA004450049700700910040206
B1303145601160N00859489EA004440049500701509931205
B1303155601146N00859477EA004420049300700810311205
B1303165601132N00859465EA004420049200701210136205
B1303175601118N00859452EA004410049200700210583205
B1303185601104N00859440EA004430049200700610674205
B1303195601089N00859428EA004430049300700610661205
B1303205601075N00859416EA004440049400700410652204
B1303215601060N00859404EA004450049500701210611204
B1303225601046N00859393EA004470049600701110564203
B1303235601031N00859382EA004470049800700210511201
B1303245601016N00859373EA004480049800700210505198
B1303255601002N00859365EA004490049900700810503196
B1303265600986N00859357EA004500049900701010509193
B1303275600971N00859352EA004510050000700910472189
B1303285600956N00859349EA004520050100700010474185
B1303295600940N00859347EA004540050300700110283180
B1303305600925N00859349EA004570050500700410203175
B1303315600910N00859352EA004580050700701409953169
B1303325600895N00859359EA004590050900700009664161
B1303335600882N00859369EA004600050900700209384151
B1303345600871N00859383EA004590050900701209204141
B1303355600861N00859401EA004600051000700509134129
B1303365600854N00859422EA004600051000700009134118
B1303375600849N00859445EA004650051100700609071106
B1303385600847N00859469EA004660051200700309136093
B1303395600848N00859494EA004670051500700009197079
B1303405600852N00859518EA004700051700701509466063
B1303415600861N00859539EA004700051900701409881048
B1303425600872N00859557EA004690052000700510359035
B1303435600886N00859572EA004690051900701110935024
B1303445600902N00859582EA004700051800700811554013
B1303455600920N00859586EA004710051800700212103003
B1303465600939N00859586EA004730051900700412429353
B1303475600957N00859579EA004770052200701512612344
B1303485600975N00859567EA004800052600701312675335
B1303495600992N00859550EA004830052900700812675326
B1303505601007N00859529EA004850053200701412683316
B1303515601020N00859503EA004860053400701512749307
B1303525601031N00859474EA004860053500700512755299
B1303535601039N00859443EA004860053500700112801290
B1303545601045N00859410EA004860053500700312811281
B1303555601047N00859375EA004860053400700812811272
B1303565601046N00859341EA004860053400701012764262
B1303575601042N00859307EA004870053400700112638253
B1303585601035N00859276EA004890053500700612444244
B1303595601026N00859247EA004890053600700312201234
B1304005601015N00859222EA004900053700700811906225
B1304015601001N00859201EA004920053800701111580216
B1304025600987N00859185EA004940054000701211278207
B1304035600971N00859174EA004960054100700611019197
B1304045600955N00859167EA004980054400700510809188
B1304055600939N00859165EA005000054600700310511179
B1304065600924N00859168EA005000054800701410131170
B1304075600910N00859174EA005020055000700409829160
B1304085600896N00859185EA005020055100700609606149
B1304095600885N00859201EA005020055200700309430139
B1304105600875N00859219EA005040055300701009328127
B1304115600868N00859241EA005050055300700109338116
B1304125600863N00859264EA005050055400700509390107
B1304135600859N00859289EA005070055500700009275097
B1304145600859N00859315EA005090055600701209605088
B1304155600860N00859341EA005120055900701409723079
B1304165600864N00859366EA005160056200700309832070
B1304175600870N00859391EA005190056600700109929060
B1304185600879N00859413EA005200056900701210112048
B1304195600890N00859432EA005220057100701410353037
F13041912253106293223140226
B1304205600904N00859447EA005220057100700610731027
B1304215600919N00859458EA005220057100700211254016
B1304225600936N00859464EA005230057100701411910006
B1304235600955N00859464EA005240057100700812610355
B1304245600974N00859459EA005240057200700713059346
B1304255600993N00859448EA005240057300700413300337
B1304265601011N00859431EA005250057300700313483326
B1304275601027N00859408EA005270057400701013693316
B1304285601041N00859380EA005280057500700713811306
B1304295601052N00859348EA005290057700700913806296
B1304305601059N00859313EA005310057800701313667285
B1304315601063N00859277EA005320058000700313480275
B1304325601063N00859241EA005330058100700613237266
B1304335601060N00859206EA005340058200701313001256
B1304345601054N00859173EA005370058300700312785246
B1304355601044N00859143EA005390058500701512557236
B1304365601033N00859117EA005420058700700112180224
B1304375601019N00859097EA005460059000700211710212
B1304385601003N00859084EA005490059400701211209199
B1304395600987N00859077EA005510059700700110791186
B1304405600971N00859078EA005540060000700610405172
B1304415600956N00859085EA005560060200700910209158
B1304425600943N00859098EA005570060300701510083145
B1304435600931N00859115EA005580060500701110029132
B1304445600923N00859138EA005600060600700010018118
B1304455600917N00859163EA005610060700700609931105
B1304465600915N00859189EA005650060900701409940091
B1304475600917N00859216EA005680061100701510253075
B1304485600923N00859242EA005680061400700210642056
B1304495600934N00859263EA005700061700700811139038
B1304505600949N00859279EA005710061800700011650023
B1304515600966N00859288EA005720061800700512203008
B1304525600985N00859289EA005730061800701312768355
B1304535601004N00859282EA005730061900700313166342
B1304545601023N00859268EA005740062000700013400330
B1304555601039N00859246EA005760062100700613548318
B1304565601053N00859220EA005790062300700913613307
B1304575601064N00859188EA005810062600700113535297
B1304585601072N00859155EA005820062800701213324287
B1304595601076N00859120EA005840063000700013014276
B1305005601076N00859085EA005850063100700312638264
B1305015601072N00859052EA005870063200700912369252
B1305025601065N00859022EA005890063300700412101241
B1305035601055N00858996EA005900063500701511819229
B1305045601042N00858974EA005920063600700011530218
B1305055601028N00858957EA005940063900700311272207
B1305065601012N00858946EA005960064000701411030197
B1305075600996N00858939EA005980064200701410785187
B1305085600980N00858939EA005990064400701110581177
B1305095600965N00858943EA006000064600700210338166
B1305105600950N00858952EA006020064800700310138154
B1305115600938N00858966EA006030065000700609851141
B1305125600927N00858985EA006040065100701209797126
B1305135600920N00859008EA006050065200701009892113
B1305145600916N00859034EA006060065200701110114099
B1305155600915N00859062EA006070065200700310459086
B1305165600918N00859090EA006080065200700910841073
B1305175600924N00859117EA006110065500701011196059
B1305185600935N00859142EA006130065800700311508045
B1305195600948N00859162EA006150066100700611849032
B1305205600965N00859176EA006170066300700112156020
B1305215600983N00859184EA006160066400701112447008
B1305225601002N00859186EA006170066500700512840355
B1305235601021N00859178EA006170066500701413235341
B1305245601039N00859163EA006190066500701213570329
B1305255601056N00859141EA006190066500701013982317
B1305265601070N00859113EA006200066600700714187307
B1305275601082N00859080EA006230066700701414180297
B1305285601090N00859045EA006260067000700113932286
B1305295601094N00859009EA006290067400700013591277
B1305305601095N00858972EA006310067700701013170266
B1305315601092N00858938EA006330067900701112790256
B1305325601085N00858906EA006340068000700912488245
B1305335601076N00858877EA006340068000700012255233
B1305345601063N00858853EA006340068100700912025220
B1305355601049N00858835EA006350068100700511780207
B1305365601032N00858824EA006370068300700311576196
B1305375601016N00858819EA006400068400700911315184
B1305385600999N00858819EA006420068700700211013173
B1305395600983N00858826EA006450069000700110711161
B1305405600968N00858837EA006480069300700610453149
B1305415600956N00858854EA006500069600700610231138
B1305425600946N00858875EA006540069900700210038125
B1305435600938N00858898EA006560070200700709929113
B1305445600934N00858924EA006580070500701509931098
B1305455600934N00858951EA006610070700701410062084
B1305465600937N00858978EA006610070800700610322071
B1305475600944N00859004EA006620070800701510683058
B1305485600954N00859026EA006610070800700311167044
B1305495600968N00859045EA006620070900700811791029
B1305505600985N00859058EA006620070900700112473017
B1305515601003N00859065EA006620070800701513033005
B1305525601023N00859064EA006630070800700113465353
B1305535601043N00859056EA006630070900701513772341
B1305545601063N00859041EA006650071000700513930329
B1305555601079N00859018EA006660071200700814006317
B1305565601093N00858990EA006680071400700813995305
B1305575601104N00858957EA006700071600701013943294
B1305585601111N00858922EA006710071700701313891284
B1305595601114N00858885EA006730071900700413822276
B1306005601115N00858847EA006760072000700913667268
B1306015601113N00858811EA006790072300700913331260
B1306025601108N00858777EA006810072500701112903250
B1306035601100N00858746EA006820072800700012473239
B1306045601089N00858719EA006860073000701112071228
B1306055601076N00858698EA006880073200700111719215
B1306065601061N00858684EA006910073500700711365202
B1306075601044N00858676EA006960073800701410980187
B1306085601028N00858676EA006960074100701510592172
B1306095601013N00858683EA006980074400701210238157
B1306105601000N00858697EA007010074500700510060141
B1306115600990N00858717EA007020074700700210051125
B1306125600983N00858741EA007040074900701109986109
B1306135600980N00858768EA007070075100700910086093
B1306145600981N00858795EA007100075400701310338077
B1306155600987N00858821EA007120075700701010553062
B1306165600996N00858845EA007140076000701510783047
B1306175601008N00858864EA007160076200700311102032
B1306185601024N00858877EA007160076300701411543019
B1306195601041N00858884EA007160076400700112021007
B1306205601060N00858886EA007160076400700212436358
B1306215601078N00858882EA007160076400700112807348
B1306225601097N00858872EA007180076400700913022338
B1306235601115N00858856EA007180076500700313170328
B1306245601131N00858835EA007200076600701013179318
B1306255601144N00858808EA007220076800700513250307
B1306265601155N00858778EA007240077000701513244298
B1306275601163N00858746EA007270077200700213142290
B1306285601169N00858712EA007280077400700212981283
B1306295601172N00858677EA007300077700701012746275
B1306305601173N00858644EA007320077800700412451268
B1306315601171N00858610EA007330077900700712232259
B1306325601166N00858579EA007340078000700012058250
B1306335601159N00858549EA007340078100701511865241
B1306345601149N00858523EA007340078100700611652232
B1306355601137N00858500EA007330078000700911437222
B1306365601124N00858482EA007320078000700511256212
B1306375601109N00858468EA007310077900700311004202
B1306385601093N00858459EA007310077800701210759191
B1306395601077N00858456EA007300077700701210566181
B1306405601061N00858458EA007290077700700610390170
B1306415601047N00858466EA007310077700700210198160
B1306425601033N00858477EA007320077800700710042151
B1306435601020N00858492EA007350077900700009949144
B1306445601008N00858509EA007370078100701209905138
B1306455600998N00858528EA007390078400700609897132
B1306465600988N00858549EA007410078700700609812125
B1306475600981N00858571EA007430079000701109686118
B1306485600975N00858596EA007440079200700309647109
B1306495600971N00858621EA007450079300701109686101
B1306505600969N00858647EA007460079400701309636092
B1306515600970N00858674EA007470079400700609944083
B1306525600973N00858700EA007480079400700109807072
B1306535600979N00858726EA007490079500700810577062
B1306545600988N00858751EA007500079600700610894051
B1306555600999N00858772EA007530079800701311284039
B1306565601014N00858789EA007570080000700511832026
B1306575601031N00858800EA007610080400700912205014
B1306585601049N00858805EA007630080800701312401003
B1306595601068N00858804EA007650081100700712538352
B1307005601087N00858796EA007660081400700012618341
B1307015601104N00858782EA007650081500700112788330
B1307025601120N00858762EA007640081400701413050320
B1307035601134N00858737EA007630081300700013355310
B1307045601146N00858707EA007630081000700513637299
B1307055601154N00858673EA007630080900700213843288
B1307065601159N00858637EA007610080900700013897279
B1307075601161N00858599EA007620080900700213687269
B1307085601159N00858563EA007640081000700713394259
B1307095601153N00858529EA007670081200701113096249
B1307105601145N00858497EA007690081500701412744239
B1307115601134N00858469EA007710081700700312394229
B1307125601121N00858447EA007740082000700412027218
B1307135601106N00858429EA007770082200701011673207
B1307145601090N00858418EA007790082500700811324195
B1307155601073N00858413EA007830082800700011000183
B1307165601057N00858415EA007840083000700910805172
B1307175601041N00858421EA007860083300700510626161
B1307185601027N00858433EA007870083500701510455150
B1307195601014N00858449EA007890083800700510249139
B1307205601003N00858469EA007910084000700410012130
B1307215600995N00858491EA007920084200700909881119
B1307225600989N00858515EA007920084300701109803108
B1307235600985N00858541EA007930084400700209799097
B1307245600985N00858568EA007940084400701009862087
B1307255600987N00858595EA007950084400701210075076
B1307265600991N00858621EA007970084400701210387066
LLXVBATT:3.84V 130727
B1307275600999N00858646EA007980084600700210804056
B1307285601009N00858669EA007990084800700211135047
B1307295601022N00858690EA008010085000701511508037
B1307305601037N00858707EA008030085200701511915027
B1307315601053N00858720EA008050085300700212229019
B1307325601071N00858729EA008050085400700512560011
B1307335601090N00858734EA008050085500700312835004
B1307345601110N00858734EA008040085500700213051356
B1307355601130N00858730EA008040085500700113278349
B1307365601149N00858721EA008030085400700613557341
B1307375601168N00858706EA008040085300700613833333
B1307385601186N00858687EA008050085400700113967325
B1307395601203N00858664EA008060085500700514010318
B1307405601218N00858637EA008070085600700913934311
B1307415601231N00858608EA008080085800701313808305
B1307425601242N00858576EA008090085900700213620299
B1307435601251N00858543EA008110086000701413450294
B1307445601259N00858510EA008110086100700813307288
B1307455601264N00858475EA008120086200701413148282
B1307465601267N00858440EA008120086200701512922276
B1307475601268N00858406EA008140086300700912707270
B1307485601267N00858371EA008140086300701012590264
B1307495601265N00858338EA008150086300700012516258
B1307505601260N00858305EA008150086400700712392252
B1307515601253N00858274EA008130086400700312282246
B1307525601245N00858245EA008140086400700112140240
B1307535601235N00858217EA008130086300701312010232
B1307545601223N00858194EA008120086200701111826224
B1307555601209N00858173EA008120086100700211567216
B1307565601195N00858157EA008110086100700811317207
B1307575601179N00858145EA008120086100701311202197
B1307585601163N00858139EA008120086100700211102188
B1307595601146N00858137EA008120086200700311098181
B1308005601130N00858137EA008070086000701111185177
B1308015601113N00858138EA008020085700700411504178
F130801122531293223140226
B1308025601095N00858138EA007960085300701211345181
B1308035601076N00858136EA007930084800700312718186
B1308045601057N00858132EA007890084500700213374189
B1308055601036N00858125EA007870084200700313917192
B1308065601016N00858115EA007840084000700214302195
B1308075600995N00858104EA007810083700700014688197
B1308085600974N00858091EA007790083400700215064200
B1308095600952N00858076EA007760083100701115372202
B1308105600931N00858059EA007740082800701215635205
B1308115600909N00858040EA007720082600701015863207
B1308125600888N00858020EA007690082400701515952209
B1308135600867N00857998EA007670082200700816087210
B1308145600846N00857975EA007640082000700216233212
B1308155600826N00857951EA007620081800700716330214
B1308165600805N00857926EA007610081600700716446215
B1308175600785N00857900EA007610081500701216563217
B1308185600765N00857872EA007610081400701316658219
B1308195600746N00857843EA007620081500700616747221
B1308205600728N00857812EA007610081600700116734224
B1308215600710N00857781EA007590081500701116730225
B1308225600692N00857749EA007560081300700516728226
B1308235600675N00857715EA007540081100701316845227
B1308245600658N00857682EA007530080900700416930228
B1308255600641N00857647EA007520080700700816930229
B1308265600625N00857612EA007510080600701116932230
B1308275600609N00857576EA007510080500700816973231
B1308285600593N00857540EA007520080500701517032231
B1308295600577N00857504EA007530080600700417077232
B1308305600562N00857467EA007550080800700817028233
B1308315600547N00857430EA007560081000600916984235
B1308325600533N00857392EA007580081100701316897236
B1308335600519N00857355EA007590081200600716771236
B1308345600504N00857318EA007600081400600816602234
B1308355600490N00857282EA007610081500600816402233
B1308365600475N00857246EA007610081700601416198234
B1308375600461N00857211EA007600081700701516085234
B1308385600447N00857176EA007600081600700215991234
B1308395600433N00857141EA007590081500701115887234
B1308405600419N00857107EA007580081500701315783234
B1308415600406N00857073EA007570081400701515716234
B1308425600392N00857039EA007560081200700615707234
B1308435600378N00857005EA007570081100700815746233
B1308445600364N00856970EA007620081100700415787233
B1308455600350N00856936EA007700081600700715561234
B1308465600337N00856903EA007830082500700414923235
B1308475600325N00856871EA007990083800701013739235
B1308485600313N00856843EA008050085200700312692233
B1308495600301N00856817EA008160086300700612155229
B1308505600289N00856796EA008210087000700511495218
B1308515600274N00856780EA008270087500700010883204
B1308525600259N00856772EA008300087900700110366189
B1308535600244N00856772EA008330088200700109981173
B1308545600230N00856779EA008340088500701109690155
B1308555600218N00856794EA008360088600700409643137
B1308565600209N00856815EA008360088600701109814119
B1308575600204N00856840EA008350088500700510133102
B1308585600203N00856868EA008360088500701210539084
B1308595600208N00856896EA008360088500700610978065
B1309005600217N00856921EA008390088600700311319048
B1309015600230N00856942EA008410088900700211600031
B1309025600246N00856955EA008440089100701011906017
B1309035600264N00856962EA008470089400700412095004
B1309045600283N00856961EA008480089600701212286353
B1309055600301N00856955EA008510089900701212458343
B1309065600319N00856943EA008530090100701512716334
B1309075600336N00856926EA008540090200700212959326
B1309085600352N00856905EA008540090300700013237318
B1309095600366N00856879EA008540090400701013526310
B1309105600378N00856850EA008550090400701413741303
B1309115600389N00856817EA008570090400701213915296
B1309125600397N00856783EA008580090600701113878289
B1309135600403N00856747EA008600090800700913726282
B1309145600406N00856711EA008640091100700713481275
B1309155600407N00856675EA008670091500701113183267
B1309165600405N00856640EA008710091800700912849259
B1309175600400N00856607EA008730092100701212546250
B1309185600392N00856577EA008740092300701412294241
B1309195600382N00856550EA008760092500701312006229
B1309205600369N00856528EA008780092600700011776217
B1309225600338N00856502EA008820092800700211389193
B1309245600305N00856502EA008880093300700710770168
B1309265600278N00856527EA008970094100700009986138
B1309275600268N00856547EA009010094600700409681123
B1309285600262N00856571EA009040095000701209643106
B1309295600260N00856597EA009070095400700809916089
B1309305600262N00856624EA009110095700700910231075
B1309315600267N00856650EA009110095900700110444065
B1309325600275N00856676EA009110096000701210713056
B1309335600285N00856699EA009130096000700211109046
B1309345600298N00856719EA009130096100700911669036
B1309355600313N00856736EA009150096200700612162026
B1309365600331N00856748EA009180096400700912555016
B1309375600349N00856755EA009210096600700712805007
B1309385600369N00856757EA009240096900700512944359
B1309395600389N00856755EA009260097200700513137350
B1309405600408N00856746EA009290097400701413350341
B1309415600427N00856731EA009320097600700013494332
B1309425600444N00856712EA009350097900701413502323
B1309435600459N00856687EA009370098200700213531312
B1309445600472N00856659EA009390098400700013420303
B1309455600482N00856627EA009400098600701113244295
B1309465600488N00856594EA009420098700700413107286
B1309475600492N00856559EA009430098900701012972276
B1309485600493N00856525EA009440099100700412729265
B1309505600484N00856460EA009480099400701312080246
B1309525600465N00856407EA009500099700701011658227
B1309545600437N00856369EA009510099800701311269207
B1309565600406N00856352EA009540099900701011009187
B1309585600373N00856356EA009600100400701510529167
B1310005600345N00856377EA009650101100701009990148
B1310025600322N00856413EA009670101400701209940129
B1310045600307N00856459EA009700101700701510179113
B1310065600298N00856513EA009760102100700010466097
B1310075600298N00856542EA009810102400700810629088
B1310085600299N00856571EA009840102700701210700080
B1310095600303N00856599EA009860103000701110785073
B1310105600309N00856627EA009880103300700110907064
B1310115600317N00856652EA009910103600701111044054
B1310125600328N00856675EA009930103800700811258044
B1310135600341N00856695EA009940104000700311445035
B1310145600356N00856711EA009950104100701511582026
B1310155600372N00856722EA009960104300700911763017
B1310165600390N00856729EA009970104400701411915008
B1310175600408N00856732EA009970104500700912147000
B1310185600426N00856729EA009960104500700612434352
B1310195600445N00856723EA009960104400700112707345
B1310205600464N00856712EA009970104400701212840339
B1310215600482N00856699EA009980104400701112883335
B1310225600499N00856683EA009990104500601012883331
B1310235600516N00856665EA010010104700601412875326
B1310245600532N00856645EA010030104900601512807321
B1310255600546N00856622EA010060105100700212722316
B1310265600559N00856597EA010080105300700212599311
B1310275600571N00856571EA010100105500700512470306
B1310285600582N00856543EA010090105700700812340302
B1310295600591N00856514EA010090105800701012242296
B1310315600603N00856452EA010080105700701512021283
B1310335600608N00856387EA010020105200600111977273
B1310355600606N00856321EA009980104700700812462260
B1310375600595N00856256EA009970104400600212857247
B1310395600576N00856196EA009980104600701512688231
B1310415600549N00856152EA009970104600700912130211
B1310435600515N00856129EA009980104500701211741191
B1310455600481N00856124EA010030104700700611463179
B1310475600446N00856125EA010110105400700711191180
B1310495600413N00856123EA010150106100701510924184
B1310515600381N00856117EA010200106700701510787185
B1310535600348N00856112EA010210107000700110705185
B1310555600316N00856106EA010190107000701210598187
B1310575600284N00856098EA010180106800700810839190
B1310595600252N00856087EA010210106800700011230192
B1311015600218N00856073EA010250107200700011443193
B1311035600185N00856058EA010280107600701211537195
B1311055600153N00856044EA010320107900701311524191
F13110512253129322314020626
B1311075600121N00856038EA010350108300701410183180
B1311095600092N00856046EA010340108500700709553161
B1311115600068N00856071EA010340108400900109297138
B1311135600051N00856111EA010320108200900909417116
B1311155600044N00856161EA010280108000901309729090
B1311175600050N00856214EA010150107400901210364068
B1311195600066N00856265EA010020106000901311439052
B1311215600092N00856313EA009900104500901013135040
B1311235600125N00856357EA009810103500900513985033
B1311255600162N00856397EA009750102800901414558027
B1311275600202N00856430EA009700102200901114860022
B1311295600244N00856459EA009670101900900915010018
B1311315600288N00856481EA009640101400700115222013
B1311335600334N00856496EA009610101200901515366008
B1311355600380N00856505EA009580100900900315462004
B1311375600427N00856510EA009560100700900415557001
B1311385600450N00856510EA009550100500900015590000
B1311395600474N00856510EA009540100400700215588359
B1311405600497N00856509EA009530100300901115538358
B1311415600521N00856508EA009530100200900115529358
B1311425600544N00856506EA009530100100900215438357
B1311435600567N00856504EA009540100200700115296355
B1311445600590N00856500EA009550100300900515159353
B1311465600635N00856488EA009530100300900215018351
B1311485600680N00856474EA009510100100701515068348
B1311505600724N00856454EA009500099800701415116343
B1311525600767N00856426EA009510099900900614977336
B1311545600806N00856389EA009500099900900514819327
B1311565600841N00856340EA009490099900900414536316
B1311585600869N00856280EA009460099600900014486303
B1312005600888N00856210EA009450099400900114616288
B1312025600897N00856132EA009450099500901314677273
B1312045600894N00856053EA009450099400901514632260
B1312065600882N00855977EA009450099400901114797248
B1312085600862N00855905EA009470099600901014764239
B1312105600837N00855838EA009480099800900114769234
B1312125600810N00855775EA009460099900700814708231
B1312145600782N00855713EA009440099600901314766230
B1312165600754N00855651EA009440099400900615003231
B1312185600726N00855587EA009470099700900915034234
B1312205600701N00855520EA009470099800900715084237
B1312225600677N00855451EA009470099800900015127239
B1312245600653N00855381EA009490099900900615110239
B1312265600630N00855311EA009530100300900514868239
B1312285600607N00855244EA009570100700900114358236
LLXVBATT:3.84V 131229
B1312305600581N00855185EA009580101000900113680227
B1312325600551N00855138EA009590101000900213152213
B1312345600516N00855109EA009600101200900012681196
B1312365600479N00855100EA009600101300901212212180
B1312385600444N00855110EA009560101100901411684163
B1312405600412N00855137EA009510100600901311413146
B1312425600386N00855178EA009430100000901511537134
B1312445600363N00855227EA009380099300900911901127
B1312465600342N00855281EA009330098900901212234123
B1312485600323N00855338EA009310098600900312438120
B1312505600304N00855398EA009340098600901412709117
B1312525600287N00855460EA009380099000901312735116
B1312545600269N00855522EA009380099200900512825116
B1312565600253N00855585EA009390099300900812888114
B1312585600237N00855649EA009370099200900412998115
B1313005600220N00855712EA009330098900900713027116
B1313025600202N00855776EA009300098600900713083116
B1313045600184N00855840EA009270098100901013350115
B1313065600166N00855905EA009240097800900313426116
B1313085600148N00855970EA009210097600700813444117
B1313105600130N00856034EA009200097400701313418118
B1313125600110N00856097EA009160097200700213303119
B1313145600090N00856159EA009130096900701313342120
B1313165600069N00856221EA009100096500700213342121
B1313185600048N00856282EA009090096300700313496121
B1313205600026N00856344EA009080096300901013300122
B1313225600005N00856404EA009060096200900913172122
B1313245559983N00856463EA009010095700900313374123
B1313265559961N00856523EA008960095200901213611123
B1313285559938N00856585EA008930094800900113787123
B1313305559916N00856647EA008910094600900313832122
B1313315559905N00856679EA008910094600900513795122
B1313325559894N00856710EA008900094600900513724121
B1313335559883N00856741EA008900094500900113689121
B1313345559872N00856772EA008890094400900713689121
B1313355559861N00856803EA008880094400900613682122
B1313365559850N00856834EA008870094300901113682122
B1313375559839N00856865EA008850094100700513672121
B1313385559828N00856896EA008850094100900713576121
B1313395559818N00856927EA008850094000901413613121
B1313405559807N00856958EA008840094000900513417122
B1313415559796N00856988EA008840093900900513365122
B1313425559786N00857019EA008840093900901513379121
B1313435559775N00857049EA008840093900900013329121
B1313445559765N00857079EA008840093900700813292121
B1313455559755N00857109EA008850093900700813252121
B1313465559744N00857139EA008860094000700813240122
B1313475559734N00857168EA008870094100900013059122
B1313485559724N00857198EA008880094300701212966120
B1313495559714N00857228EA008880094300701412953119
B1313505559704N00857258EA008880094300701212962119
B1313515559694N00857288EA008870094300701112907120
B1313525559684N00857318EA008870094200700112887120
B1313535559674N00857348EA008880094200800912901120
B1313545559664N00857378EA008880094300801012912121
B1313555559654N00857408EA008890094400801112920122
B1313565559643N00857438EA008910094500701212933124
B1313575559632N00857467EA008930094600700712955125
B1313585559620N00857495EA008940094800700012972125
B1313595559609N00857524EA008950094900700412983126
B1314005559597N00857552EA008960095000700912994127
B1314015559585N00857580EA008970095100700213007127
B1314025559573N00857608EA008980095200900113135127
B1314035559561N00857636EA008990095300700713146127
B1314045559549N00857663EA008990095400800413183127
B1314055559537N00857691EA009010095500800513224127
B1314065559525N00857719EA009020095600801313263127
F131406122531292314020626
B1314075559512N00857747EA009030095700801113335127
B1314085559500N00857775EA009040095800800113346128
B1314095559488N00857803EA009060095900800713359129
B1314105559475N00857831EA009090096100801013355130
B1314115559462N00857857EA009140096400701313376132
B1314125559448N00857883EA009220096900701413357133
B1314135559435N00857907EA009280097600801012507133
B1314145559422N00857931EA009380098400800611828132
B1314155559411N00857954EA009470099400800611107131
B1314165559400N00857975EA009550100300801410464130
B1314175559390N00857996EA009610101000700209892127
B1314185559383N00858018EA009640101500801009443118
B1314195559377N00858041EA009680101900800109117106
B1314205559375N00858064EA009700102200801108971094
B1314215559376N00858088EA009710102400800709000082
B1314225559379N00858112EA009720102500800809182070
B1314235559385N00858134EA009700102500800109503058
B1314245559394N00858154EA009680102300800509944046
B1314255559406N00858172EA009660102100800610440035
B1314265559420N00858186EA009640101800800711043025
B1314275559436N00858197EA009610101600801111665016
B1314285559454N00858203EA009600101300800412136009
B1314295559472N00858207EA009600101100800412497002
B1314305559491N00858206EA009620101000800112727356
B1314315559511N00858202EA009620101200801012725350
B1314325559529N00858194EA009680101500800212501343
B1314335559547N00858182EA009710101800800712321336
B1314345559564N00858166EA009740102200800112208329
B1314355559579N00858147EA009770102600801312167322
B1314365559593N00858125EA009790102900800812106315
B1314375559605N00858100EA009810103100800912095308
B1314385559616N00858073EA009830103300800312129302
B1314395559625N00858044EA009850103400801412160296
B1314405559632N00858013EA009860103600800612227290
B1314415559638N00857982EA009880103800801512269285
B1314425559642N00857949EA009900104000801312262279
B1314435559645N00857916EA009910104100800912229273
B1314445559644N00857882EA009920104300700512227266
B1314455559642N00857849EA009940104400701112232259
B1314465559638N00857817EA009960104500700012227253
B1314475559631N00857786EA009990104700800012023247
B1314485559623N00857757EA010000104900800511888240
B1314495559614N00857731EA010010105100800611693233
B1314505559602N00857707EA010030105300800511500226
B1314515559590N00857686EA010060105500901111304218
B1314525559576N00857669EA010060105600900511137210
B1314535559561N00857655EA010070105700901510928203
B1314545559546N00857646EA010070105800900910737194
B1314555559530N00857641EA010090105800800510602186
B1314565559514N00857640EA010080105800801210501178
B1314575559499N00857643EA010110105900801010398168
B1314585559484N00857651EA010130106000800710287159
B1314595559470N00857663EA010140106100801510214149
B1315005559457N00857679EA010150106300800710036138
B1315015559447N00857699EA010160106500800709953126
B1315025559440N00857722EA010160106500800809955112
B1315035559436N00857749EA010160106500800010144097
B1315045559436N00857776EA010170106600801210353083
B1315055559440N00857804EA010180106600800710539068
B1315065559448N00857829EA010190106700801210742054
B1315075559459N00857850EA010200106800801210989041
B1315085559473N00857867EA010200107000801311326027
B1315095559489N00857878EA010200107000800611652015
B1315105559506N00857884EA010200107000800511964004
B1315115559524N00857883EA010190107000800712249355
B1315125559543N00857878EA010190106900801112534346
B1315135559561N00857868EA010190106900800212766338
B1315145559579N00857852EA010200106900801112983329
B1315155559595N00857832EA010220107000800513146321
B1315165559610N00857808EA010250107200800413274313
B1315175559622N00857780EA010270107400801313389304
B1315185559633N00857749EA010320107700800313276297
B1315195559641N00857716EA010390108101100613092292
B1315205559648N00857683EA010410108600801112866287
B1315215559652N00857649EA010440109100801112579280
B1315225559654N00857616EA010490109500800412303271
B1315235559653N00857583EA010510109900800612030262
B1315245559649N00857551EA010520110200800411793253
B1315255559643N00857522EA010540110300900911567244
B1315265559634N00857495EA010550110400800711369235
B1315275559623N00857472EA010560110500900911143224
B1315285559611N00857453EA010550110600901210900213
B1315295559596N00857440EA010550110600801410665201
B1315305559581N00857433EA010550110500800310539189
B1315315559565N00857431EA010550110500800810464176
B1315325559550N00857436EA010570110600800410368162
B1315335559536N00857448EA010580110700800010299149
B1315345559524N00857465EA010610110900801310131136
B1315355559514N00857486EA010640111100800009892121
B1315365559508N00857510EA010650111300801409753106
B1315375559506N00857536EA010650111500801009788091
B1315385559507N00857563EA010660111500800810105076
B1315395559513N00857589EA010660111500801210626062
B1315405559522N00857613EA010630111400800511196049
B1315415559535N00857634EA010630111300800211758035
B1315425559551N00857650EA010620111200800812390022
B1315435559569N00857659EA010620111100800513064008
B1315445559589N00857660EA010630111100800813524355
B1315455559609N00857652EA010660111200801313804342
B1315465559628N00857637EA010700111500800013900329
B1315475559645N00857614EA010750111800801013861317
B1315485559659N00857587EA010760112200800513791306
B1315495559670N00857555EA010790112500800313674297
B1315505559678N00857521EA010810112800801113505288
B1315515559683N00857486EA010830113100800513346279
B1315525559684N00857450EA010850113300801313218269
B1315535559682N00857415EA010870113500800912994259
B1315545559677N00857381EA010870113600800412722248
B1315555559668N00857351EA010880113700900512466237
B1315565559657N00857325EA010890113700900412212225
B1315575559642N00857305EA010900113800900811984211
B1315585559626N00857292EA010910113900800611741198
B1315595559609N00857286EA010910114000801011543185
B1316005559592N00857286EA010920114100800111326173
B1316015559576N00857293EA010940114200800611126160
B1316025559561N00857306EA010960114300800210924147
B1316035559548N00857325EA010990114500800210672135
B1316045559538N00857347EA011030114800800410392121
B1316055559532N00857372EA011060115200801510207107
B1316065559529N00857399EA011080115500801510110093
B1316075559530N00857427EA011100115800801110118079
B1316085559534N00857453EA011100116000801010299066
B1316095559542N00857478EA011100116000800910622054
B1316105559553N00857499EA011090115900800111107041
B1316115559567N00857518EA011080115700800211689029
B1316125559583N00857531EA011050115500800712210019
B1316135559602N00857539EA011060115400800312666008
B1316145559621N00857540EA011050115300800113157356
B1316155559641N00857534EA011060115300800813589346
B1316165559661N00857522EA011070115300800913811336
B1316175559679N00857504EA011100115500800813919326
B1316185559695N00857481EA011130115800801213956316
B1316195559709N00857453EA011150116100800413891307
B1316205559720N00857422EA011190116400800813669297
B1316215559728N00857388EA011210116700800013394286
B1316225559731N00857352EA011230117000800913126274
B1316235559731N00857317EA011250117200800612899262
B1316245559727N00857284EA011250117300801412688251
B1316255559719N00857253EA011250117300900812379239
B1316265559708N00857227EA011260117400900811980227
B1316275559695N00857206EA011280117500901411556215
B1316285559679N00857192EA011280117600801511235201
B1316295559663N00857184EA011290117600801111024188
B1316305559647N00857183EA011280117700801210917177
B1316315559631N00857187EA011290117700800210729165
B1316325559616N00857198EA011300117800800210602153
B1316335559603N00857214EA011320117900801010453140
B1316345559592N00857234EA011330118000900610448128
B1316355559583N00857258EA011340118200900510438116
B1316365559578N00857284EA011350118300900310448104
B1316375559575N00857312EA011360118400900110576092
B1316385559576N00857341EA011370118400900610813080
B1316395559580N00857370EA011370118500900711085068
B1316405559588N00857397EA011380118500900211293057
B1316415559599N00857421EA011380118600901011523046
B1316425559612N00857441EA011390118700901411791034
B1316435559628N00857457EA011380118700900412097022
B1316445559645N00857466EA011370118700900912494010
B1316455559664N00857469EA011360118500901112862359
B1316465559684N00857465EA011360118400900713337349
B1316475559704N00857456EA011360118300900313737339
B1316485559723N00857440EA011380118300901514030330
B1316495559740N00857419EA011400118500901414080321
B1316505559756N00857393EA011430118700901214045313
B1316515559770N00857364EA011470119100900013921305
B1316525559780N00857332EA011510119500900713639297
B1316535559788N00857298EA011530119900900113372286
B1316545559792N00857263EA011540120200900013124275
B1316555559792N00857228EA011560120400900112807264
B1316565559788N00857195EA011560120500901512512253
B1316575559781N00857164EA011570120600901412249242
B1316585559771N00857136EA011560120600900212017231
B1316595559759N00857113EA011550120600901411758221
B1317005559745N00857095EA011540120500901211473211
B1317015559730N00857081EA011530120300901311226201
B1317025559714N00857073EA011520120200900711126190
B1317035559697N00857070EA011510120000901511117181
B1317045559680N00857072EA011510119900900911106172
B1317055559664N00857078EA011510119900900811022164
B1317065559648N00857087EA011520120000900010948158
B1317075559634N00857100EA011540120100901510891152
F1317071225312923140226
B1317085559619N00857115EA011550120200900110928147
B1317095559606N00857132EA011560120400901010994143
B1317105559593N00857151EA011570120600901310846139
B1317115559581N00857171EA011590120800900010802134
B1317125559570N00857193EA011600120900900110839127
B1317135559561N00857217EA011610121100900010676120
B1317145559554N00857243EA011630121200900410553112
B1317155559549N00857270EA011630121300900310400104
B1317165559547N00857297EA011650121400900510205094
B1317175559547N00857325EA011660121600900610070086
B1317185559548N00857352EA011640121600900109999082
B1317195559550N00857379EA011600121500900909929083
B1317205559551N00857405EA011550121100900909940087
B1317215559551N00857433EA011490120600901409877094
B1317225559548N00857460EA011400120000901310563101
B1317235559544N00857488EA011350119300901011087108
B1317245559538N00857517EA011280118600900011608114
B1317255559529N00857545EA011220118000901212182119
B1317265559520N00857573EA011160117300900512197121
B1317275559510N00857601EA011090116700900812618125
B1317285559498N00857629EA011060116200900113166129
B1317295559484N00857656EA011020115700901013646133
B1317305559470N00857682EA011000115400900714097137
LLXVBATT:3.84V 131731
B1317315559453N00857707EA010980115200900614317139
B1317325559437N00857732EA010940114900901514447140
B1317335559420N00857756EA010920114600900414614142
B1317345559402N00857781EA010890114400900214821143
B1317355559384N00857804EA010850114100901114947143
B1317365559365N00857828EA010820113700900715075144
B1317375559346N00857852EA010800113400900215222144
B1317385559328N00857876EA010790113200800615318145
B1317395559308N00857899EA010780113100800615392145
B1317405559289N00857922EA010760113000801115455146
B1317415559270N00857945EA010750112800901015498147
B1317425559250N00857968EA010730112700900615538148
B1317435559229N00857989EA010720112600800315566149
B1317445559209N00858010EA010700112400801315527150
B1317455559189N00858031EA010680112200800915577150
B1317465559168N00858052EA010660112000800015587150
B1317475559147N00858072EA010630111700800715796151
B1317485559126N00858093EA010620111600800015839152
B1317495559105N00858112EA010610111400800715868152
B1317505559084N00858132EA010600111300800115861152
B1317515559063N00858152EA010600111200800915850151
B1317525559042N00858172EA010590111200800815898151
B1317535559021N00858192EA010590111200801115650151
B1317545559000N00858212EA010580111200800515529150
B1317555558980N00858233EA010570111100801215377150
B1317565558960N00858253EA010560111000800615370149
B1317575558940N00858274EA010550110900800115286149
B1317585558920N00858295EA010540110800800815259148
B1317595558901N00858316EA010530110700600715131147
B1318005558881N00858338EA010520110600601415066147
B1318015558862N00858359EA010510110500600714957147
B1318025558843N00858381EA010490110300600314903147
B1318035558823N00858402EA010480110200600414860147
B1318045558804N00858423EA010460110000600014827146
B1318055558785N00858445EA010460109800600914795146
B1318065558767N00858467EA010450109700601314767145
B1318075558749N00858490EA010460109700600014584144
B1318085558731N00858513EA010460109700600914517144
B1318095558713N00858535EA010470109800601014506144
B1318105558695N00858557EA010480109800600614499144
B1318115558677N00858580EA010490109900600214462144
B1318125558659N00858602EA010500110000600314447144
B1318135558641N00858625EA010500110100600814436144
B1318145558623N00858647EA010510110100600114427144
B1318155558606N00858669EA010500110200601314408144
B1318165558588N00858691EA010500110100600314232145
B1318175558570N00858713EA010490110100601114197145
B1318185558553N00858735EA010480110000601014189145
B1318195558535N00858756EA010470109800600214182145
B1318205558518N00858778EA010450109700601414143145
B1318215558500N00858799EA010430109500600914108144
B1318225558483N00858821EA010400109400600514104145
B1318235558466N00858842EA010390109100601514104145
B1318245558448N00858864EA010360108900600614102145
B1318255558430N00858885EA010340108700600714102145
B1318265558413N00858906EA010310108400600714098145
B1318275558395N00858928EA010280108100601114095145
B1318285558378N00858949EA010250107900601114045145
B1318295558361N00858971EA010230107600600314032144
B1318305558343N00858992EA010200107300600914002144
B1318315558326N00859014EA010180107000601514000144
B1318325558309N00859035EA010170106800600013971144
B1318335558293N00859057EA010160106700600713934143
B1318345558276N00859078EA010160106600600413376143
B1318355558260N00859099EA010150106500600813270144
B1318365558244N00859120EA010150106500600613192144
B1318385558212N00859159EA010150106500600113113146
B1318405558179N00859198EA010140106400600413064146
B1318425558146N00859237EA010140106500600113018145
B1318445558114N00859275EA010140106500600112770146
B1318465558082N00859311EA010110106300600112710148
B1318485558049N00859348EA010060105900600512651148
B1318505558016N00859385EA010030105500601213257147
B1318525557982N00859423EA010020105200600813557148
B1318545557947N00859461EA010030105200600413702148
B1318565557912N00859498EA010080105500601113772150
B1318585557876N00859530EA010140106100601113374156
B1319005557838N00859554EA010200106600600413107162
B1319025557801N00859573EA010290107400601512614165
B1319045557765N00859587EA010370108200600312038168
B1319065557731N00859599EA010470109200601211143167
B1319085557700N00859615EA010550110200600510294157
B1319105557674N00859642EA010550110500600810022141
B1319125557654N00859683EA010580110300600410594122
B1319145557643N00859736EA010610110600601410533098
B1319165557645N00859791EA010630110900601210374075
B1319185557658N00859842EA010620110900600110703054
B1319205557683N00859882EA010620110800600811298032
B1319225557715N00859904EA010630110800600911958011
B1319245557752N00859905EA010630110800600612310351
B1319265557788N00859882EA010610110600601012716330
B1319285557818N00859837EA010570110300600613113309
B1319305557837N00859775EA010550110000600113124290
B1319325557847N00859705EA010560109900600013090278
B1319345557851N00859635EA010560110100601412887270
B1319365557849N00859566EA010570110100601512788264
B1319385557844N00859497EA010590110300600612657257
B1319405557833N00859432EA010620110500600912369249
B1319425557817N00859372EA010660110800600112060240
B1319445557797N00859320EA010690111200600511726230
B1319465557772N00859276EA010710111500600111413218
B1319485557743N00859243EA010740111800601511150205
B1319505557712N00859224EA010760112000601510898192
B1319525557680N00859220EA010790112100600410716175
B1319545557649N00859234EA010820112400600210240155
B1319565557625N00859265EA010840112700601509621134
B1319585557611N00859308EA010870112900601309310104
B1320005557613N00859358EA010860113000601509499069
B1320025557631N00859400EA010820112700601010431037
B1320045557661N00859424EA010790112100601311812011
B1320065557698N00859423EA010810112100601112625349
B1320085557734N00859400EA010850112500601012720330
F13200812253121292314020526
B1320105557764N00859357EA010900113000600212755312
B1320125557786N00859301EA010960113500601312503297
B1320145557799N00859238EA011010114200600712245283
B1320165557804N00859173EA011070114700600812119269
B1320185557799N00859108EA011120115100600112030255
B1320205557785N00859048EA011140115600600212073242
B1320225557765N00858996EA011160115900601011834224
B1320245557736N00858961EA011160115800601211521204
B1320265557703N00858946EA011150115600601211250184
B1320285557669N00858952EA011160115600600510983162
B1320305557642N00858980EA011200115900601410331139
B1320325557623N00859023EA011220116300601409673115
B1320345557617N00859073EA011230116500601109486087
B1320365557625N00859123EA011230116500601509884059
B1320385557646N00859163EA011230116400600410566034
B1320405557676N00859185EA011240116400600411133011
B1320425557710N00859186EA011240116500600611434351
B1320445557744N00859168EA011240116400601311823334
B1320465557774N00859131EA011240116400600812429317
B1320485557799N00859078EA011250116400601212996301
B1320505557815N00859012EA011280116600601213530288
B1320525557826N00858941EA011330117200601013726281
B1320545557833N00858868EA011400117700600013837279
B1320565557838N00858796EA011460118400600613365271
B1320585557833N00858726EA011500118900600613085253
B1321005557815N00858664EA011520119100600512731232
B1321025557787N00858620EA011550119100600812344210
B1321045557753N00858601EA011580119400600511928183
B1321065557719N00858612EA011620119900600610880154
B1321085557696N00858649EA011650120300600610031122
B1321105557688N00858700EA011640120400600709719087
B1321125557698N00858750EA011630120400600510153055
B1321145557721N00858788EA011610120200600210928028
B1321165557754N00858804EA011610120100601511760002
B1321185557789N00858794EA011630120200600912262339
B1321205557822N00858760EA011650120400600112788321
B1321225557850N00858710EA011700120800600113107307
B1321245557871N00858650EA011730121200600613163296
B1321265557885N00858583EA011770121600601413216285
B1321285557893N00858513EA011800122000601513177276
B1321305557894N00858442EA011800122000600013228266
B1321325557887N00858372EA011780121900600213124254
B1321345557872N00858308EA011780121800601312670240
B1321365557849N00858256EA011780121900600011856222
B1321385557820N00858225EA011780122000601510963200
B1321405557789N00858216EA011780122000600210337177
B1321425557759N00858229EA011760121800600310240157
B1321445557733N00858259EA011740121500601110283137
B1321465557714N00858303EA011750121500601410257117
B1321485557704N00858355EA011760121500600810173100
B1321505557702N00858411EA011770121700601310222086
B1321525557707N00858466EA011780121800601310097075
B1321545557717N00858517EA011790121900600110046064
B1321565557732N00858563EA011790122000601509851054
B1321585557752N00858603EA011790122100601009933044
B1322005557774N00858639EA011780122100600010040038
B1322025557799N00858673EA011750121900601510401038
B1322045557823N00858709EA011720121500600810800041
B1322065557848N00858749EA011680121000600111285043
B1322085557872N00858793EA011660120800601411713046
B1322105557896N00858840EA011660120700600011936049
B1322125557919N00858890EA011680120900601212051052
B1322145557940N00858942EA011710121200600511558056
B1322165557958N00858994EA011730121500601011082062
B1322185557971N00859047EA011750121600600810800068
B1322205557982N00859101EA011750121700600110661072
B1322225557991N00859156EA011710121400601010605075
B1322245557999N00859213EA011670120900600711011075
B1322265558007N00859271EA011650120500601011263076
B1322285558014N00859330EA011640120400600211291079
B1322305558020N00859390EA011630120200600711250081
B1322325558024N00859449EA011640120300600710965082
LLXVBATT:3.85V 132233
B1322345558029N00859506EA011670120700600510607080
B1322365558035N00859561EA011680121000600510266079
B1322385558040N00859615EA011670120800601510183080
B1322405558045N00859669EA011650120600600710164079
B1322425558051N00859724EA011580120300600310581076
B1322445558060N00859780EA011510119600601011198071
B1322465558074N00859837EA011460118900600811988065
B1322475558081N00859867EA011430118600600012255063
B1322485558090N00859896EA011420118500600612390062
B1322495558099N00859926EA011410118400601112464061
B1322505558108N00859955EA011410118300601412457060
B1322515558117N00859984EA011400118300601512603060
B1322525558126N00900013EA011370118200601512510060
B1322535558136N00900042EA011340118000600312584060
B1322545558145N00900071EA011310117700600212599060
B1322555558154N00900102EA011280117400601512627061
B1322565558164N00900132EA011260117100600713072061
B1322575558173N00900163EA011210116800601013259062
B1322585558182N00900195EA011190116500601013439063
B1322595558191N00900227EA011160116100600913543065
B1323005558199N00900261EA011140115700600513626068
B1323015558206N00900296EA011150115700601113720070
B1323025558212N00900331EA011160115700601213670073
B1323035558217N00900366EA011170115900600713620076
B1323045558222N00900401EA011180116000601013693078
B1323055558225N00900437EA011190116100600813441080
B1323065558228N00900472EA011180116100600613368082
B1323075558230N00900508EA011180116100600913329085
B1323085558231N00900543EA011180116100601013224088
B1323095558231N00900578EA011170116100600913209092
B1323105558230N00900613EA011170116000600013133095
B1323115558227N00900647EA011160116000601412710099
B1323125558223N00900680EA011150116000600412557103
B1323135558218N00900712EA011150115900600212453107
B1323145558212N00900744EA011140115800600312381111
B1323155558204N00900774EA011130115700601412345116
B1323165558195N00900803EA011120115600600612340120
B1323175558186N00900831EA011090115500600212345123
B1323185558175N00900858EA011090115300601512403125
B1323195558163N00900885EA011070115200600812436129
B1323205558151N00900910EA011070115100600412468133
B1323215558137N00900933EA011060115100600412499136
B1323225558123N00900955EA011060115100600412533139
B1323235558109N00900976EA011050115000600512527143
B1323245558093N00900995EA011040114900600912540147
B1323255558077N00901013EA011030114800600912557149
B1323265558060N00901029EA011040114700600512570152
B1323275558043N00901044EA011070114800601112827155
B1323285558025N00901057EA011090115000601513168158
B1323295558007N00901069EA011130115400601012720158
B1323305557989N00901081EA011180115900600512268159
B1323315557972N00901092EA011220116300601011956161
B1323325557955N00901101EA011280116800600911686162
B1323345557922N00901119EA011360117600600711057162
B1323365557891N00901139EA011420118300601510338152
B1323385557868N00901171EA011500118800601409745130
B1323405557855N00901216EA011560119500600709521104
B1323425557855N00901266EA011590120000601509682075
B1323445557870N00901311EA011580120100600010099046
B1323465557896N00901341EA011530119800600710716022
B1323485557929N00901352EA011460119000600211923359
B1323495557948N00901347EA011430118600601312610347
B1323505557966N00901336EA011430118300600713109336
B1323515557984N00901319EA011410118200600813602327
B1323525558001N00901297EA011440118200600913759318
B1323535558015N00901270EA011440118300600913795310
B1323545558028N00901241EA011480118500600813672303
B1323555558039N00901209EA011500118800600813441298
B1323565558047N00901176EA011520119100601113200293
B1323575558055N00901142EA011530119200600112990287
B1323585558059N00901108EA011530119300601012779280
B1323595558062N00901074EA011540119300601312590272
B1324005558061N00901040EA011540119400600412436263
B1324015558058N00901007EA011540119400601012256255
B1324025558051N00900976EA011550119400601212138246
B1324035558043N00900947EA011540119500600612067236
B1324045558032N00900922EA011540119500600911986227
B1324055558019N00900899EA011550119600600511873219
B1324065558004N00900881EA011560119600600811814211
B1324075557988N00900866EA011570119700600111637203
B1324085557972N00900855EA011580119700600011411196
B1324095557955N00900849EA011580119800601411189188
B1324115557922N00900847EA011620120100600510772175
B1324135557891N00900858EA011650120400600710246161
B1324155557864N00900881EA011680120700601509681146
B1324175557843N00900915EA011680121000600609330129
B1324195557829N00900958EA011710121200600109341112
B1324215557821N00901008EA011740121300601009625095
B1324235557823N00901061EA011780121700601209742076
B1324255557835N00901109EA011820122100600809781056
B1324275557855N00901147EA011800122300600410144033
B1324295557885N00901166EA011780122100600011122008
B1324315557920N00901170EA011700121300601111941001
B1324335557956N00901174EA011630120600600912295008
B1324345557974N00901181EA011610120400800312512014
F132434122531212914020526
B1324355557992N00901191EA011610120300901212607019
B1324365558010N00901204EA011610120300900612642024
B1324375558027N00901220EA011580120100901512655029
B1324385558043N00901237EA011560119900600412740033
B1324395558059N00901257EA011540119700600412959036
B1324405558075N00901279EA011520119500600413027039
B1324415558090N00901302EA011510119300900513090042
B1324425558104N00901326EA011500119100601413179044
B1324435558118N00901351EA011500119100600913164045
B1324445558132N00901377EA011500119200600213059045
B1324455558145N00901402EA011510119300601312950046
B1324465558159N00901427EA011510119300600512898047
B1324475558172N00901453EA011490119200600812888049
B1324485558184N00901480EA011480119100600012881050
B1324495558196N00901507EA011450119000601212879051
B1324505558208N00901534EA011430118900600712887053
B1324515558220N00901562EA011400118600600412875054
B1324525558231N00901591EA011360118200601312898055
B1324535558242N00901620EA011330117900600513298056
B1324545558253N00901651EA011290117500601213509057
B1324555558264N00901682EA011250117100601313402058
B1324565558274N00901714EA011220116800601413922059
B1324575558285N00901746EA011200116400601314111059
B1324585558296N00901780EA011180116200601314230060
B1324595558306N00901813EA011180116200601414317060
B1325005558317N00901847EA011170116100600214347061
B1325015558327N00901881EA011160116000600814356061
B1325025558338N00901915EA011150115900600814360061
B1325035558348N00901948EA011150115800600414364061
B1325045558358N00901982EA011140115800601314375061
B1325055558368N00902017EA011140115700601414319062
B1325065558378N00902050EA011130115600600614310061
B1325075558388N00902084EA011130115600600714176062
B1325085558398N00902118EA011130115600600314076062
B1325095558408N00902151EA011130115600601113978062
B1325105558418N00902184EA011120115600601113898061
B1325115558428N00902217EA011120115500600813811061
B1325125558437N00902249EA011110115500600313802061
B1325135558447N00902282EA011100115400601113804060
B1325145558457N00902314EA011100115300601513745060
B1325155558468N00902346EA011100115200601413737060
B1325165558478N00902378EA011100115200601513639059
B1325175558488N00902409EA011100115300600313524059
B1325185558498N00902440EA011110115300600613511059
B1325195558509N00902471EA011100115300601513420059
B1325205558519N00902502EA011090115300601113409058
B1325215558530N00902532EA011080115200601013355057
B1325225558540N00902562EA011070115000600513339057
B1325235558551N00902592EA011060114900600413278057
B1325245558562N00902623EA011040114800600813229058
B1325255558572N00902653EA011020114700600413263058
B1325265558582N00902683EA011000114500601013296058
B1325275558593N00902713EA010960114200600313263057
B1325285558604N00902744EA010940113900601313279057
B1325295558615N00902774EA010920113600600413676056
B1325305558626N00902805EA010900113400601013809056
B1325315558638N00902836EA010880113300601413822057
B1325325558649N00902867EA010870113100601113832057
B1325335558660N00902898EA010860112900600613935057
B1325345558671N00902929EA010850112900600113976057
B1325355558682N00902961EA010850112800600113713058
B1325365558692N00902992EA010850112800601313785058
B1325375558703N00903023EA010840112800600713730058
B1325385558713N00903055EA010830112800600213735060
B1325395558723N00903086EA010820112600600913522061
B1325405558732N00903119EA010800112500601113417064
B1325415558741N00903151EA010800112300600813359066
B1325425558748N00903184EA010790112300601413370068
B1325435558756N00903218EA010790112200600713315069
B1325445558762N00903252EA010790112200601213455071
B1325455558768N00903286EA010790112200600913387074
B1325465558773N00903321EA010780112100600013279077
B1325475558777N00903356EA010770112000601513246080
B1325485558779N00903391EA010760111900700013211083
B1325495558781N00903426EA010760111800600613215088
B1325505558780N00903461EA010770111800600612925093
B1325515558778N00903495EA010790112000801412801099
B1325525558774N00903528EA010820112200801212683104
B1325535558768N00903560EA010830112400701312560109
B1325545558761N00903591EA010850112600800812501114
B1325555558752N00903621EA010880112800800012449119
B1325565558742N00903649EA010890113000800812405123
B1325575558731N00903676EA010910113200800712366128
B1325585558719N00903700EA010920113300800912338133
B1325595558706N00903723EA010950113500601512318137
B1326005558691N00903744EA010970113700600612295142
B1326015558676N00903763EA011000114000600412275145
B1326025558661N00903781EA011050114300600712012147
B1326035558646N00903797EA011090114700601511927150
B1326045558630N00903812EA011140115200601411621150
B1326055558615N00903828EA011190115800601511695147
B1326065558601N00903845EA011240116300601110909143
B1326075558589N00903863EA011310116900600210596138
B1326085558578N00903882EA011360117400600810212130
B1326095558569N00903904EA011410118000600009960120
B1326105558563N00903928EA011470118700600509692105
B1326115558561N00903953EA011520119100601209771088
B1326125558562N00903979EA011570119700600409377077
B1326135558567N00904001EA011590120000600009364059
B1326145558576N00904021EA011630120400600509553042
B1326155558588N00904035EA011640120600601410012026
B1326165558603N00904043EA011660120700601010603012
B1326175558619N00904046EA011670120700600211272000
B1326185558636N00904042EA011670120800600111932348
B1326195558654N00904031EA011670120700600212533336
B1326205558671N00904014EA011650120700600813129326
B1326215558686N00903991EA011650120600601313544316
B1326225558700N00903963EA011650120500600813850307
B1326235558712N00903932EA011650120600601313932300
B1326245558721N00903898EA011670120800600313821292
B1326255558727N00903862EA011680120900600613637283
B1326265558730N00903826EA011690121000600013452274
B1326275558730N00903789EA011700121100600613278266
B1326285558728N00903754EA011700121200600913083258
B1326295558721N00903720EA011710121200600913083247
B1326305558713N00903688EA011730121200601512944238
B1326315558702N00903659EA011730121400601312544232
B1326325558690N00903634EA011730121500600912375225
B1326335558676N00903611EA011740121500601112188218
B1326345558661N00903592EA011750121600600211945212
B1326355558645N00903576EA011750121700601211943207
B1326365558629N00903563EA011780121800600511671202
B1326375558612N00903553EA011810122000600111274195
B1326385558596N00903547EA011820122300600310839185
B1326395558580N00903547EA011840122600600910140173
B1326405558565N00903553EA011860122800601109542159
B1326415558553N00903565EA011860123000601109241145
B1326425558542N00903581EA011850123000600909417134
B1326435558532N00903600EA011840123000601309453125
B1326445558525N00903622EA011830122800600709453115
B1326455558520N00903646EA011820122700600209482105
B1326465558517N00903672EA011820122600600809595096
B1326475558516N00903698EA011820122500601009803087
B1326485558518N00903724EA011820122500601410001078
B1326495558522N00903751EA011830122600600210140070
B1326505558528N00903776EA011850122700601210238063
B1326515558536N00903800EA011860122800600410309056
B1326525558545N00903822EA011890122900601210385049
B1326535558556N00903842EA011900123100600310372043
B1326545558568N00903860EA011900123200600810459037
B1326555558581N00903876EA011930123400601410481030
B1326565558595N00903889EA011950123500600510878023
B1326575558611N00903899EA011970123600600410881016
B1326585558627N00903906EA011980123800601111041011
B1326595558643N00903910EA012000124100801411128006
B1327005558660N00903912EA012020124300600611232001
B1327015558677N00903912EA012030124400600511361356
B1327025558694N00903908EA012050124600600511665350
B1327035558711N00903901EA012070124700601511743344
B1327045558728N00903891EA012090124900600312116338
B1327055558746N00903877EA012110125000600112427333
B1327065558761N00903860EA012120125100601312570328
B1327075558777N00903840EA012140125200600112746323
B1327085558793N00903818EA012160125400600712757318
B1327095558806N00903794EA012160125500601312790313
B1327105558819N00903768EA012180125600600212779306
B1327115558828N00903738EA012190125700601212512293
B1327125558834N00903706EA012210125800600612368281
B1327135558836N00903673EA012210125800600612190271
B1327145558834N00903641EA012200125800601211890259
B1327155558830N00903610EA012190125800601211504248
B1327165558822N00903583EA012190125700600511245235
B1327175558811N00903561EA012190125600600111061222
B1327185558797N00903543EA012180125500601510694210
B1327195558783N00903532EA012180125500600610157196
B1327205558768N00903528EA012180125500600009766180
B1327215558754N00903532EA012190125600601009642164
B1327225558741N00903542EA012210125800600009647150
B1327235558729N00903558EA012220125900600909277133
B1327245558721N00903578EA012240126200600809441118
B1327255558716N00903602EA012260126300600709567103
B1327265558714N00903628EA012270126500601209705087
B1327275558717N00903654EA012300126700601309842073
B1327285558723N00903679EA012300126900600810123059
B1327295558732N00903701EA012320126900600310483046
B1327305558744N00903720EA012330127000601110944034
B1327315558759N00903734EA012340127100601111439022
B1327325558776N00903743EA012350127200601311967010
B1327335558794N00903746EA012360127300601512345359
B1327345558813N00903743EA012360127300600812668349
LLXVBATT:3.84V 132735
B1327355558832N00903733EA012350127300601113033339
F13273512253121292314020526
B1327365558850N00903718EA012350127300600613374331
B1327375558867N00903698EA012360127300600313446322
B1327385558882N00903673EA012370127400601113563312
B1327395558895N00903644EA012380127500600513567303
B1327405558905N00903613EA012380127600600913489295
B1327415558912N00903579EA012400127700600813365287
B1327425558917N00903544EA012410127800600013185278
B1327435558918N00903509EA012420127900600212981269
B1327445558916N00903474EA012430128000600112786260
B1327455558912N00903441EA012430128100601112551252
B1327465558904N00903410EA012430128100601312281243
B1327475558895N00903382EA012450128200800811967233
B1327485558883N00903358EA012460128400601311545225
B1327495558871N00903338EA012470128600600511031217
B1327505558857N00903322EA012500128800601410494207
B1327515558842N00903312EA012510129000600810016197
B1327525558828N00903306EA012520129100600809636188
B1327535558813N00903305EA012520129100600109365178
B1327545558799N00903308EA012520129100600209282168
B1327555558786N00903315EA012530129000600709252159
B1327565558773N00903326EA012530129000600309065150
B1327575558762N00903340EA012540129100601209123140
B1327585558752N00903357EA012550129300601509043129
B1327595558744N00903378EA012570129600601509217122
B1328005558737N00903400EA012600129800600709262111
B1328015558733N00903424EA012600130000601309301101
B1328025558731N00903450EA012600130200601109436091
B1328035558732N00903475EA012610130100600509562082
B1328045558735N00903501EA012600130100600609853071
B1328055558741N00903526EA012580129900600910196061
B1328065558750N00903549EA012580129800600110637051
B1328075558761N00903571EA012560129700601211063041
B1328085558775N00903589EA012560129600601311441032
B1328095558790N00903603EA012570129600601511880022
B1328105558807N00903613EA012590129700601212292012
B1328115558826N00903617EA012610129900601012581003
B1328125558845N00903617EA012630130100600812679354
B1328135558864N00903610EA012660130300601012559345
B1328145558882N00903599EA012640130400601112660336
B1328155558899N00903583EA012670130500600112827328
B1328165558915N00903562EA012670130600600513007320
B1328175558929N00903537EA012670130600600213055310
B1328185558941N00903509EA012670130700601112959303
B1328195558950N00903479EA012660130700601412868294
B1328205558957N00903446EA012660130600600612811286
B1328215558961N00903412EA012650130600600512798277
B1328225558962N00903378EA012640130500600812709269
B1328235558960N00903344EA012640130300600112625260
B1328245558955N00903311EA012640130300600412688249
B1328255558947N00903280EA012640130200601512492241
B1328265558937N00903252EA012660130300600411914233
B1328275558925N00903229EA012670130500600811460224
B1328285558912N00903210EA012680130600600611004214
B1328295558898N00903195EA012690130700600310622204
B1328305558883N00903186EA012690130800600510301194
B1328315558868N00903182EA012690130900601410094184
B1328325558852N00903182EA012710130900600709970174
B1328335558838N00903187EA012700130900600509897165
B1328345558824N00903196EA012700130900600609647155
B1328355558811N00903209EA012710130900601110012146
B1328365558799N00903226EA012730131000600710049136
B1328375558789N00903247EA012730131200600509870124
B1328385558782N00903270EA012750131400601409868113
B1328395558776N00903296EA012740131500601210211107
B1328405558773N00903323EA012750131500600610316098
B1328415558772N00903351EA012750131500600810374088
B1328425558774N00903379EA012740131500600210514077
B1328435558779N00903406EA012750131500601010687066
B1328445558787N00903432EA012750131600600010918056
B1328455558797N00903455EA012750131500600611245046
B1328465558810N00903476EA012740131500601311663036
B1328475558825N00903492EA012750131500600812045026
B1328485558842N00903504EA012750131500600212377017
B1328495558861N00903512EA012770131500600912625009
B1328505558880N00903515EA012790131600600812925001
B1328515558899N00903514EA012800131800601013022354
B1328525558919N00903508EA012830131900601412990345
B1328535558937N00903497EA012830132100600613311339
B1328545558956N00903482EA012840132200600413381333
B1328555558974N00903464EA012840132300601013457326
B1328565558990N00903442EA012840132400601213457319
B1328575559005N00903416EA012840132400601313489312
B1328585559017N00903388EA012830132400600013533305
B1328595559028N00903357EA012830132300600413276296
B1329005559036N00903324EA012820132200600113316289
B1329015559042N00903289EA012810132100601313339284
B1329025559046N00903253EA012800132000601413409277
B1329035559047N00903218EA012800132000600513326271
B1329045559046N00903182EA012800131900601313313263
B1329055559043N00903148EA012800131900600612835255
B1329065559037N00903115EA012810132000601412521248
B1329075559028N00903085EA012820132100601512112240
B1329085559019N00903058EA012820132200601311699232
B1329095559007N00903035EA012820132300600511289225
B1329105558995N00903016EA012820132300600210935216
B1329115558981N00903000EA012820132300600610635208
B1329125558966N00902989EA012820132200600310381198
B1329135558951N00902982EA012820132200601210183189
B1329145558936N00902980EA012810132200600409953180
B1329155558921N00902982EA012800132200600709903171
B1329165558907N00902988EA012790132000601309940164
B1329175558892N00902998EA012770131800600010086156
B1329185558879N00903010EA012760131700600210257150
B1329195558866N00903026EA012760131500600510220142
B1329205558854N00903044EA012760131500600110537136
B1329215558843N00903065EA012760131500600710690131
B1329225558833N00903087EA012760131700601410687127
B1329235558823N00903111EA012780131800600010579122
B1329245558815N00903136EA012790131900600310646118
B1329255558808N00903161EA012780132000601110678115
B1329265558801N00903188EA012790132000600510676112
B1329275558796N00903215EA012800132100600110655105
B1329285558792N00903244EA012810132100601010692101
B1329295558790N00903272EA012800132100600410700096
B1329305558788N00903302EA012800132200600710881091
B1329315558788N00903331EA012820132200600010800089
B1329325558788N00903360EA012840132300600410813084
B1329335558791N00903389EA012850132500600710733079
B1329345558794N00903417EA012880132700600410661074
B1329355558799N00903445EA012910132900600410700072
B1329365558804N00903471EA012910133100600710190073
B1329375558807N00903497EA012910133300600009918079
B1329385558809N00903524EA012900133300601509712087
B1329395558808N00903550EA012890133200600209671096
B1329405558805N00903575EA012860133000600109705104
B1329415558801N00903600EA012830132700600409516113
B1329425558795N00903624EA012790132400600309566114
B1329435558787N00903647EA012760132100600110085125
B1329445558776N00903668EA012730131800600310507132
B1329455558763N00903688EA012700131400601111150139
B1329465558749N00903707EA012670131100600711521143
B1329475558734N00903725EA012640130800600811732146
B1329485558719N00903741EA012630130600600511923150
B1329495558702N00903756EA012600130400600512116154
B1329505558685N00903769EA012580130200601512229158
B1329515558667N00903780EA012560129900601112334162
B1329525558649N00903789EA012540129700600012481165
B1329535558631N00903797EA012530129500600512610169
B1329545558611N00903802EA012530129400600512748172
B1329555558592N00903805EA012530129400601212822175
B1329565558572N00903807EA012510129300601412887178
B1329575558553N00903807EA012490129200600012825180
B1329585558533N00903805EA012480129000600112816182
B1329595558514N00903803EA012470128900601012816183
B1330005558494N00903800EA012470128800600012848185
B1330015558475N00903796EA012480128800600612881187
B1330025558455N00903791EA012490128900601112866190
B1330035558436N00903783EA012500129000601512868192
B1330045558418N00903775EA012500129100600312625195
B1330055558400N00903765EA012510129200600612557197
B1330065558382N00903754EA012520129300600712494200
B1330075558364N00903742EA012530129400600812444201
B1330085558347N00903729EA012540129500601412369202
B1330095558330N00903716EA012550129600600812334203
B1330105558313N00903703EA012550129600600612164202
B1330115558296N00903691EA012560129700600712006201
B1330135558262N00903670EA012550129700600711621195
B1330155558229N00903661EA012530129600601311185180
B1330175558196N00903670EA012500129300601410868161
B1330195558169N00903697EA012490129100600610605142
B1330215558146N00903738EA012500129200601210872129
B1330235558127N00903786EA012480129100600510950118
B1330255558114N00903841EA012460128900600310989109
B1330275558104N00903896EA012460128800600110961105
B1330295558097N00903953EA012500128800601310948101
B1330315558091N00904010EA012510129200600810620100
B1330335558085N00904066EA012510129200600110627101
B1330355558080N00904123EA012520129100601311104094
B1330375558081N00904184EA012540129400600811293083
B1330395558090N00904242EA012550129500601211402069
B1330415558105N00904296EA012560129600600411384056
B1330435558127N00904344EA012570129700601411717044
B1330455558156N00904383EA012550129600601312319030
B1330475558191N00904409EA012530129400600712768016
B1330495558229N00904418EA012500129000600613289000
B1330515558270N00904408EA012470128800601013637344
B1330535558308N00904377EA012450128500600213861327
B1330555558341N00904329EA012430128200600313958315
B1330575558369N00904272EA012430128100601413998309
B1330595558395N00904213EA012430128200600613756306
B1331015558419N00904152EA012440128300601213585304
B1331035558441N00904090EA012460128500600113585301
B1331045558452N00904058EA012460128600600113617300
B1331055558462N00904026EA012460128600601313646298
B1331065558471N00903993EA012450128500600713687296
B1331075558480N00903960EA012460128500601213765294
B1331085558488N00903926EA012470128500600813743292
B1331095558496N00903891EA012480128600600413858289
B1331105558503N00903855EA012490128800601013921288
B1331115558509N00903819EA012490128900600813769285
B1331125558513N00903783EA012490128900601313848280
B1331135558516N00903747EA012490129000601013491273
B1331145558516N00903711EA012480128900601313365266
B1331155558514N00903675EA012460128800600113189259
B1331165558509N00903641EA012440128700600813089251
B1331175558502N00903609EA012410128500600712994244
B1331185558492N00903578EA012400128300600112759236
B1331195558480N00903551EA012380128100600012649228
B1331205558467N00903528EA012360127900601212547221
B1331215558452N00903507EA012350127800601412362213
B1331225558435N00903491EA012340127600600412121206
B1331235558418N00903479EA012330127500601212012199
B1331245558401N00903471EA012330127400601311825191
B1331255558383N00903467EA012340127400601111606184
B1331265558366N00903467EA012350127500600811400176
B1331275558349N00903471EA012370127700600611233170
B1331285558332N00903478EA012390127800601311082163
B1331295558317N00903488EA012410128000600310913156
B1331305558302N00903501EA012420128300600010724150
B1331315558289N00903517EA012450128500600510566144
B1331325558276N00903535EA012470128800600710446138
B1331335558265N00903555EA012490129000601510372133
B1331355558245N00903600EA012490129200600710472121
B1331375558231N00903651EA012480129100600510644112
B1331395558221N00903707EA012440128800600610930103
B1331415558215N00903767EA012390128300600011495095
B1331435558214N00903831EA012400128000601112045086
B1331455558219N00903896EA012450128300601411977078
B1331475558230N00903956EA012550129200600311428066
B1331495558248N00904006EA012610130000601310902048
B1331515558273N00904041EA012660130500601510577026
B1331535558304N00904056EA012660130800600510870003
B1331555558337N00904048EA012640130500600311174344
B1331575558368N00904023EA012620130300601311795328
B1331595558397N00903983EA012630130300600112017317
B1332005558410N00903960EA012620130300601012084312
B1332015558422N00903935EA012630130300601412093307
B1332025558432N00903908EA012610130300600812032300
B1332035558440N00903879EA012610130200600812119295
B1332045558447N00903849EA012590130100600612132289
B1332055558453N00903817EA012590130000600912129283
B1332065558457N00903785EA012590129900701212138278
F133206122531292314020526
B1332075558458N00903752EA012610129900800812290273
B1332085558459N00903718EA012610130100601312277268
B1332095558457N00903685EA012630130300601212266263
B1332105558455N00903653EA012650130400601412271259
B1332115558451N00903622EA012660130600600811741254
B1332125558445N00903592EA012670130700601511552249
B1332135558438N00903563EA012670130800600911384244
B1332145558430N00903537EA012680130800600511276237
B1332155558420N00903512EA012680130900601411200230
B1332165558408N00903490EA012680130900601011117223
B1332175558395N00903472EA012680130800600111072215
B1332185558381N00903457EA012680130800601111037206
B1332195558365N00903446EA012680130700600010950197
B1332205558350N00903439EA012700130800600410711187
B1332215558334N00903438EA012700130900600610590177
B1332225558318N00903442EA012720131000601210348167
B1332235558304N00903451EA012720131200601410096156
B1332245558291N00903464EA012740131300600209692143
B1332255558281N00903482EA012730131400601409523129
B1332265558272N00903504EA012730131400600909599118
B1332275558266N00903528EA012710131300601309681109
B1332285558262N00903553EA012690131100600209731098
B1332295558262N00903580EA012670131000601409910087
B1332315558268N00903634EA012630130500600510553068
B1332335558284N00903686EA012580129900600311211056
B1332355558305N00903735EA012580129500600511710049
B1332365558317N00903759EA012590129700601311615046
LLXVBATT:3.85V 133237
B1332375558329N00903780EA012650130000601411810042
B1332385558342N00903799EA012680130400601010898036
B1332395558356N00903815EA012730130800601410531030
B1332405558369N00903828EA012760131300600010127023
B1332415558383N00903837EA012790131700600309710016
B1332425558397N00903842EA012800131900601309517008
B1332435558412N00903844EA012800132000600009619359
B1332445558426N00903842EA012760131800600909929351
B1332455558441N00903836EA012730131500600910490343
B1332465558457N00903825EA012680131000601411233335
B1332475558472N00903810EA012660130600601311901327
B1332485558487N00903790EA012640130200600512508319
B1332495558501N00903766EA012620130100601212766312
B1332505558513N00903740EA012630130100600612729305
B1332515558523N00903710EA012640130200600812588297
B1332525558530N00903679EA012670130300601312366289
